:020000040800F2
:1000000000000220B13F0008E93D0008EF3D000874
:10001000F53D0008FB3D0008013E0008000000001F
:1000200000000000000000000000000081A800089F
:10003000073E000800000000D1AA0008153E000895
:10004000014000080140000801400008014000088C
:10005000014000080140000801400008014000087C
:10006000014000080140000801400008014000086C
:10007000014000080140000801400008014000085C
:10008000014000080140000801400008014000084C
:10009000014000080140000801400008014000083C
:1000A000014000080140000801400008014000082C
:1000B000014000080140000801400008014000081C
:1000C000014000080140000801400008014000080C
:1000D000014000080140000801400008313E0008CE
:1000E00001400008014000080140000801400008EC
:1000F00001400008014000080140000801400008DC
:1001000001400008014000080140000801400008CB
:1001100001400008014000080140000801400008BB
:1001200001400008014000080140000801400008AB
:10013000014000080140000801400008014000089B
:10014000014000080140000801400008014000088B
:10015000014000080140000801400008014000087B
:10016000014000080140000801400008014000086B
:1001700001400008014000080140000800000000A4
:080180000140000801400008E5
:1001900010B5054C237833B9044B13B10448AFF3C1
:1001A00000800123237010BD7C00002000000000AF
:1001B000FCCC000808B5034B1BB103490348AFF35F
:1001C000008008BD0000000080000020FCCC00087A
:1001D00001F0FF01102A2BDB10F0070F08D010F8F8
:1001E000013B013A8B422DD010F0070F42B3F6D1FC
:1001F000F0B441EA012141EA014122F007047FF015
:1002000000070023F0E80256083C85EA010586EA6B
:10021000010685FA47F5A3FA87F586FA47F6A5FAA7
:1002200087F68EB9EED1F0BC01F0FF0102F00702B3
:1002300032B110F8013B013A83EA010313B1F8D15E
:100240000020704701387047002D06BF354603383F
:10025000073815F0010F07D1013015F4807F02BF78
:10026000013015F4C03F0130F0BC0138704700BFC9
:1002700081F0004102E000BF83F0004330B54FEA57
:1002800041044FEA430594EA050F08BF90EA020FC4
:100290001FBF54EA000C55EA020C7FEA645C7FEA57
:1002A000655C00F0E2804FEA5454D4EB5555B8BF7A
:1002B0006D420CDD2C4480EA020281EA030382EAEB
:1002C000000083EA010180EA020281EA0303362D7D
:1002D00088BF30BD11F0004F4FEA01314FF4801C50
:1002E0004CEA113102D0404261EB410113F0004F62
:1002F0004FEA03334CEA133302D0524263EB430319
:1003000094EA050F00F0A780A4F10104D5F1200EB6
:100310000DDB02FA0EFC22FA05F2801841F1000111
:1003200003FA0EF2801843FA05F359410EE0A5F1E5
:1003300020050EF1200E012A03FA0EFC28BF4CF016
:10034000020C43FA05F3C01851EBE37101F00045CC
:1003500007D54FF0000EDCF1000C7EEB00006EEBD9
:100360000101B1F5801F1BD3B1F5001F0CD3490863
:100370005FEA30004FEA3C0C04F101044FEA4452BA
:1003800012F5800F80F09A80BCF1004F08BF5FEA41
:10039000500C50F1000041EB045141EA050130BD21
:1003A0005FEA4C0C404141EB0101013C28BFB1F533
:1003B000801FE9D291F0000F04BF01460020B1FA7E
:1003C00081F308BF2033A3F10B03B3F120020CDA51
:1003D0000C3208DD02F1140CC2F10C0201FA0CF02F
:1003E00021FA02F10CE002F11402D8BFC2F1200C94
:1003F00001FA02F120FA0CFCDCBF41EA0C0190404A
:10040000E41AA2BF01EB0451294330BD6FEA040492
:100410001F3C1CDA0C340EDC04F11404C4F120027D
:1004200020FA04F001FA02F340EA030021FA04F38F
:1004300045EA030130BDC4F10C04C4F1200220FAE6
:1004400002F001FA04F340EA0300294630BD21FA24
:1004500004F0294630BD94F0000F83F4801306BFEA
:1004600081F480110134013D4EE77FEA645C18BFDE
:100470007FEA655C29D094EA050F08BF90EA020F75
:1004800005D054EA000C04BF1946104630BD91EA6D
:10049000030F1EBF0021002030BD5FEA545C05D170
:1004A0004000494128BF41F0004130BD14F58004AF
:1004B0003CBF01F5801130BD01F0004545F0FE4123
:1004C00041F470014FF0000030BD7FEA645C1ABF58
:1004D000194610467FEA655C1CBF0B46024650EA8F
:1004E000013406BF52EA033591EA030F41F40021BB
:1004F00030BD00BF90F0000F04BF0021704730B541
:100500004FF4806404F132044FF000054FF0000115
:1005100050E700BF90F0000F04BF0021704730B5D6
:100520004FF4806404F1320410F0004548BF4042AB
:100530004FF000013EE700BF42004FEAE2014FEA00
:1005400031014FEA02701FBF12F07F4393F07F4FDB
:1005500081F06051704732F07F4208BF704793F0DE
:100560007F4F04BF41F40021704730B54FF46074F1
:1005700001F0004521F000411CE700BF50EA0102F4
:1005800008BF704730B54FF000050AE050EA01029D
:1005900008BF704730B511F0004502D5404261EB0D
:1005A00041014FF4806404F132045FEA915C3FF44E
:1005B000D8AE4FF003025FEADC0C18BF03325FEAEB
:1005C000DC0C18BF033202EBDC02C2F1200300FA9C
:1005D00003FC20FA02F001FA03FE40EA0E0021FAC1
:1005E00002F11444BDE600BF70B54FF0FF0C4CF4AF
:1005F000E06C1CEA11541DBF1CEA135594EA0C0F61
:1006000095EA0C0F00F0DEF82C4481EA030621EA9B
:100610004C5123EA4C5350EA013518BF52EA0335D6
:1006200041F4801143F4801338D0A0FB02CE4FF088
:100630000005E1FB02E506F00042E0FB03E54FF0B8
:100640000006E1FB03569CF0000F18BF4EF0010EB0
:10065000A4F1FF04B6F5007F64F5407404D25FEAAC
:100660004E0E6D4146EB060642EAC62141EA55515F
:100670004FEAC52040EA5E504FEACE2EB4F1FD0CA1
:1006800088BFBCF5E06F1ED8BEF1004F08BF5FEA1F
:10069000500E50F1000041EB045170BD06F00046D1
:1006A00046EA010140EA020081EA0301B4EB5C047E
:1006B000C2BFD4EB0C0541EA045170BD41F4801176
:1006C0004FF0000E013C00F3AB8014F1360FDEBF9B
:1006D000002001F0004170BDC4F10004203C35DA77
:1006E0000C341BDC04F11404C4F1200500FA05F3FA
:1006F00020FA04F001FA05F240EA020001F000429B
:1007000021F0004110EBD37021FA04F642EB060110
:100710005EEA430E08BF20EAD37070BDC4F10C043A
:10072000C4F1200500FA04F320FA05F001FA04F2FE
:1007300040EA020001F0004110EBD37041F10001EA
:100740005EEA430E08BF20EAD37070BDC4F12005F5
:1007500000FA05F24EEA020E20FA04F301FA05F25D
:1007600043EA020321FA04F001F0004121FA04F205
:1007700020EA020000EBD3705EEA430E08BF20EAD5
:10078000D37070BD94F0000F0FD101F0004640000F
:1007900041EB010111F4801F08BF013CF7D041EA91
:1007A000060195F0000F18BF704703F00046520095
:1007B00043EB030313F4801F08BF013DF7D043EA66
:1007C0000603704794EA0C0F0CEA135518BF95EA1C
:1007D0000C0F0CD050EA410618BF52EA4306D1D1A3
:1007E00081EA030101F000414FF0000070BD50EAC2
:1007F000410606BF1046194652EA430619D094EA4C
:100800000C0F02D150EA013613D195EA0C0F05D135
:1008100052EA03361CBF104619460AD181EA030189
:1008200001F0004141F0FE4141F470014FF0000041
:1008300070BD41F0FE4141F4780170BD70B54FF0DC
:10084000FF0C4CF4E06C1CEA11541DBF1CEA13555C
:1008500094EA0C0F95EA0C0F00F0A7F8A4EB05043E
:1008600081EA030E52EA03354FEA013100F0888035
:100870004FEA03334FF0805545EA131343EA1263FE
:100880004FEA022245EA111545EA10654FEA0026B3
:100890000EF000419D4208BF964244F1FD0404F56C
:1008A000407402D25B084FEA3202B61A65EB0305C8
:1008B0005B084FEA32024FF480104FF4002CB6EB85
:1008C000020E75EB030E22BFB61A754640EA0C0005
:1008D0005B084FEA3202B6EB020E75EB030E22BF45
:1008E000B61A754640EA5C005B084FEA3202B6EB86
:1008F000020E75EB030E22BFB61A754640EA9C0045
:100900005B084FEA3202B6EB020E75EB030E22BF14
:10091000B61A754640EADC0055EA060E18D04FEAD2
:10092000051545EA16754FEA06164FEAC30343EA72
:1009300052734FEAC2025FEA1C1CC0D111F4801F3F
:100940000BD141EA00014FF000004FF0004CB6E738
:1009500011F4801F04BF01430020B4F1FD0C88BFD7
:10096000BCF5E06F3FF6AFAEB5EB030C04BFB6EBE2
:10097000020C5FEA500C50F1000041EB045170BDD5
:100980000EF0004E4EEA113114EB5C04C2BFD4EB02
:100990000C0541EA045170BD41F480114FF0000E86
:1009A000013C90E645EA060E8DE60CEA135594EA02
:1009B0000C0F08BF95EA0C0F3FF43BAF94EA0C0F05
:1009C0000AD150EA01347FF434AF95EA0C0F7FF47A
:1009D00025AF104619462CE795EA0C0F06D152EACE
:1009E00003353FF4FDAE1046194622E750EA4106B2
:1009F00018BF52EA43067FF4C5AE50EA41047FF4C3
:100A00000DAF52EA43057FF4EBAE12E74FF0FF3C27
:100A100006E000BF4FF0010C02E000BF4FF0010CF8
:100A20004DF804CD4FEA410C7FEA6C5C4FEA430C71
:100A300018BF7FEA6C5C1BD001B050EA410C0CBFC0
:100A400052EA430C91EA030F02BF90EA020F002022
:100A5000704710F1000F91EA030F58BF994208BF89
:100A600090422CBFD8176FEAE37040F00100704746
:100A70004FEA410C7FEA6C5C02D150EA013C07D19D
:100A80004FEA430C7FEA6C5CD6D152EA033CD3D0E8
:100A90005DF8040B704700BF8446104662468C46E2
:100AA0001946634600E000BF01B5FFF7B7FF002815
:100AB00048BF10F1000F01BD4DF808EDFFF7F4FF3E
:100AC0000CBF012000205DF808FB00BF4DF808EDC9
:100AD000FFF7EAFF34BF012000205DF808FB00BFEC
:100AE0004DF808EDFFF7E0FF94BF012000205DF80E
:100AF00008FB00BF4DF808EDFFF7CEFF94BF0120C3
:100B000000205DF808FB00BF4DF808EDFFF7C4FFBB
:100B100034BF012000205DF808FB00BF4FEA410C04
:100B20007FEA6C5C02D150EA013C0AD14FEA430CE7
:100B30007FEA6C5C02D152EA033C02D14FF0000024
:100B400070474FF0010070474FEA4102B2F1E043B5
:100B500024BFB3F5001CDCF1FE5C0DD901F0004CA4
:100B60004FEAC0024CEA5070B2F1004F40EB8300F4
:100B700008BF20F00100704711F0804F21D113F120
:100B80003872BCBF01F00040704741F480114FEA59
:100B90005252C2F11802C2F1200C10FA0CF320FAE2
:100BA00002F018BF40F001004FEAC1234FEAD323FF
:100BB00003FA0CFC40EA0C0023FA02F34FEA430369
:100BC000CCE77FEA625307D150EA01331EBF4FF0F2
:100BD000FE4040F44000704701F0004040F0FE400D
:100BE00040F40000704700BF53B94AB9002908BF5C
:100BF00000281CBF4FF0FF314FF0FF3000F06EB9FE
:100C0000ADF1080C6DE904CE00F006F8DDF804E063
:100C1000DDE9022304B070472DE9F047089D044642
:100C20008C46002B40F083808A42174647D9B2FA9F
:100C300082F242B1C2F1200024FA00F091409740C4
:100C400040EA010C94404FEA1748230CBCFBF8F62D
:100C50001FFA87FE08FB16C143EA014306FB0EF1AB
:100C6000994209D9FB1806F1FF3080F019819942A9
:100C700040F21681023E3B445B1AA4B2B3FBF8F08B
:100C800008FB103344EA034400FB0EFEA64509D9D5
:100C90003C1900F1FF3380F00581A64540F2028146
:100CA00002383C4440EA0640A4EB0E0400261DB185
:100CB000D4400023C5E900433146BDE8F08702B9BE
:100CC000FFDEB2FA82F2002A50D1CB1B4FEA174E58
:100CD0001FFA87F80126B3FBFEFC210C0EFB1C3328
:100CE00041EA034108FB0CF38B4207D979180CF158
:100CF000FF3002D28B4200F2E9808446C91AA3B2C7
:100D0000B1FBFEF00EFB101143EA014408FB00F8B2
:100D1000A04507D93C1900F1FF3302D2A04500F2EB
:100D2000D9801846A4EB080440EA0C40BFE78B4288
:100D300009D9002D00F0B1800026C5E90001304638
:100D40003146BDE8F087B3FA83F6002E4AD18B42D4
:100D500002D3824200F2B880841A61EB03010120C1
:100D60008C46002DA8D0C5E9004CA5E7C2F12003B0
:100D700020FA03F6974001FA02F04FEA174ED940E5
:100D80003043030CB1FBFEF61FFA87F80EFB161179
:100D900043EA014306FB08F1994204FA02F409D937
:100DA000FB1806F1FF3C80F08D80994240F28A806A
:100DB000023E3B445B1A81B2B3FBFEF00EFB1033E4
:100DC00041EA034100FB08F38B4207D9791800F18F
:100DD000FF3C73D28B4271D902383944CB1A40EAB6
:100DE000064678E7C6F1200C03FA06F422FA0CF363
:100DF0001C4320FA0CF701FA06F34FEA144E21FACD
:100E00000CF11F433B0CB1FBFEF91FFA84F80EFBFB
:100E1000191143EA014109FB08FA8A4502FA06F270
:100E200000FA06F308D9611809F1FF3048D28A4563
:100E300046D9A9F102092144A1EB0A01BFB2B1FBD5
:100E4000FEF00EFB101147EA014700FB08F8B84519
:100E500007D9E71900F1FF312ED2B8452CD9023855
:100E6000274440EA0940A7EB0807A0FB02894F4549
:100E7000C64649461AD317D05DB1B3EB0E0267EBF5
:100E8000010707FA0CFCF2404CEA0202F740C5E900
:100E9000002700263146BDE8F0872E4628460BE79E
:100EA0000646E9E61846FDE64345E5D2B8EB020EF4
:100EB00069EB04010138DFE70846D2E760468DE7B9
:100EC0008146B9E7664675E730464AE7ACF1020C61
:100ED000394413E702383C4424E700BF704700BFA1
:100EE00080B483B000AF78607B681B6843F0010278
:100EF0007B681A6000BF0C37BD465DF8047B704705
:100F000080B483B000AF78607B681B6803F0010396
:100F1000012B0CBF01230023DBB218460C37BD4662
:100F20005DF8047B704780B483B000AF78607B6865
:100F30005B6823F400627B685A6000BF0C37BD46D3
:100F40005DF8047B704780B483B000AF78607B6845
:100F50005B6823F4C0627B685A6000BF0C37BD46F3
:100F60005DF8047B704780B483B000AF78607B6825
:100F70005B6823F4C0627B685A6000BF0C37BD46D3
:100F80005DF8047B704780B483B000AF78607B6805
:100F90005B6903F08003802B0CBF01230023DBB2CD
:100FA00018460C37BD465DF8047B704780B483B0AB
:100FB00000AF78607B685B6903F00403042B0CBF0F
:100FC00001230023DBB218460C37BD465DF8047BD5
:100FD000704780B483B000AF78607B685B6903F0D2
:100FE0004003402B0CBF01230023DBB218460C3713
:100FF000BD465DF8047B704780B483B000AF786075
:101000007B685B6903F00103012B0CBF0123002304
:10101000DBB218460C37BD465DF8047B704780B4E0
:1010200083B000AF78607B685B6903F00203022B3A
:101030000CBF01230023DBB218460C37BD465DF818
:10104000047B704780B483B000AF78607B689B6995
:1010500003F00203022B0CBF01230023DBB218466E
:101060000C37BD465DF8047B704780B485B000AF97
:1010700078607B685B69FB60FB687B689B69FB60F1
:10108000FB6800BF1437BD465DF8047B704780B431
:1010900083B000AF786039607B681B6823F480629E
:1010A0003B681A437B681A6000BF0C37BD465DF889
:1010B000047B704780B483B000AF78607B681B68A6
:1010C00043F480727B681A6000BF0C37BD465DF840
:1010D000047B704780B483B000AF78607B681B6886
:1010E00043F400727B681A6000BF0C37BD465DF8A0
:1010F000047B704780B483B000AF78607B681B6866
:1011000023F400627B681A6000BF0C37BD465DF8AF
:10111000047B704780B483B000AF78607B681B6944
:10112000DBB218460C37BD465DF8047B704780B4CF
:1011300083B000AF78600B46FB707B681B6923F0BF
:10114000FF02FB781A437B681A6100BF0C37BD466B
:101150005DF8047B704780B586B000AFF8607A60B8
:101160001A460B46FB7213463B81FB681B79012B29
:101170007BD0FB6801221A71FB6800225A71FB6860
:101180001B681846FFF7CFFEFB681B681846FFF781
:10119000DAFEFB681B681846FFF7B2FE0346002B19
:1011A00004D1FB681B681846FFF79AFEFB681B68B2
:1011B0001846FFF79FFF00BFFB681B681846FFF744
:1011C00041FF0346002BF7D1FB681B681846FFF769
:1011D00071FF00BFFB681B681846FFF70DFF034651
:1011E000002BF7D0FB681B68FA7A11461846FFF708
:1011F0009EFF00BFFB681B681846FFF710FF034601
:10120000002BF7D0FB681B681846FFF72EFF002362
:10121000FB8214E0FB681868FB8A7A6813441B7829
:101220001946FFF784FF00BFFB681B681846FFF7ED
:10123000AAFE0346002BF7D0FB8A0133FB82FA8A11
:101240003B899A42E6D300BFFB681B681846FFF74C
:10125000ADFE0346002BF7D0FB681B681846FFF76E
:1012600039FFFB6800221A7100E000BF1837BD4645
:1012700080BD90B587B000AFF8607A601A460B4623
:10128000FB7213463B81FB681B79012B00F09480B5
:10129000FB6801221A71FB6801225A71FB7A43F044
:1012A0000103FB72FB681B681846FFF73CFEFB68F6
:1012B0001B681846FFF757FEFB681B681846FFF7C8
:1012C0001FFE0346002B04D1FB681B681846FFF77E
:1012D00007FEFB681B681846FFF70CFF00BFFB68A2
:1012E0001B681846FFF7AEFE0346002BF7D13B897B
:1012F000012B06D1FB681B6800211846FFF7C7FECB
:1013000006E0FB681B684FF480611846FFF7BFFEDC
:10131000FB681B681846FFF7CDFE00BFFB681B6823
:101320001846FFF769FE0346002BF7D0FB681B68E1
:10133000FA7A11461846FFF7FAFE00BFFB681B68F1
:101340001846FFF76CFE0346002BF7D0FB681B68BE
:101350001846FFF78AFE0023FB8220E0FA8A3B89C9
:10136000013B9A4205D1FB681B6800211846FFF734
:101370008EFE00BFFB681B681846FFF72AFE034677
:10138000002BF7D0FB681968FB8A7A68D4180846E6
:10139000FFF7C0FE03462370FB8A0133FB82FA8A03
:1013A0003B899A42DAD3FB681B681846FFF792FE26
:1013B000FB6800221A7100E000BF1C37BD4690BDDB
:1013C00080B584B000AF78600B46FB701346BB70ED
:1013D000FB783B73BB787B7378687B68197A07F17D
:1013E0000C020223FFF7B7FE00BF1037BD4680BDD9
:1013F00080B584B000AF78600B46FB70FB783B7320
:1014000078687B68197A07F10C020123FFF7A3FEC5
:1014100078687B68197A07F108020123FFF729FF32
:101420003B7A18461037BD4680BD000080B582B0BB
:1014300000AF78600B46FB700B4B1B78FA789A4232
:101440000DD0FB78032B0AD8FB781B01DBB21A46C0
:101450007F217868FFF7B4FF034AFB78137000BF61
:101460000837BD4680BD00BF9800002080B582B01F
:1014700000AF7860084B1B78002B03D00021786800
:10148000FFF7D4FF00217868FFF7B2FF0346184644
:101490000837BD4680BD00BF9800002080B582B0EF
:1014A00000AF786039607B683A681A607B68D02248
:1014B0001A727B6818225A724FF47A7006F07CFD1B
:1014C00000217868FFF7B2FF802206217868FFF7D5
:1014D00077FF642006F070FD092206217868FFF787
:1014E0006FFF02217868FFF7A1FF012200217868D1
:1014F000FFF766FF032201217868FFF761FF0122F1
:1015000011217868FFF75CFF032214217868FFF748
:1015100057FF00217868FFF789FF02220F217868C2
:10152000FFF74EFF00BF0837BD4680BD80B58AB0CB
:1015300000AF786000217868FFF778FF2D23FB73F8
:1015400078687B68197A07F10F020123FFF703FE21
:1015500078687B68197A07F110020C23FFF789FE7F
:101560003B7C1B021AB27B7C1BB21343FB84BB7C0B
:101570001B021AB2FB7C1BB21343BB843B7D1B02D4
:101580001AB27B7D1BB213437B84BB7D1B021AB254
:10159000FB7D1BB213431BB2BB833B7E1B021AB203
:1015A0007B7E1BB213431BB2FB83BB7E1B021AB2B2
:1015B000FB7E1BB213431BB23B84B7F926207B682A
:1015C000DA60B7F924207B681A61B7F922207B68BA
:1015D0005A61B7F91C207B68A3F84420B7F91E2094
:1015E0007B68A3F84620B7F920207B68A3F8482041
:1015F000B7F91C301A467B68B3F93030D31A07EEBE
:10160000903AB8EEE77ADFED176AC7EE267A7B6884
:10161000C3ED067AB7F91E301A467B68B3F932304B
:10162000D31A07EE903AB8EEE77ADFED0E6AC7EE0E
:10163000267A7B68C3ED077AB7F920301A467B68B3
:10164000B3F93430D31A07EE903AB8EEE77ADFED0B
:10165000056AC7EE267A7B68C3ED087A00BF283793
:10166000BD4680BD0000834280B58CB000AF78607D
:1016700000233B6200237B620023BB62642006F0F0
:101680009BFC00217868FFF7D1FE0023FB624AE053
:10169000FA6A3F4BA3FB02135B09642101FB03F3CE
:1016A000D31A002B03D1F96A3A4809F019FD2D230A
:1016B000FB7278687B68197A07F10B020123FFF748
:1016C0004AFD78687B68197A07F10C020C23FFF752
:1016D000D0FDBB7C1B021AB2FB7C1BB213431BB2B6
:1016E0003B833B7D1B021AB27B7D1BB213431BB2B3
:1016F0007B83BB7D1B021AB2FB7D1BB213431BB263
:10170000BB833B6AB7F9182013443B627B6AB7F985
:101710001A2013447B62BB6AB7F91C201344BB62D6
:10172000FB6A0133FB62FB6AB3F57A7FB0D33B6A95
:10173000194A82FB03129211DB17D31A1AB27B6883
:101740001A867B6A144A82FB03129211DB17D31AA2
:101750001AB27B685A86BB6A0F4A82FB0312921147
:10176000DB17D31A1AB27B689A867B68B3F93030DC
:1017700019467B68B3F932301A467B68B3F93430C6
:10178000064809F0ADFC00BF3037BD4680BD00BF44
:101790001F85EB5114CD0008D34D62101CCD0008FD
:1017A00080B598B000AF786000217868FFF73EFE02
:1017B0000023FB654DE1FA6DC14BA3FB02135B09EE
:1017C000642101FB03F3D31A002B03D1F96DBD484B
:1017D00009F086FC2D23FB7678687B68197A07F17F
:1017E0001B020123FFF7B7FC78687B68197A07F1C1
:1017F00040020C23FFF73DFD97F840301B021AB260
:1018000097F841301BB213431BB2BB8697F84230A6
:101810001B021AB297F843301BB213431BB2FB866C
:1018200097F844301B021AB297F845301BB21343A5
:101830001BB23B8797F846301B021AB297F8473025
:101840001BB213431BB27B8797F848301B021AB2B6
:1018500097F849301BB213431BB2BB8797F84A3045
:101860001B021AB297F84B301BB213431BB2FB8713
:10187000B7F93430FB61B7F936303B62B7F938302D
:101880007B62B7F93A301A467B68B3F93030D31A25
:101890008D4A82FB03125211DB17D31ABB62B7F9D0
:1018A0003C301A467B68B3F93030D31A864A82FB43
:1018B00003125211DB17D31AFB62B7F93E301A46F6
:1018C0007B68B3F93030D31A7F4A82FB031252117E
:1018D000DB17D31A3B63FB69FA6902FB03F3784A0F
:1018E00082FB03125211DB17D21A3B6A396A01FBE1
:1018F00003F3734981FB03014911DB17CB1A1A4427
:101900007B6A796A01FB03F36D4981FB030149118D
:10191000DB17CB1A134407EE903AF8EEE77A17EE8E
:10192000900AFEF709FE02460B4643EC102B0AF024
:1019300087FD51EC100B4FF00002644BFEF754FE94
:1019400002460B4610461946FFF7FEF80346BB65F4
:10195000FB6907EE903AB8EEE77AD7ED167AC7EE54
:10196000276A16EE900AFEF7E7FD02460B4643ECA7
:10197000102B0AF02BFD51EC100B4FA3D3E90023E1
:10198000FEF732FE02460B4610461946FFF7DCF81A
:1019900003467B653B6A07EE903AB8EEE77AD7EDEF
:1019A000167AC7EE276A16EE900AFEF7C5FD0246C4
:1019B0000B4643EC102B0AF009FD51EC100B3EA333
:1019C000D3E90023FEF710FE02460B4610461946E7
:1019D000FFF7BAF803463B657B6A07EE903AB8EE2C
:1019E000E77AD7ED167AC7EE276A16EE900AFEF769
:1019F000A3FD02460B4643EC102B0AF0E7FC51EC2A
:101A0000100B2DA3D3E90023FEF7EEFD02460B4693
:101A100010461946FFF798F80346FB6497ED037AE2
:101A2000D7ED157A77EE277AC7ED037A97ED047A2A
:101A3000D7ED147A77EE277AC7ED047A97ED057A19
:101A4000D7ED137A77EE277AC7ED057AFB6D013370
:101A5000FB65FB6DB3F57A7FFFF4ADAE97ED037ACE
:101A6000DFED1B6AC7EE267A7B68C3ED097A97ED36
:101A7000047ADFED176AC7EE267A7B68C3ED0A7A2F
:101A800097ED057ADFED126AC7EE267A7B68C3ED23
:101A90000B7A7B685A6A7B689A637B689A6A7B6870
:101AA000DA637B68DA6A7B681A6400BF6037BD4618
:101AB00080BD00BFAFF3008072235D1ADCA54C40EF
:101AC0001F85EB5114CD00087FE0077E0000244005
:101AD00000007A4400000000B0B586B000AF786026
:101AE0007868FFF723FD7B68DB687A68D26802FBC1
:101AF00003F3A74A82FB03125211DB17D21A7B6849
:101B00001B697968096901FB03F3A14981FB0301A2
:101B10004911DB17CB1A1A447B685B6979684969FC
:101B200001FB03F39A4981FB03014911DB17CB1A2F
:101B3000134407EE903AF8EEE77AB0EE670A0AF03F
:101B4000E5FCF0EE407AB2EE047A67EE877AC7EDF4
:101B5000057A7B68DB6807EE903AB8EEE77AD7ED56
:101B6000057AC7EE276AB0EE660A0AF09DFC10EE11
:101B7000103A1846FEF7E0FC7DA3D3E90023FEF7F8
:101B800033FD02460B4610461946FEF7DDFF0346BD
:101B90003B617B681B6907EE903AB8EEE77AD7EDB8
:101BA000057AC7EE276AB0EE660A0AF07DFC10EEF1
:101BB000103A1846FEF7C0FC6DA3D3E90023FEF7E8
:101BC00013FD02460B4610461946FEF7BDFF0346BD
:101BD000FB607B685B6907EE903AB8EEE77AD7ED79
:101BE000057AC7EE276AB0EE660A0AF05DFC10EED1
:101BF000103A1846FEF7A0FC5DA3D3E90023FEF7D8
:101C0000F3FC02460B4610461946FEF79DFF0346BD
:101C1000BB607B689B6B1846FEF78EFC04460D4646
:101C20007B68DB691846FEF787FC53A3D3E90023E2
:101C3000FEF7DAFC02460B4620462946FEF71CFB5F
:101C400002460B46104619464DA3D3E90023FEF782
:101C5000CBFC02460B4614461D463869FEF76CFC69
:101C600049A3D3E90023FEF7BFFC02460B462046FA
:101C70002946FEF703FB02460B4610461946FEF7BF
:101C800063FF02467B689A637B68DB6B1846FEF74E
:101C900053FC04460D467B689B691846FEF74CFCD6
:101CA00035A3D3E90023FEF79FFC02460B462046EE
:101CB0002946FEF7E1FA02460B461046194630A3C4
:101CC000D3E90023FEF790FC02460B4614461D465E
:101CD000F868FEF731FC2CA3D3E90023FEF784FC5F
:101CE00002460B4620462946FEF7C6FA02460B4638
:101CF00010461946FEF728FF02467B68DA637B68C8
:101D00001B6C1846FEF718FC04460D467B681B6AE0
:101D10001846FEF711FC18A3D3E90023FEF764FC74
:101D200002460B4620462946FEF7A6FA02460B4617
:101D300014461D46B868FEF7FFFB4FF000024FF057
:101D40000003FEF751FC02460B4620462946FEF7EB
:101D500093FA02460B4610461946FEF7F5FE024678
:101D60007B681A6400BF1837BD46B0BDAFF3008072
:101D700072235D1ADCA54C40FCA9F1D24D62603F94
:101D80003C4ED1915CFEEF3F00401CEBE2362A3F17
:101D90001F85EB5180B584B000AF78600B46FB70B7
:101DA0001346BB70FB783B73BB787B7378687B68AA
:101DB000597A07F10C020223FFF7CDF900BF103763
:101DC000BD4680BD80B584B000AF78600B46FB7027
:101DD000FB783B7378687B68597A07F10C02012322
:101DE000FFF7B9F978687B68597A07F1080201238F
:101DF000FFF73FFA3B7A18461037BD4680BD80B5E5
:101E000082B000AF786000217868FFF7DBFF0346FF
:101E100018460837BD4680BD80B582B000AF7860F7
:101E200001217868FFF7CEFF034618460837BD4604
:101E300080BD80B582B000AF78604FF4967006F038
:101E4000BBF8082231217868FFF7A4FF00BF0837EC
:101E5000BD4680BD80B58AB000AFF860B9607A60D9
:101E60001021F868FFF7AEFF034603F00103002BD3
:101E700042D01123FB75F868FB68197A07F1170245
:101E80000123FFF768F9F868FB68597A07F1200227
:101E90000623FFF7EEF997F821301B021AB297F8E4
:101EA00020301BB213431BB23B8397F823301B0235
:101EB0001AB297F822301BB213431BB27B8397F8F8
:101EC00025301B021AB297F824301BB213431BB201
:101ED000BB83B7F918207B681A807B680233B7F997
:101EE0001A201A807B680433B7F91C201A80182145
:101EF000F868FFF767FF00E000BF2837BD4680BDE8
:101F000080B483B000AF78607B681B6823F08002E8
:101F10007B681A6000BF0C37BD465DF8047B7047D4
:101F200080B483B000AF78607B681B6823F0400208
:101F30007B681A6000BF0C37BD465DF8047B7047B4
:101F400080B483B000AF786039607B68DB6823F0D1
:101F5000FE023B681A437B68DA6000BF0C37BD465F
:101F60005DF8047B704780B483B000AF78607B6815
:101F7000DB6823F001027B68DA6000BF0C37BD46E6
:101F80005DF8047B7047000080B485B000AF7860D6
:101F9000084B1A6B07497B6813430B63054B1A6B9D
:101FA0007B681340FB60FB6800BF1437BD465DF8DB
:101FB000047B70470038024080B485B000AF786081
:101FC000084B1A6C07497B6813430B64054B1A6C6A
:101FD0007B681340FB60FB6800BF1437BD465DF8AB
:101FE000047B70470038024080B500AF02F00AF869
:101FF00000F060F800F080FB00F0AAFA00F000FAB0
:1020000000F060F900F04EFB00F004F900F0B0F8C9
:1020100000F04AFA01F06AFC0A221749174804F056
:1020200008FD06F023F8012006F057FB0346144A8A
:102030001360144A0021144806F062F80346134A5C
:102040001360134A0021134806F05AF80346124A57
:102050001360124A0021124806F052F80346114A52
:102060001360114A0021114806F04AF80346104A4D
:10207000136006F01FF8FEE77C4B0020584A002052
:102080009C000020B4CD0008552900080C4A00200F
:10209000D8CD0008D52C0008784B0020FCCD0008D6
:1020A000CD2D0008D84B002020CE0008492E000876
:1020B0002C4B002080B594B000AF07F120033022F4
:1020C0000021184609F004F807F10C0300221A60F9
:1020D0005A609A60DA601A610023BB60224B1B6C65
:1020E000214A43F0805313641F4B1B6C03F0805351
:1020F000BB60BB6800237B601C4B1B681B4A43F41E
:1021000080431360194B1B6803F480437B607B683A
:1021100002233B620123FB6210233B630023BB636A
:1021200007F12003184602F051FF0346002B01D0AF
:1021300001F030FA0F23FB6000233B6100237B6139
:102140000023BB610023FB6107F10C03002118464B
:1021500003F0B4F90346002B01D001F01BFA00BFD5
:102160005037BD4680BD00BF0038024000700040BF
:1021700080B584B000AF3B4600221A605A609A6076
:10218000DA60214B214A1A601F4B00225A601E4B15
:1021900000229A601C4B00221A611B4B00221A7607
:1021A000194B002283F82020174B0022DA62164BCD
:1021B000174A9A62144B0022DA60134B0122DA614B
:1021C000114B002283F830200F4B01225A610E4838
:1021D00001F0AEFF0346002B01D001F0DBF90B2329
:1021E0003B6001237B600023BB603B4619460648E9
:1021F00002F04CF90346002B01D001F0CBF900BFEF
:102200001037BD4680BD00BFE44A002000200140D9
:102210000100000F80B58CB000AF07F11803002259
:102220001A605A609A60DA601A615A613B4600226D
:102230001A605A609A60DA601A615A610220FFF7E8
:10224000A3FE4FF440733B6002237B600323BB601B
:102250000123FB6000233B6104237B613B4619465D
:10226000154805F0D4FB4FF40010FFF7A5FE134806
:10227000FFF779FE1148FFF753FE1048FFF740FEC5
:102280000023BB610E4BFB6100233B6200237B629A
:102290004FF48063BB624FF48043FB6207F1180385
:1022A0001946064805F01CFD00210448FFF748FECA
:1022B00000BF3037BD4680BD0004024000540040DE
:1022C000A086010080B596B000AF07F14803002258
:1022D0001A605A609A60DA6007F1400300221A60BF
:1022E0005A6007F1240300221A605A609A60DA608B
:1022F0001A615A619A613B1D20220021184608F09C
:10230000E7FE3D4B3D4A1A603B4BA0225A603A4BD8
:1023100000229A60384B4FF47A72DA60364B002212
:102320001A61354B00225A61334B80229A61324840
:1023300003F094FA0346002B01D001F02BF94FF47F
:102340008053BB6407F1480319462B4803F0ECFDAA
:102350000346002B01D001F01DF9274803F0CDFA08
:102360000346002B01D001F015F900233B64002344
:102370007B6407F1400319461F4804F0ADF903469A
:10238000002B01D001F006F960237B620023BB62C1
:102390000023FB6200237B630023BB630023FB63FA
:1023A00007F124030C221946134803F0FBFC0346F3
:1023B000002B01D001F0EEF800237B600023BB600E
:1023C0000023FB6000233B6100237B614FF400533B
:1023D000BB6100233B623B1D1946074804F0F8F936
:1023E0000346002B01D001F0D5F8034801F072FC40
:1023F00000BF5837BD4680BD304B00200000014073
:1024000080B58CB000AF07F10C03242200211846E0
:1024100008F05EFE3B1D00221A605A60214B4FF00F
:1024200080421A601F4B00225A601E4B00229A60A5
:102430001C4B4FF0FF32DA601A4B00221A61194B25
:1024400000229A610323FB6000233B6101237B612F
:102450000023BB610023FB6100233B6201237B62FD
:102460000023BB620023FB6207F10C0319460D48F1
:1024700003F064FB0346002B01D001F08BF800232E
:102480007B600023BB603B1D1946064804F024F91D
:102490000346002B01D001F07DF800BF3037BD4668
:1024A00080BD00BF904B002080B58CB000AF07F11D
:1024B0000C0324220021184608F00AFE3B1D0022CE
:1024C0001A605A60204B214A1A601F4B00225A6042
:1024D0001D4B00229A601C4B4FF6FF72DA601A4BBC
:1024E00000221A61184B00229A610323FB6000232B
:1024F0003B6101237B610023BB610023FB6100235F
:102500003B6201237B620023BB620023FB6207F175
:102510000C0319460C4803F011FB0346002B01D0B5
:1025200001F038F800237B600023BB603B1D194697
:10253000054804F0D1F80346002B01D001F02AF839
:1025400000BF3037BD4680BD9C4A002000040040DB
:1025500080B596B000AF07F1480300221A605A60B8
:102560009A60DA6007F1400300221A605A6007F1AE
:10257000240300221A605A609A60DA601A615A6174
:102580009A613B1D20220021184608F0A1FD434B13
:10259000434A1A60414B00225A60404B00229A6025
:1025A0003E4B41F61F42DA603C4B00221A613B4B26
:1025B00000225A61394B00229A61384803F04EF9E3
:1025C0000346002B01D000F0E5FF4FF48053BB64BD
:1025D00007F148031946314803F0A6FC0346002BD7
:1025E00001D000F0D7FF2D4803F087F90346002BF8
:1025F00001D000F0CFFF00233B6400237B6407F190
:1026000040031946254804F067F80346002B01D023
:1026100000F0C0FF60237B620023BB620023FB62EB
:1026200000233B6300237B630023BB630023FB6326
:1026300007F1240300221946184803F0B3FB0346B0
:10264000002B01D000F0A6FF07F124030422194655
:10265000124803F0A7FB0346002B01D000F09AFFBD
:1026600000237B600023BB600023FB6000233B61F1
:1026700000237B614FF40053BB6100233B623B1D91
:102680001946064804F0A4F80346002B01D000F0D8
:1026900081FF00BF5837BD4680BD00BF104A0020F3
:1026A0000004014080B500AF114B124A1A60104B74
:1026B0004FF4E1325A600E4B00229A600C4B00221C
:1026C000DA600B4B00221A61094B0C225A61084B4D
:1026D00000229A61064B0022DA61054804F0CAF82C
:1026E0000346002B01D000F055FF00BF80BD00BFA6
:1026F000584A00200048004080B58AB000AF07F17A
:10270000140300221A605A609A60DA601A6100238A
:102710003B61314B1B6B304A43F0100313632E4B6C
:102720001B6B03F010033B613B690023FB602A4BEA
:102730001B6B294A43F004031363274B1B6B03F005
:102740000403FB60FB680023BB60234B1B6B224A26
:1027500043F001031363204B1B6B03F00103BB60C9
:10276000BB6800237B601C4B1B6B1B4A43F00203BE
:102770001363194B1B6B03F002037B607B68002221
:102780004FF4F171154802F0DFFB00223C211448A0
:1027900002F0DAFB4FF4F1737B610123BB6100238C
:1027A000FB6100233B6207F1140319460B4802F05A
:1027B0002FFA3C237B610123BB610023FB610223D1
:1027C0003B6207F114031946054802F021FA00BFE5
:1027D0002837BD4680BD00BF0038024000100240CF
:1027E0000000024080B483B000AF786000BF0C37B7
:1027F000BD465DF8047B704784B080B584B000AFFF
:1028000007F1180C8CE80F0001224FF480614F484B
:1028100002F09AFB07F1180001F0CEFC4FF0FF31F7
:1028200007F1180001F09AFD07F1180001F021FEF0
:1028300003467B8100224FF48061444802F084FB10
:102840007B897B607B68B3F5396F07DC7B6840F67A
:10285000C412934202DD0123FB606CE07B6840F60A
:10286000C412934207DC7B6840F23572934202DD6A
:102870000223FB605FE07B6840F23572934207DC25
:102880007B6840F2B452934202DD0323FB6052E0C6
:102890007B6840F2B452934207DC7B6840F2FB4213
:1028A000934202DD0423FB6045E07B6840F2FB427B
:1028B000934206DC7B68B3F58E6F02DB0523FB6079
:1028C00039E07B68B3F58E6F06DA7B68B3F57F7FFE
:1028D00002DD0623FB602EE07B68B3F57F7F07DC1B
:1028E0007B6840F29D32934202DD0723FB6022E0C9
:1028F0007B6840F29D32934206DC7B68B3F54C7FE7
:1029000002DB0823FB6016E07B68B3F54C7F07DA37
:102910007B6840F2C622934202DD0923FB600AE095
:102920007B6840F2C622934202DC0023FB6002E097
:102930004FF0FF33FB60064AFB681360FB681846E4
:102940001037BD46BDE8804004B07047000002402B
:1029500000000020F0B597B00EAF78600023FB7741
:102960000023BB770123BB61CF4E6D4606F11004F7
:102970000FCC0FC50FCC0FC50FCC0FC594E80300CB
:1029800085E8030096E80F00FFF736FF0122C749EC
:10299000C74804F04EF8C54B1B783B733B7B303B7C
:1029A0002A2B00F2878101A252F823F0592C00084B
:1029B000592C0008592C0008592C0008592C0008E3
:1029C000592C0008592C0008592C0008592C0008D3
:1029D000592C0008B52C0008B52C0008B52C0008AF
:1029E000B52C0008B52C0008B52C0008B52C000843
:1029F000C92B0008B52C0008B52C0008E92B0008ED
:102A00006B2B0008B52C0008B52C0008B52C00086D
:102A1000B52C0008B52C0008B52C0008B52C000812
:102A2000B52C0008B52C0008232C0008B52C000894
:102A30000D2B0008B52C0008B32A0008B52C00089F
:102A40003F2C0008B52C0008592A0008B52C0008B6
:102A5000B52C0008092C0008FB7F002B14D0BB7F8D
:102A6000002B08D07A6913469B0013445B001A467A
:102A70003B6913447B617969012000F0C5FA034684
:102A8000FB720023FB7705E00121012000F0BCFA76
:102A90000346FB720023BB770123BB615223FB7209
:102AA00007F10B014FF6FF730122814803F02FFF5E
:102AB00001E1FB7F002B14D0BB7F002B08D07A698B
:102AC00013469B0013445B001A463B6913447B6129
:102AD0007969002000F098FA0346FB720023FB7727
:102AE00005E00121002000F08FFA0346FB7200236D
:102AF000BB770123BB615223FB7207F10B014FF639
:102B0000FF7301226A4803F002FFD4E0FB7F002B31
:102B100015D0BB7F002B08D07A6913469B00134465
:102B20005B001A463B6913447B617A6901210120ED
:102B300000F018FB0346FB720023FB7706E0092236
:102B40000121012000F00EFB0346FB720023BB773E
:102B50000123BB615223FB7207F10B014FF6FF7398
:102B60000122534803F0D3FEA5E0FB7F002B15D0D4
:102B7000BB7F002B08D07A6913469B0013445B008F
:102B80001A463B6913447B617A690021012000F0F9
:102B9000E9FA0346FB720023FB7706E009220021D5
:102BA000012000F0DFFA0346FB720023BB7701230C
:102BB000BB615223FB7207F10B014FF6FF73012239
:102BC0003B4803F0A4FE76E009220121002000F03A
:102BD000C9FA0346FB7207F10B014FF6FF7301229E
:102BE000334803F094FE66E009220021002000F043
:102BF000B9FA0346FB7207F10B014FF6FF7301228E
:102C00002B4803F084FE56E000F088F90346FB727F
:102C100007F10B014FF6FF730122254803F077FE01
:102C200049E0012000F02CFC0346FB7207F10B0188
:102C30004FF6FF7301221E4803F069FE3BE000F0EF
:102C400073FB0346FB7207F10B014FF6FF73012282
:102C5000174803F05CFE2EE03123FB7207F10B01F5
:102C60004FF6FF730122124803F051FE0123FB7758
:102C7000BB69022B11D13223FB7207F10B014FF616
:102C8000FF7301220A4803F042FE3B7B303B3B616D
:102C90000123BB770123BB610DE03B7B303B7B61B4
:102CA000BB690133BB6106E0E44A00207C4B002095
:102CB000584A002000BF054B13221946044808F06B
:102CC000EDF9642005F0AEFA4EE600BF7D4B002022
:102CD0007C4B002080B58CB000AF78603C21384838
:102CE00002F0D2FF364B1B685B6AFB6201F0F0F921
:102CF000786201F0EDF902467B6AD31AB3F57A7F68
:102D000059D92F4B1B685B6A3B622D4B1B681B68B4
:102D100003F01003102B10D13A6AFB6A9A4204DACE
:102D2000FA6A3B6AD31ABB6217E03B6AC3F57F437A
:102D3000FF33FA6A1344BB620FE03A6AFB6A9A42B5
:102D400004DD3A6AFB6AD31ABB6206E0FB6AC3F58C
:102D50007F43FF333A6A1344BB6207F10803BA6A40
:102D60001849184608F04AFA07F108031A461421D0
:102D70000A2000F089FD124B1B681B6803F010034A
:102D8000102B0CBF01230023DBB2FB83FA8B07F16E
:102D900008030D49184608F031FA07F108031A46EE
:102DA0001E210A2000F070FD054B1B685B6AFB6268
:102DB00001F08EF97862012005F034FA99E700BF3E
:102DC000904B002054CD000860CD000890B589B02C
:102DD00000AF7860174B07F10C040FCB07C42380BA
:102DE00007F11A0300221A609A8007F10C03124AB5
:102DF0001249184608F002FA07F10C031A460A2194
:102E00000A2000F041FD0E4B1A6807F10C030D4932
:102E1000184608F0F3F907F10C031A4628210A2096
:102E200000F032FD00F0BCFB4FF47A7005F0FAF9C7
:102E3000DBE700BF78CD00087C4B00206CCD00089C
:102E40000000002070CD000880B588B000AF786029
:102E50004FF47A7005F0B0F8294808F0C7F929490D
:102E60002948FEF71BFB2848FEF700FB03461946DE
:102E7000264808F035F92448FEF7DBFF2248FEF724
:102E8000BEFF03461946214808F02AF91E48FEF7FE
:102E9000C3FF034619461D4808F022F91A48FEF7F9
:102EA000E3FB1948FEF77CFC5223FB7207F10B0190
:102EB0004FF6FF730122164803F029FD642005F048
:102EC000B1F91148FEF708FE07F1180207F10C03EB
:102ED00019460D48FEF7BEFF0E4B1B684FF0FF3141
:102EE000184605F08DFE084B1B6C0B4A1360094B0E
:102EF000186800230022002105F008FCDEE700BF6F
:102F00008CCD000800540040C049002094CD00083A
:102F1000584A00209C000020A0000020F0B591B08D
:102F20000EAF4FF49663FB800021334802F03EFD64
:102F30000421314802F03AFD0C21304802F036FD00
:102F40002F4E6D4606F110040FCC0FC50FCC0FC5E8
:102F50000FCC0FC594E8030085E8030096E80F0046
:102F6000FFF74AFC3860254B1B6894221A64012243
:102F70000421244801F0E8FF00220821214801F043
:102F8000E3FF012220211F4801F0DEFF0022102173
:102F90001C4801F0D9FF0A2005F044F9164B1B68C4
:102FA000FA885A63144B1B68FA889A63144E6D466C
:102FB00006F110040FCC0FC50FCC0FC50FCC0FC5F9
:102FC00094E8030085E8030096E80F00FFF714FC7F
:102FD000034640F21352934200DDC4E700BF064BA4
:102FE0001B6800225A63044B1B6800229A63522319
:102FF00018460C37BD46F0BD104A0020304B00206B
:10300000E44A00200000024080B586B000AF0346CD
:103010003960FB714FF49663FB8200214D4802F04A
:10302000C5FC04214B4802F0C1FC0C214A4802F0C7
:10303000BDFC3C21494802F027FE484B1B685B6AF7
:10304000BB82454B1B6894221A64FB79002B14D079
:1030500001220421424801F077FF00220821404864
:1030600001F072FF012220213D4801F06DFF002296
:1030700010213B4801F068FF13E001220821384885
:1030800001F062FF00220421354801F05DFF0122BA
:103090001021334801F058FF00222021304801F070
:1030A00053FF0A2005F0BEF82A4B1B68FA8A5A63C0
:1030B000284B1B68FA8A9A633B684FF4B97202FB8B
:1030C00003F3303B3B61254B1B685B6AFB81234B61
:1030D0001B681B6803F01003102B10D1B7F91420E4
:1030E000B7F90E30D31A3A699A4219DD194B1B68A9
:1030F000FA8A5A63174B1B68FA8A9A63A1E7B7F9F1
:103100000E20B7F91430D31A3A699A420ADD114BEE
:103110001B68FA8A5A630F4B1B68FA8A9A6390E716
:1031200000BF00E000BF0B4B1B6800225A63094B35
:103130001B6800229A63094B1B686FF001021A6139
:103140004FF0804300225A62522318461837BD467A
:1031500080BD00BF104A0020304B00209C4A002058
:103160000000024080B58CB000AF03463A60FB71AE
:103170000B46BB714FF49663FB844FF00003FB6278
:10318000002387F82530614B1B686FF001021A613C
:103190004FF0804300225A6200215D4802F006FC95
:1031A00004215B4802F002FC0C215A4802F0FEFBAD
:1031B0003C21564802F068FDBB79002B0ED0554BE0
:1031C0001B6864221A64FB79002B03D040F2217340
:1031D000BB6211E040F22B73BB620DE04D4B1B68EC
:1031E000E6221A64FB79002B03D040F22173BB6204
:1031F00002E040F22B73BB62474B1B684FF0FF317C
:10320000184605F0FDFCD7ED0B7AF5EE407AF1EEAD
:1032100010FA02D1414B1B68FB623F4B1868002338
:103220000022002105F072FAFB79002B14D0012254
:1032300004213B4801F088FE00220821384801F0B3
:1032400083FE01222021364801F07EFE002210215B
:10325000334801F079FE13E001220821304801F0E3
:1032600073FE002204212E4801F06EFE012210217F
:103270002B4801F069FE00222021294801F064FE5C
:103280004FF4FA7004F0CEFF214B1B68FA8C5A639E
:103290001F4B1B68FA8C9A630A2004F0C3FF1B4B78
:1032A0001B685B6A7B84194B1B681B6803F0100367
:1032B000102B06D1B7F92220BB6A5B429A429BDCF5
:1032C00006E0B7F92230BA6A9A4200DD94E700BFFF
:1032D0000F4B1B6800225A630D4B1B6800229A6338
:1032E0000A2004F09FFF0B4B1B6894221A64074BC3
:1032F0001B686FF001021A614FF0804300225A628E
:10330000522318463037BD4680BD00BF9C4A00207E
:10331000104A0020304B00209C000020A00000201C
:10332000000002400000000080B58AB000AF4FF4FA
:1033300096637B844FF000037B624FF00003FB61D8
:103340000023FB760021484802F030FB0421464868
:1033500002F02CFB0C21454802F028FB3C2144489C
:1033600002F092FC434B1B684FF0FF31184605F00A
:1033700047FCD7ED097AF5EE407AF1EE10FA02D16A
:103380003D4B1B687B623B4B1868002300220021E9
:1033900005F0BCF9354B1B6864221A640122042134
:1033A000364801F0D1FD00220821344801F0CCFD5F
:1033B00001222021314801F0C7FD002210212F48B1
:1033C00001F0C2FD284B1B687A8C5A63264B1B68A0
:1033D0007A8C9A630A2004F025FF264B1B684FF075
:1033E000FF31184605F00CFC234BD3ED007A97ED26
:1033F000097A77EE677AC7ED077A1E4B18680023C3
:103400000022002105F082F9F869FDF795F814A370
:10341000D3E90023FDF76EFB0346002B04D0134BCA
:103420001B6894221A6400E09CE70F4B1B68002283
:103430005A630D4B1B6800229A630A2004F0F2FEC7
:103440000B4B1B686FF001021A614FF080430022A2
:103450005A62522318462837BD4680BDAFF300801C
:103460003333333333330B40104A0020304B0020CA
:10347000904B00209C000020A00000200000024093
:1034800080B584B000AF0346FB714FF49663FB81B7
:1034900000213C4802F08AFA04213A4802F086FAF8
:1034A0000C21394802F082FA3C21384802F0ECFB4A
:1034B000354B1B6894221A64FB79002B14D001222F
:1034C0000421334801F040FD00220821304801F07A
:1034D0003BFD012210212E4801F036FD0022202163
:1034E0002B4801F031FD13E001220821284801F0AA
:1034F0002BFD00220421264801F026FD0122202177
:10350000234801F021FD00221021214801F01CFD7B
:103510000A2004F087FE1B4B1B68FA895A63194B7B
:103520001B68FA899A63194B1B685B6ABB81174B4E
:103530001B681B6803F01003102B05D1B7F90C3082
:1035400013F5A17FB4DC06E0B7F90C30B3F5A17F29
:1035500000DAADE700BF0B4B1B6800225A63094B32
:103560001B6800229A63094B1B686FF001021A6105
:103570004FF0804300225A62522318461037BD464E
:1035800080BD00BF104A0020304B0020904B00202F
:103590000000024080B400AF72B600BFFEE700003A
:1035A00080B582B000AF0023FB7126E0FB79503B71
:1035B000DBB20021184600F02BF80021002000F0BB
:1035C00027F80021102000F023F80023BB710DE044
:1035D000BA79FB790D49D2000A4413441B780121C2
:1035E000184600F015F8BB790133BB7197F9063026
:1035F000002BEDDAFB790133FB71FB79072BD5D971
:1036000000BF00BF0837BD4680BD00BFDC4B0020B7
:1036100080B584B000AF03460A46FB711346BB7108
:10362000BB79002B06D001224FF480711C4801F0B9
:103630008BFC05E000224FF48071194801F084FCF6
:103640000023FB731EE000222021154801F07CFCC2
:1036500097F90730002B05DA01224021104801F0CC
:1036600073FC04E0002240210D4801F06DFC0122B2
:1036700020210B4801F068FCFB795B00FB71FB7BB0
:103680000133FB73FB7B072BDDD901224FF48071E3
:10369000034801F059FC00BF1037BD4680BD00BF94
:1036A0000010024080B582B000AF0023FB7114E02F
:1036B0000023BB710AE0BA79FB790C49D2000A44B5
:1036C000134400221A70BB790133BB7197F906309D
:1036D000002BF0DAFB790133FB71FB79072BE7D97B
:1036E000FFF75EFF00BF0837BD4680BDDC4B002002
:1036F00080B485B000AF0346FB710B46BB71134627
:103700007B710023FB7397F90730002B41DBBB79FA
:103710003F2B3ED8BB79DB08DBB2C3F10703BB7399
:10372000BB7903F007037B737B7BC3F107030122A3
:1037300002FA03F3FB737B79002B12D0FA79BB7B7F
:103740001749D2000A4413441878FA79BB7BF97BF5
:103750000143C8B21249D2000A44134402461A7007
:1037600018E0FA79BB7B0E49D2000A4413441B7857
:103770005AB297F90F30DB435BB2134059B2FA7972
:10378000BB7BC8B20649D2000A44134402461A70F1
:1037900000E000BF1437BD465DF8047B704700BFF2
:1037A000DC4B002090B585B000AF044608461146BA
:1037B0001A462346FB710346BB710B467B711346C9
:1037C0003B71BB793B737B79203B7B710023BB73DF
:1037D0004DE03B790C2B0BD17A79B97B2848134605
:1037E0005B0013449B0003440B441B78FB7307E00E
:1037F0007A79BB7B234912010A4413441B78FB737B
:1038000000237B732DE097F90F30002B07DA97F830
:103810002020B979FB791846FFF76AFF0CE097F88A
:103820002030002B0CBF01230023DBB21A46B979EC
:10383000FB791846FFF75CFFFB7B5B00FB73BB79F2
:103840000133BB71BA793B7BD21A3B799A4205D1DD
:103850003B7BBB71FB790133FB7105E07B7B013363
:103860007B737B7B072BCED9BB7B0133BB73BA7BCE
:103870003B799A42ADD300BF00BF1437BD4690BD1F
:1038800044CE0008B8D2000880B584B002AF034629
:103890003A60FB710B46BB711FE0FB797A2B04D9B0
:1038A0000023FB71BB791033BB71BB793A2B05D96F
:1038B0000023FB71FB79BB71FFF7F4FE3B681A78BC
:1038C000B979F879012300930C23FFF76BFFFB799B
:1038D0000833FB713B6801333B603B681B78002B6E
:1038E000DBD100BF00BF0837BD4680BD80B500AF4B
:1038F00001F044FB414B1B6F404A23F00103136767
:103900003E4B1B6F3D4A23F00403136701F04AFB53
:10391000002280213A4801F017FB642000F0E4FB0C
:1039200001228021364801F00FFB0021AE20FFF775
:103930006FFE0021D520FFF76BFE00215020FFF71E
:1039400067FE0021A820FFF763FE00213F20FFF75C
:103950005FFE0021D320FFF75BFE00210020FFF770
:1039600057FE00214020FFF753FE00218D20FFF776
:103970004FFE00211420FFF74BFE00212020FFF70F
:1039800047FE00210220FFF743FE0021A120FFF7A0
:103990003FFE0021C020FFF73BFE0021DA20FFF7A9
:1039A00037FE00211220FFF733FE00218120FFF7B0
:1039B0002FFE0021EF20FFF72BFE0021D920FFF77B
:1039C00027FE0021F120FFF723FE0021DB20FFF777
:1039D0001FFE00213020FFF71BFE0021A420FFF76F
:1039E00017FE0021A620FFF713FE0021AF20FFF7EE
:1039F0000FFEFFF757FE00BF80BD00BF003802403A
:103A00000010024080B582B000AF00237B60124BF3
:103A10005B6C114A43F4804353640F4B5B6C03F4BB
:103A200080437B607B6800233B600B4B1B6C0A4A26
:103A300043F080531364084B1B6C03F080533B60CE
:103A40003B6800220F216FF0010001F018F800BF61
:103A50000837BD4680BD00BF0038024080B58AB03F
:103A600000AF786007F1140300221A605A609A6070
:103A7000DA601A617B681B68174A934227D10023DA
:103A80003B61164B5B6C154A43F480735364134BD4
:103A90005B6C03F480733B613B690023FB600F4B5D
:103AA0001B6B0E4A43F0040313630C4B1B6B03F0B8
:103AB0000403FB60FB6802237B610323BB610023DB
:103AC000FB6107F114031946054801F0A1F800BF96
:103AD0002837BD4680BD00BF0020014000380240AD
:103AE0000008024080B58AB000AF786007F1140387
:103AF00000221A605A609A60DA601A617B681B685B
:103B0000234A93420ED100233B61224B5B6C214A36
:103B100043F0010353641F4B5B6C03F001033B61F3
:103B20003B6930E07B681B681B4A93422BD1002322
:103B3000FB60184B5B6C174A43F002035364154B50
:103B40005B6C03F00203FB60FB680023BB60114B5E
:103B50001B6B104A43F0040313630E4B1B6B03F003
:103B60000403BB60BB68C0237B610223BB610023ED
:103B7000FB6100233B6203237B6207F114031946B8
:103B8000064801F045F800BF2837BD4680BD00BF9C
:103B900000000140003802400004014000080240DB
:103BA00080B58CB000AF786007F11C0300221A606A
:103BB0005A609A60DA601A617B681B68B3F1804FC3
:103BC0004BD10023BB613F4B1B6C3E4A43F00103CA
:103BD00013643C4B1B6C03F00103BB61BB69002306
:103BE0007B61384B1B6B374A43F001031363354B42
:103BF0001B6B03F001037B617B6900233B61314B4D
:103C00001B6B304A43F0020313632E4B1B6B03F014
:103C100002033B613B694FF40043FB6102233B62BB
:103C200000237B620023BB620123FB6207F11C03BC
:103C30001946254800F0ECFF0823FB6102233B6294
:103C400000237B620023BB620123FB6207F11C039C
:103C500019461E4800F0DCFF30E07B681B681C4AF8
:103C600093422BD10023FB60164B1B6C154A43F08B
:103C700002031364134B1B6C03F00203FB60FB682D
:103C80000023BB600F4B1B6B0E4A43F00103136311
:103C90000C4B1B6B03F00103BB60BB68C023FB61D3
:103CA00002233B6200237B620023BB620223FB6290
:103CB00007F11C031946044800F0AAFF00BF303783
:103CC000BD4680BD003802400000024000040240B2
:103CD0000004004080B588B000AF786007F10C03A5
:103CE00000221A605A609A60DA601A617B681B6869
:103CF000124A93421ED10023BB60114B1B6B104A2A
:103D000043F0100313630E4B1B6B03F01003BB60F7
:103D1000BB684FF48043FB6002233B6100237B615F
:103D20000023BB610123FB6107F10C031946054821
:103D300000F06EFF00BF2037BD4680BD000001408F
:103D4000003802400010024080B58AB000AF7860B1
:103D500007F1140300221A605A609A60DA601A614F
:103D60007B681B681D4A934234D100233B611C4B86
:103D70001B6C1B4A43F480231364194B1B6C03F424
:103D800080233B613B690023FB60154B1B6B144A8E
:103D900043F004031363124B1B6B03F00403FB603B
:103DA000FB684FF440637B610223BB610023FB612E
:103DB00003233B6207237B6207F11403194609487A
:103DC00000F026FF00220521272000F058FE2720C2
:103DD00000F071FE00BF2837BD4680BD004800409E
:103DE000003802400008024080B400AFFEE780B413
:103DF00000AFFEE780B400AFFEE780B400AFFEE79F
:103E000080B400AFFEE780B400AF00BFBD465DF8F0
:103E1000047B704780B500AF00F046F905F0A0FFC5
:103E20000346012B01D006F087FE00BF80BD0000D5
:103E300080B500AF024802F02DFE00BF80BD00BF7C
:103E4000584A002080B586B000AFF860B9607A604B
:103E500000237B610AE0AFF300800146BB685A1C77
:103E6000BA60CAB21A707B6901337B617A697B6878
:103E70009A42F0DB7B6818461837BD4680BD80B596
:103E800086B000AFF860B9607A6000237B6109E01A
:103E9000BB685A1CBA601B781846AFF300807B6978
:103EA00001337B617A697B689A42F1DB7B68184653
:103EB0001837BD4680BD80B483B000AF78604FF046
:103EC000FF3318460C37BD465DF8047B704780B45D
:103ED00083B000AF786039603B684FF400525A609D
:103EE000002318460C37BD465DF8047B704780B44C
:103EF00083B000AF7860012318460C37BD465DF8EB
:103F0000047B704780B485B000AFF860B9607A6018
:103F1000002318461437BD465DF8047B7047000047
:103F200080B586B000AF7860144A154BD31A7B6118
:103F30007B693B61134B1B68002B02D1114B124A6A
:103F40001A60104B1A687B6813443A699A4207D288
:103F500007F06CF803460C221A604FF0FF3309E0BB
:103F6000084B1B68FB60074B1A687B681344054AC3
:103F70001360FB6818461837BD4680BD000002205C
:103F800000040000A40000203050002080B400AFE6
:103F9000064BD3F88830054A43F47003C2F88830E2
:103FA00000BFBD465DF8047B704700BF00ED00E038
:103FB000DFF834D00D480E490E4A002302E0D458F1
:103FC000C4500433C4188C42F9D30B4A0B4C002361
:103FD00001E013600432A242FBD3FFF7D7FF07F0E2
:103FE0002BF8FEF701F870470000022000000020C7
:103FF0007C00002068D900087C00002030500020A0
:10400000FEE7000080B500AF0E4B1B680D4A43F47D
:10401000007313600B4B1B680A4A43F48063136000
:10402000084B1B68074A43F480731360032000F0B9
:104030001BFD0F2000F008F8FFF7E4FC00231846F2
:1040400080BD00BF003C024080B582B000AF786008
:10405000124B1A68124B1B7819464FF47A73B3FB54
:10406000F1F3B2FBF3F3184600F033FD0346002BE7
:1040700001D001230EE07B680F2B0AD8002279685B
:104080004FF0FF3000F0FBFC064A7B681360002312
:1040900000E0012318460837BD4680BD040000201B
:1040A0000C0000200800002080B400AF064B1B78F5
:1040B0001A46064B1B681344044A136000BFBD46F2
:1040C0005DF8047B704700BF0C000020DC4F00202F
:1040D00080B400AF034B1B681846BD465DF8047BF7
:1040E000704700BFDC4F002080B584B000AF78601F
:1040F000FFF7EEFFB8607B68FB60FB68B3F1FF3F42
:1041000005D00A4B1B781A46FB681344FB6000BFBE
:10411000FFF7DEFF0246BB68D31AFA689A42F7D867
:1041200000BF00BF1037BD4680BD00BF0C0000209F
:1041300080B584B000AF78600023FB737B68002BF0
:1041400001D1012333E07B681B6C002B09D1786817
:10415000FFF784FC7B6800225A647B68002283F8A6
:104160003C207B681B6C03F01003002B18D17B688C
:104170001B6C23F4885323F0020343F002027B6894
:104180001A64786800F0A4FA7B6800225A647B689D
:104190001B6C23F0030343F001027B681A6401E007
:1041A0000123FB737B68002283F83C20FB7B1846CD
:1041B0001037BD4680BD000080B485B000AF786088
:1041C0000023BB607B6893F83C30012B01D10223B4
:1041D000B2E07B68012283F83C207B681B689B6807
:1041E00003F00103012B18D07B681B689A687B6879
:1041F0001B6842F001029A60524B1B68524AA2FBB4
:1042000003239A0C13465B001344BB6002E0BB68B7
:10421000013BBB60BB68002BF9D17B681B689B68C6
:1042200003F00103012B7AD17B681B6C23F4E0635C
:1042300023F0010343F480727B681A647B681B6877
:104240005B6803F48063002B07D07B681B6C23F44E
:10425000405343F480527B681A647B681B6C03F400
:104260008053B3F5805F06D17B685B6C23F0060258
:104270007B685A6402E07B6800225A647B680022F3
:1042800083F83C20314BFB607B681B686FF0220297
:104290001A60FB685B6803F01F03002B2AD17B6860
:1042A0001B682B4A934215D07B681B68294A9342AE
:1042B00005D1264B5B6803F01F03002B0AD07B68F7
:1042C0001B68254A934236D1204B5B6803F01003EC
:1042D000002B30D17B681B689B6803F04053002B98
:1042E00029D17B681B689A687B681B6842F0804212
:1042F0009A6020E07B681B68154A93421BD17B685B
:104300001B689B6803F04053002B14D17B681B682B
:104310009A687B681B6842F080429A600BE07B6879
:104320001B6C43F010027B681A647B685B6C43F083
:1043300001027B685A64002318461437BD465DF8B5
:10434000047B70470400002083DE1B4300230140F0
:1043500000200140002101400022014080B584B0CE
:1043600000AF786039600023FB607B681B689B6846
:1043700003F48063B3F5806F13D17B681B689B687F
:1043800003F48073B3F5807F0BD17B681B6C43F023
:1043900020027B681A647B68002283F83C2001239A
:1043A00063E0FFF795FEF86021E03B68B3F1FF3F63
:1043B0001DD03B68002B07D0FFF78AFE0246FB6842
:1043C000D31A3A689A4212D27B681B681B6803F0C2
:1043D0000203022B0BD07B681B6C43F004027B684A
:1043E0001A647B68002283F83C2003233DE07B684D
:1043F0001B681B6803F00203022BD6D17B681B6885
:104400006FF012021A607B681B6C43F400727B68C9
:104410001A647B681B689B6803F04053002B23D110
:104420007B681B7E002B1FD17B681B68DB6A03F453
:104430007003002B06D07B681B689B6803F48063C5
:10444000002B11D17B681B6C23F480727B681A648B
:104450007B681B6C03F48053002B05D17B681B6CBD
:1044600043F001027B681A64002318461037BD46EA
:1044700080BD80B483B000AF78607B681B68DB6C64
:1044800018460C37BD465DF8047B704780B485B094
:1044900000AF786039600023BB607B6893F83C30E4
:1044A000012B01D1022305E17B68012283F83C2026
:1044B0003B681B68092B25D97B681B68D9683B685A
:1044C0001B689BB21A4613465B0013441E3B07222F
:1044D00002FA03F3DA437B681B680A40DA607B6800
:1044E0001B68D9683B689A683B681B689BB2184692
:1044F00003465B0003441E3B9A407B681B680A43EB
:10450000DA6022E07B681B6819693B681B689BB214
:104510001A4613465B001344072202FA03F3DA43F8
:104520007B681B680A401A617B681B6819693B68D5
:104530009A683B681B689BB2184603465B000344BD
:104540009A407B681B680A431A613B685B68062BCC
:1045500024D87B681B68596B3B685A6813469B00DC
:104560001344053B1F2202FA03F3DA437B681B68FE
:104570000A405A637B681B68596B3B681B689BB297
:1045800018463B685A6813469B001344053B00FAE3
:1045900003F27B681B680A435A634CE03B685B6824
:1045A0000C2B24D87B681B68196B3B685A68134630
:1045B0009B001344233B1F2202FA03F3DA437B6878
:1045C0001B680A401A637B681B68196B3B681B6891
:1045D0009BB218463B685A6813469B001344233B22
:1045E00000FA03F27B681B680A431A6323E07B68C6
:1045F0001B68D96A3B685A6813469B001344413BC9
:104600001F2202FA03F3DA437B681B680A40DA626E
:104610007B681B68D96A3B681B689BB218463B687D
:104620005A6813469B001344413B00FA03F27B682F
:104630001B680A43DA62224BFB607B681B68214AD5
:10464000934209D13B681B68122B05D1FB685B685C
:1046500043F48002FB685A607B681B68194A9342E6
:1046600023D13B681B68102B03D03B681B68112BC0
:104670001BD1FB685B6843F40002FB685A603B682F
:104680001B68102B11D1104B1B68104AA2FB03238F
:104690009A0C13469B0013445B00BB6002E0BB68AE
:1046A000013BBB60BB68002BF9D17B68002283F81B
:1046B0003C20002318461437BD465DF8047B704744
:1046C00000230140002001400400002083DE1B4342
:1046D00080B485B000AF7860794BFB60FB685B68A5
:1046E00023F44032FB685A60FB685A687B685B6859
:1046F0001A43FB685A607B681B685A687B681B68B2
:1047000022F480725A607B681B6859687B681B6959
:104710001A027B681B680A435A607B681B685A68E8
:104720007B681B6822F040725A607B681B6859687E
:104730007B689A687B681B680A435A607B681B68C1
:104740009A687B681B6822F400629A607B681B6829
:1047500099687B68DA687B681B680A439A607B68A3
:104760009B6A584A934222D07B681B689A687B6890
:104770001B6822F070629A607B681B6899687B688E
:104780009A6A7B681B680A439A607B681B689A6810
:104790007B681B6822F040529A607B681B689968AE
:1047A0007B68DA6A7B681B680A439A600FE07B6863
:1047B0001B689A687B681B6822F070629A607B684D
:1047C0001B689A687B681B6822F040529A607B687D
:1047D0001B689A687B681B6822F002029A607B68FB
:1047E0001B6899687B681B7E5A007B681B680A43BC
:1047F0009A607B6893F82030002B1BD07B681B6885
:104800005A687B681B6842F400625A607B681B68C8
:104810005A687B681B6822F460425A607B681B6898
:1048200059687B685B6A013B5A037B681B680A43D3
:104830005A6007E07B681B685A687B681B6822F433
:1048400000625A607B681B68DA6A7B681B6822F426
:104850007002DA627B681B68D96A7B68DB69013B9E
:104860001A057B681B680A43DA627B681B689A68D2
:104870007B681B6822F400729A607B681B689968E9
:104880007B6893F830305A027B681B680A439A6051
:104890007B681B689A687B681B6822F480629A6058
:1048A0007B681B6899687B685B699A027B681B68F8
:1048B0000A439A6000BF1437BD465DF8047B704719
:1048C000002301400100000F80B485B000AF786084
:1048D0007B6803F00703FB600C4BDB68BB60BA68C6
:1048E0004FF6FF031340BB60FB681A02BB6813431B
:1048F00043F0BF6343F40033BB60044ABB68D3603A
:1049000000BF1437BD465DF8047B704700ED00E042
:1049100080B400AF044BDB681B0A03F007031846A2
:10492000BD465DF8047B704700ED00E080B483B0C5
:1049300000AF0346FB7197F90730002B0BDBFB79C7
:1049400003F01F02074997F907305B09012000FABD
:1049500002F241F8232000BF0C37BD465DF8047B0E
:10496000704700BF00E100E080B483B000AF0346B1
:104970003960FB7197F90730002B0ADB3B68DAB22C
:104980000C4997F907301201D2B20B4483F8002387
:104990000AE03B68DAB20849FB7903F00F03043BF5
:1049A0001201D2B20B441A7600BF0C37BD465DF837
:1049B000047B704700E100E000ED00E080B489B0C6
:1049C00000AFF860B9607A60FB6803F00703FB6131
:1049D000FB69C3F10703042B28BF0423BB61FB69F8
:1049E0000433062B02D9FB69033B00E000237B6103
:1049F0004FF0FF32BB6902FA03F3DA43BB681A4097
:104A00007B699A404FF0FF317B6901FA03F3D94388
:104A10007B680B40134318462437BD465DF8047B82
:104A20007047000080B582B000AF78607B68013BC2
:104A3000B3F1807F01D301230FE00A4A7B68013B79
:104A400053600F214FF0FF30FFF78EFF054B002220
:104A50009A60044B07221A60002318460837BD46A7
:104A600080BD00BF10E000E080B582B000AF78608C
:104A70007868FFF729FF00BF0837BD4680BD80B5C5
:104A800086B000AF0346B9607A60FB7300237B6198
:104A9000FFF73EFF78617A68B9687869FFF78EFFA3
:104AA000024697F90F3011461846FFF75DFF00BF29
:104AB0001837BD4680BD80B582B000AF0346FB719C
:104AC00097F907301846FFF731FF00BF0837BD469A
:104AD00080BD80B582B000AF78607868FFF7A2FF34
:104AE000034618460837BD4680BD80B584B000AF88
:104AF00078607B689B6DFB60FFF7EAFAB8607B68C3
:104B000093F83530DBB2022B08D07B6880225A65DF
:104B10007B68002283F83420012352E07B681B6805
:104B20001A687B681B6822F016021A607B681B6893
:104B30005A697B681B6822F080025A617B681B6C93
:104B4000002B03D17B689B6C002B07D07B681B6814
:104B50001A687B681B6822F008021A607B681B6871
:104B60001A687B681B6822F001021A6013E0FFF7E5
:104B7000AFFA0246BB68D31A052B0CD97B682022FA
:104B80005A657B68032283F835207B68002283F80E
:104B90003420032315E07B681B681B6803F00103C6
:104BA000002BE4D17B68DB6D3F229A40FB689A6062
:104BB0007B68012283F835207B68002283F834204B
:104BC000002318461037BD4680BD80B483B000AFC7
:104BD00078607B6893F83530DBB2022B04D07B68B9
:104BE00080225A6501230CE07B68052283F835207A
:104BF0007B681B681A687B681B6822F001021A60D8
:104C0000002318460C37BD465DF8047B7047000052
:104C100080B489B000AF7860396000237B610023E5
:104C20003B610023BB610023FB616BE10122FB6957
:104C300002FA03F37B613B681B687A6913403B61AE
:104C40003A697B699A4240F05A813B685B6803F09D
:104C50000303012B05D03B685B6803F00303022BC1
:104C600030D17B689B68BB61FB695B00032202FA61
:104C700003F3DB43BA691340BB613B68DA68FB6945
:104C80005B0002FA03F3BA691343BB617B68BA693C
:104C90009A607B685B68BB610122FB6902FA03F3DF
:104CA000DB43BA691340BB613B685B681B0903F0D7
:104CB0000102FB6902FA03F3BA691343BB617B6823
:104CC000BA695A603B685B6803F00303032B17D093
:104CD0007B68DB68BB61FB695B00032202FA03F3BC
:104CE000DB43BA691340BB613B689A68FB695B00B0
:104CF00002FA03F3BA691343BB617B68BA69DA60ED
:104D00003B685B6803F00303022B23D1FB69DA08DD
:104D10007B68083253F82230BB61FB6903F007035C
:104D20009B000F2202FA03F3DB43BA691340BB6115
:104D30003B681A69FB6903F007039B0002FA03F35F
:104D4000BA691343BB61FB69DA087B680832B96949
:104D500043F822107B681B68BB61FB695B00032280
:104D600002FA03F3DB43BA691340BB613B685B683B
:104D700003F00302FB695B0002FA03F3BA69134311
:104D8000BB617B68BA691A603B685B6803F44033B7
:104D9000002B00F0B4800023FB60604B5B6C5F4A2B
:104DA00043F4804353645D4B5B6C03F48043FB60CE
:104DB000FB685B4AFB699B08023352F82330BB61F6
:104DC000FB6903F003039B000F2202FA03F3DB43AA
:104DD000BA691340BB617B68524A93422BD07B680F
:104DE000514A934225D07B68504A93421FD07B683A
:104DF0004F4A934219D07B684E4A934213D07B6846
:104E00004D4A93420DD07B684C4A934207D07B6851
:104E10004B4A934201D107230EE008230CE00623FE
:104E20000AE0052308E0042306E0032304E002234C
:104E300002E0012300E00023FA6902F0030292007D
:104E40009340BA691343BB613549FB699B08023340
:104E5000BA6941F823203B4B1B68BB613B69DB43CC
:104E6000BA691340BB613B685B6803F48033002B75
:104E700003D0BA693B691343BB61324ABB69136013
:104E8000304B5B68BB613B69DB43BA691340BB6174
:104E90003B685B6803F40033002B03D0BA693B69BD
:104EA0001343BB61274ABB695360264B9B68BB61B8
:104EB0003B69DB43BA691340BB613B685B6803F441
:104EC0008013002B03D0BA693B691343BB611D4AB1
:104ED000BB6993601B4BDB68BB613B69DB43BA6911
:104EE0001340BB613B685B6803F40013002B03D0E5
:104EF000BA693B691343BB61124ABB69D360FB6962
:104F00000133FB61FB690F2B7FF690AE00BF00BF42
:104F10002437BD465DF8047B704700BF003802406F
:104F20000038014000000240000402400008024036
:104F3000000C024000100240001402400018024021
:104F4000001C0240003C014080B483B000AF786098
:104F50000B467B8013467B707B78002B03D07A88CE
:104F60007B689A6103E07B881A047B689A6100BFC2
:104F70000C37BD465DF8047B7047000080B483B0F9
:104F800000AF064B01221A60054B1B687B607B68F3
:104F900000BF0C37BD465DF8047B704720000E4211
:104FA0000070004080B483B000AF064B00221A604E
:104FB000054B1B687B607B6800BF0C37BD465DF806
:104FC000047B704720000E420070004080B586B020
:104FD00000AF78607B68002B01D1012364E27B681D
:104FE0001B6803F00103002B75D0A34B9B6803F0F3
:104FF0000C03042B0CD0A04B9B6803F00C03082B74
:1050000012D19D4B5B6803F48003B3F5800F0BD185
:10501000994B1B6803F40033002B5BD07B685B6803
:10502000002B57D101233FE27B685B68B3F5803FDB
:1050300006D1914B1B68904A43F4803313601DE006
:105040007B685B68B3F5A02F0CD18B4B1B688A4A39
:1050500043F480231360884B1B68874A43F48033F2
:1050600013600BE0844B1B68834A23F48033136086
:10507000814B1B68804A23F4802313607B685B6844
:10508000002B13D0FFF724F8386108E0FFF720F871
:1050900002463B69D31A642B01D9032304E2764B01
:1050A0001B6803F40033002BF0D014E0FFF710F876
:1050B000386108E0FFF70CF802463B69D31A642B0D
:1050C00001D90323F0E16C4B1B6803F40033002B80
:1050D000F0D100E000BF7B681B6803F00203002BE7
:1050E00063D0654B9B6803F00C03002B0BD0624B25
:1050F0009B6803F00C03082B1CD15F4B5B6803F427
:105100008003002B16D15C4B1B6803F00203002BBD
:1051100005D07B68DB68012B01D00123C4E1564B2D
:105120001B6823F0F8027B681B69DB0052491343BC
:105130000B603AE07B68DB68002B20D04F4B0122EC
:105140001A60FEF7C5FF386108E0FEF7C1FF0246AE
:105150003B69D31A022B01D90323A5E1464B1B68F7
:1051600003F00203002BF0D0434B1B6823F0F8023E
:105170007B681B69DB00404913430B6015E03F4B24
:1051800000221A60FEF7A4FF386108E0FEF7A0FFD6
:1051900002463B69D31A022B01D9032384E1364B23
:1051A0001B6803F00203002BF0D17B681B6803F03F
:1051B0000803002B30D07B685B69002B16D0304B86
:1051C00001221A60FEF784FF386108E0FEF780FFD5
:1051D00002463B69D31A022B01D9032364E1264B13
:1051E0005B6F03F00203002BF0D015E0244B00228C
:1051F0001A60FEF76DFF386108E0FEF769FF0246AE
:105200003B69D31A022B01D903234DE11A4B5B6F83
:1052100003F00203002BF0D17B681B6803F004034A
:10522000002B00F0A0800023FB75134B1B6C03F0D8
:105230008053002B0FD10023BB600F4B1B6C0E4A19
:1052400043F0805313640C4B1B6C03F08053BB6022
:10525000BB680123FB750B4B1B6803F48073002BA9
:1052600021D1084B1B68074A43F480731360FEF793
:105270002FFF386111E000BF0038024000004742B4
:10528000800E474200700040FEF722FF02463B6955
:10529000D31A022B01D9032306E1854B1B6803F4C3
:1052A0008073002BF0D07B689B68012B06D1814B6B
:1052B0001B6F804A43F0010313671CE07B689B6807
:1052C000052B0CD17B4B1B6F7A4A43F00403136709
:1052D000784B1B6F774A43F0010313670BE0754B64
:1052E0001B6F744A23F001031367724B1B6F714AE3
:1052F00023F0040313677B689B68002B15D0FEF72F
:10530000E7FE38610AE0FEF7E3FE02463B69D31A86
:1053100041F28832934201D90323C5E0654B1B6FEC
:1053200003F00203002BEED014E0FEF7D1FE38614B
:105330000AE0FEF7CDFE02463B69D31A41F28832FD
:10534000934201D90323AFE05A4B1B6F03F00203D2
:10535000002BEED1FB7D012B05D1564B1B6C554A22
:1053600023F0805313647B689B69002B00F09B80C3
:10537000504B9B6803F00C03082B5CD07B689B6947
:10538000022B41D14C4B00221A60FEF7A1FE38617E
:1053900008E0FEF79DFE02463B69D31A022B01D9B5
:1053A000032381E0434B1B6803F00073002BF0D113
:1053B0007B68DA697B681B6A1A437B685B6A9B01BE
:1053C0001A437B689B6A5B08013B1B041A437B689A
:1053D000DB6A1B06374913434B60374B01221A60C7
:1053E000FEF776FE386108E0FEF772FE02463B6982
:1053F000D31A022B01D9032356E02E4B1B6803F06E
:105400000073002BF0D04EE02B4B00221A60FEF709
:105410005FFE386108E0FEF75BFE02463B69D31A87
:10542000022B01D903233FE0224B1B6803F00073DA
:10543000002BF0D137E07B689B69012B01D1012360
:1054400032E01C4B5B68FB607B689B69012B28D0BA
:10545000FB6803F480027B68DB699A4221D1FB6818
:1054600003F03F027B681B6A9A421AD1FA6847F63A
:10547000C07313407A68526A9201934211D1FB685B
:1054800003F440327B689B6A5B08013B1B049A4231
:1054900007D1FB6803F070627B68DB6A1B069A42E7
:1054A00001D0012300E0002318461837BD4680BD17
:1054B00000700040003802406000474280B584B070
:1054C00000AF786039607B68002B01D10123CCE00C
:1054D000684B1B6803F007033A689A420CD9654B86
:1054E0003A68D2B21A70634B1B6803F007033A683C
:1054F0009A4201D00123B8E07B681B6803F00203E5
:10550000002B20D07B681B6803F00403002B05D020
:10551000594B9B68584A43F4E05393607B681B687F
:1055200003F00803002B05D0534B9B68524A43F409
:1055300060439360504B9B6823F0F0027B689B684C
:105540004D4913438B607B681B6803F00103002BFC
:1055500044D07B685B68012B07D1474B1B6803F481
:105560000033002B19D101237FE07B685B68022B9D
:1055700003D07B685B68032B07D13F4B1B6803F0AC
:105580000073002B09D101236FE03B4B1B6803F034
:105590000203002B01D1012367E0374B9B6823F006
:1055A00003027B685B68344913438B60FEF790FD10
:1055B000F8600AE0FEF78CFD0246FB68D31A41F260
:1055C0008832934201D903234FE02B4B9B6803F0B1
:1055D0000C027B685B689B009A42EBD1254B1B68F1
:1055E00003F007033A689A420CD2224B3A68D2B2CF
:1055F0001A70204B1B6803F007033A689A4201D0E7
:10560000012332E07B681B6803F00403002B08D001
:10561000194B9B6823F4E0527B68DB6816491343FF
:105620008B607B681B6803F00803002B09D0124BCA
:105630009B6823F460427B681B69DB000E491343BF
:105640008B6000F021F802460B4B9B681B0903F0AE
:105650000F030A49CB5C22FA03F3094A1360094B92
:105660001B681846FEF7F0FC002318461037BD46AD
:1056700080BD00BF003C024000380240A8D80008AE
:105680000400002008000020B0B584B000AF002165
:1056900079600021F960002139600021B960524928
:1056A000896801F00C0108290DD0082900F29480C6
:1056B000002902D0042903D08EE04C4BBB608EE061
:1056C0004B4BBB608BE04849496801F03F01796072
:1056D0004549496801F48001002924D042494968BC
:1056E000890908464FF0000140F2FF144FF0000511
:1056F00000EA040201EA05033D4901FB03F0002131
:1057000001FB02F144183A49A2FB01016318194652
:105710007B681A464FF00003FBF766FA02460B4619
:105720001346FB604AE0304B5B689B091A464FF01A
:10573000000340F2FF104FF0000102EA000403EA08
:105740000105204629464FF000024FF000034B01AF
:1057500043EAD063420110461946001B61EB050184
:105760004FF000024FF000038B0143EA9063820187
:10577000121A63EB01034FF000004FF00001D90053
:1057800041EA5271D00002460B46121945EB030361
:105790004FF000004FF00001990241EA925190024F
:1057A00002460B46104619467B681A464FF0000326
:1057B000FBF71AFA02460B461346FB600A4B5B687E
:1057C0001B0C03F0030301335B003B60FA683B688A
:1057D000B2FBF3F3BB6002E0044BBB6000BFBB68ED
:1057E00018461037BD46B0BD003802400024F40012
:1057F00040787D0180B400AF034B1B681846BD465E
:105800005DF8047B704700BF0400002080B500AF46
:10581000FFF7F0FF0246054B9B689B0A03F0070366
:105820000349CB5C22FA03F3184680BD00380240DE
:10583000B8D8000880B500AFFFF7DCFF0246054B83
:105840009B685B0B03F007030349CB5C22FA03F36D
:10585000184680BD00380240B8D8000880B582B034
:1058600000AF78607B68002B01D1012341E07B68A9
:1058700093F83D30DBB2002B06D17B68002283F821
:105880003C207868FEF72EF97B68022283F83D20E1
:105890007B681A687B6804331946104600F00CFCDC
:1058A0007B68012283F846207B68012283F83E2032
:1058B0007B68012283F83F207B68012283F8402027
:1058C0007B68012283F841207B68012283F8422013
:1058D0007B68012283F843207B68012283F84420FF
:1058E0007B68012283F845207B68012283F83D20F4
:1058F000002318460837BD4680BD80B582B000AF92
:1059000078607B68002B01D1012341E07B6893F82C
:105910003D30DBB2002B06D17B68002283F83C20AF
:10592000786800F039F87B68022283F83D207B68B4
:105930001A687B6804331946104600F0BDFB7B688B
:10594000012283F846207B68012283F83E207B6891
:10595000012283F83F207B68012283F840207B6886
:10596000012283F841207B68012283F842207B6872
:10597000012283F843207B68012283F844207B685E
:10598000012283F845207B68012283F83D20002313
:1059900018460837BD4680BD80B483B000AF78603C
:1059A00000BF0C37BD465DF8047B704780B584B0FE
:1059B00000AF786039603B68002B09D17B6893F8B1
:1059C0003E30DBB2012B14BF01230023DBB222E007
:1059D0003B68042B09D17B6893F83F30DBB2012B85
:1059E00014BF01230023DBB215E03B68082B09D16B
:1059F0007B6893F84030DBB2012B14BF01230023F6
:105A0000DBB208E07B6893F84130DBB2012B14BFB6
:105A100001230023DBB2002B01D001237CE03B6893
:105A2000002B04D17B68022283F83E2013E03B6800
:105A3000042B04D17B68022283F83F200BE03B68F3
:105A4000082B04D17B68022283F8402003E07B68A6
:105A5000022283F841207B681B68012239681846BE
:105A600000F014FE7B681B682D4A934204D07B68CB
:105A70001B682C4A934201D1012300E00023002B34
:105A800007D07B681B685A6C7B681B6842F4004235
:105A90005A647B681B68224A934222D07B681B6849
:105AA000B3F1804F1DD07B681B681F4A934218D00A
:105AB0007B681B681D4A934213D07B681B681C4A95
:105AC00093420ED07B681B68164A934209D07B68CC
:105AD0001B68184A934204D07B681B68164A93429D
