:020000040800F2
:10000000000002203D440008314200083742000849
:100010003D42000843420008494200080000000039
:1000200000000000000000000000000071AF0008A8
:100030004F42000800000000C1B100085D42000806
:100040008D4400088D4400088D4400088D4400084C
:100050008D4400088D4400088D4400088D4400083C
:100060008D4400088D4400088D4400088D4400082C
:100070008D4400088D4400088D4400088D4400081C
:100080008D4400088D4400088D4400088D4400080C
:100090008D4400088D4400088D4400088D440008FC
:1000A0008D4400088D4400088D4400088D440008EC
:1000B0008D4400088D4400088D4400088D440008DC
:1000C0008D4400088D4400088D4400088D440008CC
:1000D0008D4400088D4400088D44000879420008D2
:1000E0008D4400088D4400088D4400088D440008AC
:1000F0008D4400088D4400088D4400088D4400089C
:100100008D4400088D4400088D4400088D4400088B
:100110008D4400088D4400088D4400088D4400087B
:100120008D4400088D4400088D4400088D4400086B
:100130008D4400088D4400088D4400088D4400085B
:100140008D4400088D4400088D4400088D4400084B
:100150008D4400088D4400088D4400088D4400083B
:100160008D4400088D4400088D4400088D4400082B
:100170008D4400088D4400088D44000800000000F4
:080180008D4400088D440008C5
:1001900010B5054C237833B9044B13B10448AFF3C1
:1001A00000800123237010BDE0010020000000004A
:1001B000ACE4000808B5034B1BB103490348AFF397
:1001C000008008BD00000000E4010020ACE400084D
:1001D000034613F8012B002AFBD1181A0138704787
:1001E00001F0FF01102A2BDB10F0070F08D010F8E8
:1001F000013B013A8B422DD010F0070F42B3F6D1EC
:10020000F0B441EA012141EA014122F007047FF004
:1002100000070023F0E80256083C85EA010586EA5B
:10022000010685FA47F5A3FA87F586FA47F6A5FA97
:1002300087F68EB9EED1F0BC01F0FF0102F00702A3
:1002400032B110F8013B013A83EA010313B1F8D14E
:100250000020704701387047002D06BF354603382F
:10026000073815F0010F07D1013015F4807F02BF68
:10027000013015F4C03F0130F0BC0138704700BFB9
:1002800081F0004102E000BF83F0004330B54FEA47
:1002900041044FEA430594EA050F08BF90EA020FB4
:1002A0001FBF54EA000C55EA020C7FEA645C7FEA47
:1002B000655C00F0E2804FEA5454D4EB5555B8BF6A
:1002C0006D420CDD2C4480EA020281EA030382EADB
:1002D000000083EA010180EA020281EA0303362D6D
:1002E00088BF30BD11F0004F4FEA01314FF4801C40
:1002F0004CEA113102D0404261EB410113F0004F52
:100300004FEA03334CEA133302D0524263EB430308
:1003100094EA050F00F0A780A4F10104D5F1200EA6
:100320000DDB02FA0EFC22FA05F2801841F1000101
:1003300003FA0EF2801843FA05F359410EE0A5F1D5
:1003400020050EF1200E012A03FA0EFC28BF4CF006
:10035000020C43FA05F3C01851EBE37101F00045BC
:1003600007D54FF0000EDCF1000C7EEB00006EEBC9
:100370000101B1F5801F1BD3B1F5001F0CD3490853
:100380005FEA30004FEA3C0C04F101044FEA4452AA
:1003900012F5800F80F09A80BCF1004F08BF5FEA31
:1003A000500C50F1000041EB045141EA050130BD11
:1003B0005FEA4C0C404141EB0101013C28BFB1F523
:1003C000801FE9D291F0000F04BF01460020B1FA6E
:1003D00081F308BF2033A3F10B03B3F120020CDA41
:1003E0000C3208DD02F1140CC2F10C0201FA0CF01F
:1003F00021FA02F10CE002F11402D8BFC2F1200C84
:1004000001FA02F120FA0CFCDCBF41EA0C01904039
:10041000E41AA2BF01EB0451294330BD6FEA040482
:100420001F3C1CDA0C340EDC04F11404C4F120026D
:1004300020FA04F001FA02F340EA030021FA04F37F
:1004400045EA030130BDC4F10C04C4F1200220FAD6
:1004500002F001FA04F340EA0300294630BD21FA14
:1004600004F0294630BD94F0000F83F4801306BFDA
:1004700081F480110134013D4EE77FEA645C18BFCE
:100480007FEA655C29D094EA050F08BF90EA020F65
:1004900005D054EA000C04BF1946104630BD91EA5D
:1004A000030F1EBF0021002030BD5FEA545C05D160
:1004B0004000494128BF41F0004130BD14F580049F
:1004C0003CBF01F5801130BD01F0004545F0FE4113
:1004D00041F470014FF0000030BD7FEA645C1ABF48
:1004E000194610467FEA655C1CBF0B46024650EA7F
:1004F000013406BF52EA033591EA030F41F40021AB
:1005000030BD00BF90F0000F04BF0021704730B530
:100510004FF4806404F132044FF000054FF0000105
:1005200050E700BF90F0000F04BF0021704730B5C6
:100530004FF4806404F1320410F0004548BF40429B
:100540004FF000013EE700BF42004FEAE2014FEAF0
:1005500031014FEA02701FBF12F07F4393F07F4FCB
:1005600081F06051704732F07F4208BF704793F0CE
:100570007F4F04BF41F40021704730B54FF46074E1
:1005800001F0004521F000411CE700BF50EA0102E4
:1005900008BF704730B54FF000050AE050EA01028D
:1005A00008BF704730B511F0004502D5404261EBFD
:1005B00041014FF4806404F132045FEA915C3FF43E
:1005C000D8AE4FF003025FEADC0C18BF03325FEADB
:1005D000DC0C18BF033202EBDC02C2F1200300FA8C
:1005E00003FC20FA02F001FA03FE40EA0E0021FAB1
:1005F00002F11444BDE600BF70B54FF0FF0C4CF49F
:10060000E06C1CEA11541DBF1CEA135594EA0C0F50
:1006100095EA0C0F00F0DEF82C4481EA030621EA8B
:100620004C5123EA4C5350EA013518BF52EA0335C6
:1006300041F4801143F4801338D0A0FB02CE4FF078
:100640000005E1FB02E506F00042E0FB03E54FF0A8
:100650000006E1FB03569CF0000F18BF4EF0010EA0
:10066000A4F1FF04B6F5007F64F5407404D25FEA9C
:100670004E0E6D4146EB060642EAC62141EA55514F
:100680004FEAC52040EA5E504FEACE2EB4F1FD0C91
:1006900088BFBCF5E06F1ED8BEF1004F08BF5FEA0F
:1006A000500E50F1000041EB045170BD06F00046C1
:1006B00046EA010140EA020081EA0301B4EB5C046E
:1006C000C2BFD4EB0C0541EA045170BD41F4801166
:1006D0004FF0000E013C00F3AB8014F1360FDEBF8B
:1006E000002001F0004170BDC4F10004203C35DA67
:1006F0000C341BDC04F11404C4F1200500FA05F3EA
:1007000020FA04F001FA05F240EA020001F000428A
:1007100021F0004110EBD37021FA04F642EB060100
:100720005EEA430E08BF20EAD37070BDC4F10C042A
:10073000C4F1200500FA04F320FA05F001FA04F2EE
:1007400040EA020001F0004110EBD37041F10001DA
:100750005EEA430E08BF20EAD37070BDC4F12005E5
:1007600000FA05F24EEA020E20FA04F301FA05F24D
:1007700043EA020321FA04F001F0004121FA04F2F5
:1007800020EA020000EBD3705EEA430E08BF20EAC5
:10079000D37070BD94F0000F0FD101F000464000FF
:1007A00041EB010111F4801F08BF013CF7D041EA81
:1007B000060195F0000F18BF704703F00046520085
:1007C00043EB030313F4801F08BF013DF7D043EA56
:1007D0000603704794EA0C0F0CEA135518BF95EA0C
:1007E0000C0F0CD050EA410618BF52EA4306D1D193
:1007F00081EA030101F000414FF0000070BD50EAB2
:10080000410606BF1046194652EA430619D094EA3B
:100810000C0F02D150EA013613D195EA0C0F05D125
:1008200052EA03361CBF104619460AD181EA030179
:1008300001F0004141F0FE4141F470014FF0000031
:1008400070BD41F0FE4141F4780170BD70B54FF0CC
:10085000FF0C4CF4E06C1CEA11541DBF1CEA13554C
:1008600094EA0C0F95EA0C0F00F0A7F8A4EB05042E
:1008700081EA030E52EA03354FEA013100F0888025
:100880004FEA03334FF0805545EA131343EA1263EE
:100890004FEA022245EA111545EA10654FEA0026A3
:1008A0000EF000419D4208BF964244F1FD0404F55C
:1008B000407402D25B084FEA3202B61A65EB0305B8
:1008C0005B084FEA32024FF480104FF4002CB6EB75
:1008D000020E75EB030E22BFB61A754640EA0C00F5
:1008E0005B084FEA3202B6EB020E75EB030E22BF35
:1008F000B61A754640EA5C005B084FEA3202B6EB76
:10090000020E75EB030E22BFB61A754640EA9C0034
:100910005B084FEA3202B6EB020E75EB030E22BF04
:10092000B61A754640EADC0055EA060E18D04FEAC2
:10093000051545EA16754FEA06164FEAC30343EA62
:1009400052734FEAC2025FEA1C1CC0D111F4801F2F
:100950000BD141EA00014FF000004FF0004CB6E728
:1009600011F4801F04BF01430020B4F1FD0C88BFC7
:10097000BCF5E06F3FF6AFAEB5EB030C04BFB6EBD2
:10098000020C5FEA500C50F1000041EB045170BDC5
:100990000EF0004E4EEA113114EB5C04C2BFD4EBF2
:1009A0000C0541EA045170BD41F480114FF0000E76
:1009B000013C90E645EA060E8DE60CEA135594EAF2
:1009C0000C0F08BF95EA0C0F3FF43BAF94EA0C0FF5
:1009D0000AD150EA01347FF434AF95EA0C0F7FF46A
:1009E00025AF104619462CE795EA0C0F06D152EABE
:1009F00003353FF4FDAE1046194622E750EA4106A2
:100A000018BF52EA43067FF4C5AE50EA41047FF4B2
:100A10000DAF52EA43057FF4EBAE12E74FF0FF3C17
:100A200006E000BF4FF0010C02E000BF4FF0010CE8
:100A30004DF804CD4FEA410C7FEA6C5C4FEA430C61
:100A400018BF7FEA6C5C1BD001B050EA410C0CBFB0
:100A500052EA430C91EA030F02BF90EA020F002012
:100A6000704710F1000F91EA030F58BF994208BF79
:100A700090422CBFD8176FEAE37040F00100704736
:100A80004FEA410C7FEA6C5C02D150EA013C07D18D
:100A90004FEA430C7FEA6C5CD6D152EA033CD3D0D8
:100AA0005DF8040B704700BF8446104662468C46D2
:100AB0001946634600E000BF01B5FFF7B7FF002805
:100AC00048BF10F1000F01BD4DF808EDFFF7F4FF2E
:100AD0000CBF012000205DF808FB00BF4DF808EDB9
:100AE000FFF7EAFF34BF012000205DF808FB00BFDC
:100AF0004DF808EDFFF7E0FF94BF012000205DF8FE
:100B000008FB00BF4DF808EDFFF7CEFF94BF0120B2
:100B100000205DF808FB00BF4DF808EDFFF7C4FFAB
:100B200034BF012000205DF808FB00BF4FEA410CF4
:100B30007FEA6C5C02D150EA013C0AD14FEA430CD7
:100B40007FEA6C5C02D152EA033C02D14FF0000014
:100B500070474FF0010070474FEA410212F5001252
:100B600015D211D56FF47873B3EB625212D94FEAF4
:100B7000C12343F0004343EA505311F0004F23FADE
:100B800002F018BF404270474FF00000704750EA33
:100B9000013005D111F0004008BF6FF000407047F0
:100BA0004FF00000704700BF53B94AB9002908BF91
:100BB00000281CBF4FF0FF314FF0FF3000F06EB93E
:100BC000ADF1080C6DE904CE00F006F8DDF804E0A4
:100BD000DDE9022304B070472DE9F047089D044683
:100BE0008C46002B40F083808A42174647D9B2FAE0
:100BF00082F242B1C2F1200024FA00F09140974005
:100C000040EA010C94404FEA1748230CBCFBF8F66D
:100C10001FFA87FE08FB16C143EA014306FB0EF1EB
:100C2000994209D9FB1806F1FF3080F019819942E9
:100C300040F21681023E3B445B1AA4B2B3FBF8F0CB
:100C400008FB103344EA034400FB0EFEA64509D915
:100C50003C1900F1FF3380F00581A64540F2028186
:100C600002383C4440EA0640A4EB0E0400261DB1C5
:100C7000D4400023C5E900433146BDE8F08702B9FE
:100C8000FFDEB2FA82F2002A50D1CB1B4FEA174E98
:100C90001FFA87F80126B3FBFEFC210C0EFB1C3368
:100CA00041EA034108FB0CF38B4207D979180CF198
:100CB000FF3002D28B4200F2E9808446C91AA3B207
:100CC000B1FBFEF00EFB101143EA014408FB00F8F3
:100CD000A04507D93C1900F1FF3302D2A04500F22C
:100CE000D9801846A4EB080440EA0C40BFE78B42C9
:100CF00009D9002D00F0B1800026C5E90001304679
:100D00003146BDE8F087B3FA83F6002E4AD18B4214
:100D100002D3824200F2B880841A61EB0301012001
:100D20008C46002DA8D0C5E9004CA5E7C2F12003F0
:100D300020FA03F6974001FA02F04FEA174ED94025
:100D40003043030CB1FBFEF61FFA87F80EFB1611B9
:100D500043EA014306FB08F1994204FA02F409D977
:100D6000FB1806F1FF3C80F08D80994240F28A80AA
:100D7000023E3B445B1A81B2B3FBFEF00EFB103324
:100D800041EA034100FB08F38B4207D9791800F1CF
:100D9000FF3C73D28B4271D902383944CB1A40EAF6
:100DA000064678E7C6F1200C03FA06F422FA0CF3A3
:100DB0001C4320FA0CF701FA06F34FEA144E21FA0D
:100DC0000CF11F433B0CB1FBFEF91FFA84F80EFB3C
:100DD000191143EA014109FB08FA8A4502FA06F2B1
:100DE00000FA06F308D9611809F1FF3048D28A45A4
:100DF00046D9A9F102092144A1EB0A01BFB2B1FB16
:100E0000FEF00EFB101147EA014700FB08F8B84559
:100E100007D9E71900F1FF312ED2B8452CD9023895
:100E2000274440EA0940A7EB0807A0FB02894F4589
:100E3000C64649461AD317D05DB1B3EB0E0267EB35
:100E4000010707FA0CFCF2404CEA0202F740C5E940
:100E5000002700263146BDE8F0872E4628460BE7DE
:100E60000646E9E61846FDE64345E5D2B8EB020E34
:100E700069EB04010138DFE70846D2E760468DE7F9
:100E80008146B9E7664675E730464AE7ACF1020CA1
:100E9000394413E702383C4424E700BF704700BFE1
:100EA00080B500AF00BF00F0FBF8034683F00103FC
:100EB000DBB2002BF7D100F018F900F02DF901207A
:100EC00000F08EF900F0A5F9002000F0ABF9002049
:100ED00000F0C5F9002000F0DFF9002000F0EBF988
:100EE00000F018FA00F0B4FA032000F0BFFB032072
:100EF00000F006FC00BF80BD80B500AF00F026F911
:100F000000F03BF9072000F052F900BF00F0DBF8D9
:100F1000034683F00103DBB2002BF7D100F0F1F8B8
:100F2000082000F0E6F900BF80BD80B584B000AFB6
:100F3000786006223321002000F084FCF860FB6812
:100F40001B781B021AB2FB6801331B781BB21343D8
:100F50001BB207EE903AF8EEE77A7B68C3ED007AB1
:100F6000FB6802331B781B021AB2FB6803331B7841
:100F70001BB213431BB207EE903AF8EEE77A7B6898
:100F8000C3ED017AFB6804331B781B021AB2FB68BD
:100F900005331B781BB213431BB207EE903AF8EEF1
:100FA000E77A7B68C3ED027A00BF1037BD4680BD8B
:100FB00080B584B000AF786006222D21002000F0BB
:100FC00041FCF860FB681B781B021AB2FB68013316
:100FD0001B781BB213431BB207EE903AF8EEE77A88
:100FE0007B68C3ED007AFB6802331B781B021AB2E0
:100FF000FB6803331B781BB213431BB207EE903A16
:10100000F8EEE77A7B68C3ED017AFB6804331B785E
:101010001B021AB2FB6805331B781BB213431BB2C9
:1010200007EE903AB8EEE77A054BD3ED007A77EE0B
:10103000277A7B68C3ED027A00BF1037BD4680BDBA
:101040000002002080B582B000AF78607868FFF7BA
:101050006CFF7B68D3ED006A104B93ED007AC6EE0F
:10106000877A7B68C3ED007A7B68D3ED016A0B4B0E
:1010700093ED007AC6EE877A7B68C3ED017A7B68D0
:10108000D3ED026A054B93ED007AC6EE877A7B6852
:10109000C3ED027A00BF0837BD4680BDFC010020C9
:1010A00080B582B000AF0021002000F087FB03462E
:1010B000FB71FB79EA2B01D1012300E000231846E4
:1010C0000837BD4680BD80B582B000AF012000F07A
:1010D00003FC0346FB71FB79092B01D1012300E0DE
:1010E000002318460837BD4680BD80B500AFC12239
:1010F0000621002000F084FB642003F03BFA00BFCF
:1011000080BD80B500AF0121322000F006FC6420D4
:1011100003F030FA00BF80BD80B582B000AF062179
:10112000002000F04BFB0346FB71FB7923F04003EA
:10113000FB71FB791A460621002000F061FB642058
:1011400003F018FA00BF0837BD4680BD80B582B0F5
:1011500000AF0321002000F031FB0346FB71FB7957
:1011600043F00203FB71FB791A460321002000F0D3
:1011700047FB00BF0837BD4680BD80B582B000AFD9
:101180000321002000F01AFB0346FB71FB7943F0BA
:101190002003FB71FB791A460321002000F030FB8D
:1011A000642003F0E7F900BF0837BD4680BD80B575
:1011B00084B000AF0346FB710121302000F0FEFA3D
:1011C0000346FB73FA7BFB791343FB73FB7B1A46E5
:1011D0000121302000F014FB00BF1037BD4680BD58
:1011E00080B584B000AF0346FB710621002000F0FB
:1011F000E5FA0346FB73FA7BFB791343FB73FB7B36
:101200001A460621002000F0FBFA00BF1037BD4649
:1012100080BD80B500AF01220921202000F0F0FA46
:1012200000BF80BD80B584B000AF0346FB710121D3
:10123000202000F0C3FA0346FB73FB79DB005AB2AF
:1012400097F90F3013435BB2FB73FB7B1A46012106
:10125000202000F0D5FA00BF1037BD4680BD80B514
:1012600084B000AF0346FB711421202000F0A6FAE1
:101270000346FB73FB79DB005AB297F90F30134337
:101280005BB2FB73FB7B1A460121202000F0B8FA09
:1012900000BF1037BD4680BD80B582B000AF0346A9
:1012A000FB71FB791A460021202000F0A9FA00BF4B
:1012B0000837BD4680BD80B584B000AF0346FB80D3
:1012C000FB881B0A9BB2FB73FB88DBB203F00F03A6
:1012D000BB73FB7B1A461021202000F091FABB7BE8
:1012E0001A461121202000F08BFA00BF1037BD46AE
:1012F00080BD80B582B000AF0346FB71FB79194613
:10130000312000F00AFB642003F034F900BF0837F5
:10131000BD4680BD80B58AB000AF07F10C03002246
:101320001A605A609A6000237B6000233B8100238F
:101330007B6231E007F118031846FFF7F6FDFB6802
:1013400007EE903AB8EEE77AD7ED067A77EE277A8D
:10135000FDEEE77A17EE903AFB603B6907EE903AB4
:10136000B8EEE77AD7ED077A77EE277AFDEEE77ADF
:1013700017EE903A3B617B6907EE903AB8EEE77A58
:10138000D7ED087A77EE277AFDEEE77A17EE903AF6
:101390007B617B6A01337B627B6AB3F57A7FC9DB51
:1013A000FB682A4A82FB03129211DB17D31AFB60F7
:1013B0003B69264A82FB03129211DB17D31A3B6169
:1013C0007B69224A82FB03129211DB17D31A7B61DD
:1013D000FB685B42002B00DA03339B101B12DBB26D
:1013E0003B71FB685B42002B00DA03339B10DBB2DE
:1013F0007B713B695B42002B00DA03339B101B12AD
:10140000DBB2BB713B695B42002B00DA03339B10FC
:10141000DBB2FB717B695B42002B00DA03339B106C
:101420001B12DBB23B727B695B42002B00DA033399
:101430009B10DBB27B723A1D06230321202000F0B3
:1014400027FA00BF2837BD4680BD00BFD34D6210CC
:1014500080B590B000AF07F1180300221A605A60FF
:101460009A6007F10C0300221A605A609A60002308
:101470007B6000233B810023FB6331E007F1240301
:101480001846FFF795FDBB6907EE903AB8EEE77A8C
:10149000D7ED097A77EE277AFDEEE77A17EE903AE4
:1014A000BB61FB6907EE903AB8EEE77AD7ED0A7AAE
:1014B00077EE277AFDEEE77A17EE903AFB613B6A0A
:1014C00007EE903AB8EEE77AD7ED0B7A77EE277A07
:1014D000FDEEE77A17EE903A3B62FB6B0133FB635C
:1014E000FB6B632BCADDBB695E4A82FB03125211A0
:1014F000DB17D31ABB61FB695A4A82FB03125211F4
:10150000DB17D31AFB613B6A564A82FB0312521166
:10151000DB17D31A3B62544A3B46126811461980C6
:101520000233120C1A7002221421102000F08AF9E2
:10153000B863BB6B1B781B02BA6B01321278134382
:10154000FB60BB6B01331B7803F00103DBB23B7024
:1015500002221721102000F075F978637B6B1B784D
:101560001B027A6B0132127813433B617B6B0133B0
:101570001B7803F00103DBB27B7002221A211020DA
:1015800000F060F938633B6B1B781B023A6B013249
:10159000127813437B613B6B01331B7803F001032B
:1015A000DBB2BB70FA68BB69002B00DA0733DB10D3
:1015B0005B421344FB603A69FB69002B00DA073396
:1015C000DB105B4213443B617A693B6A002B00DA13
:1015D0000733DB105B4213447B61FB681B12DBB2F9
:1015E0003B71FB68DBB223F00103DBB27B717A79DC
:1015F0003B781343DBB27B713B691B12DBB2BB71DF
:101600003B69DBB223F00103DBB2FB71FA797B7833
:101610001343DBB2FB717B691B12DBB23B727B694C
:10162000DBB223F00103DBB27B727A7ABB7813431F
:10163000DBB27B723A1D02231421102000F028F93E
:101640003B1D9A1C02231721102000F021F93B1D9D
:101650001A1D02231A21102000F01AF900BF40378A
:10166000BD4680BD1F85EB51C8E4000880B584B03D
:1016700000AF0346FB710121202000F09FF80346D4
:10168000FB73FB79032B27D801A252F823F000BF8C
:10169000A1160008A9160008B9160008C916000806
:1016A000124B134A1A6017E0FB7B43F00203FB73F3
:1016B0000E4B104A1A600FE0FB7B43F00403FB73F0
:1016C0000A4B0D4A1A6007E0FB7B43F00603FB73ED
:1016D000064B0A4A1A6000BFFB7B1A4601212020F4
:1016E00000F08EF800BF1037BD4680BDFC01002021
:1016F000000003430000834233330342333383410A
:1017000080B584B000AF0346FB711421202000F0A7
:1017100055F80346FB73FB79032B2BD801A252F833
:1017200023F000BF351700083F17000851170008C5
:1017300063170008144B4FF08D421A601AE0FB7BD0
:1017400043F00203FB73104B4FF08C421A6011E020
:10175000FB7B43F00403FB730B4B4FF08B421A608F
:1017600008E0FB7B43F00603FB73074B4FF08A4214
:101770001A6000BFFB7B1A461421202000F040F8BD
:1017800000BF1037BD4680BD0002002080B586B086
:1017900004AF0346FB714FF47A7302930123019364
:1017A000FB1D009301237F22D021034803F070FF2B
:1017B00000BF0837BD4680BD044C002080B588B00E
:1017C00004AF03460A46FB711346BB71FB7918460A
:1017D000FFF7DCFFBB799AB24FF47A7302930123CF
:1017E000019307F10F0300930123D021034804F074
:1017F00049F8FB7B18461037BD4680BD044C0020DD
:1018000080B586B004AF0346FB710B46BB7113462F
:101810007B71FB791846FFF7B9FFBB799AB24FF499
:101820007A730293012301937B1D00930123D0213E
:10183000034803F02DFF00BF0837BD4680BD00BF41
:10184000044C002080B586B004AF0346FB710B4604
:10185000BB7113467B71FB791846FFF797FFBB7985
:101860009AB27B799BB24FF47A7102910193064B45
:1018700000930123D021054804F004F8024B1846D8
:101880000837BD4680BD00BF04020020044C002084
:1018900080B586B004AF3A601A460346FB710B462A
:1018A000BB7113467B71FB791846FFF76FFFBB795D
:1018B0009AB27B799BB24FF47A71029101933B68A3
:1018C00000930123D021034803F0E2FE00BF083754
:1018D000BD4680BD044C002080B582B000AF0346F9
:1018E000FB718C2203213020FFF78AFFFB791A4617
:1018F00004213020FFF784FF812205213020FFF7EB
:101900007FFF012002F036FE3B210020FFF756FF4B
:10191000034618460837BD4680BD80B582B000AF8B
:1019200003460A46FB711346BB710C22032130208B
:10193000FFF766FFFB791A4604213020FFF760FFAE
:10194000BB791A4606213020FFF75AFF8122052174
:101950003020FFF755FF00BF0837BD4680BD0000AF
:1019600080B500AF02F094FD00F05AF800F0A2FB41
:1019700000F0CCFA00F022FA00F082F900F070FBDF
:1019800000F050F900F0AAF800F06CFA00F0F8F856
:1019900002F058F90A221449144806F050FA07F0E8
:1019A0006BF9134A0021134807F0B0F90346124AB5
:1019B0001360124A0021124807F0A8F90346114AA1
:1019C0001360114A0021114807F0A0F90346104A9C
:1019D0001360104A0021104807F098F903460F4A97
:1019E000136007F06DF9FEE7444D0020784B0020AE
:1019F00054E50008953400082C4B002078E50008D9
:101A000091360008344D00209CE500089537000809
:101A1000AC4D0020C0E5000819380008E84C002053
:101A200080B594B000AF07F12003302200211846A2
:101A300009F0C6FE07F10C0300221A605A609A6092
:101A4000DA601A610023BB60224B1B6C214A43F011
:101A5000805313641F4B1B6C03F08053BB60BB6847
:101A600000237B601C4B1B681B4A43F480431360BC
:101A7000194B1B6803F480437B607B6802233B6245
:101A80000123FB6210233B630023BB6307F12003A8
:101A9000184604F0A1FC0346002B01D001F026FFFC
:101AA0000F23FB6000233B6100237B610023BB61AC
:101AB0000023FB6107F10C030021184604F004FF2A
:101AC0000346002B01D001F011FF00BF5037BD4687
:101AD00080BD00BF003802400070004080B584B077
:101AE00000AF3B4600221A605A609A60DA60214BD0
:101AF000214A1A601F4B00225A601E4B00229A6036
:101B00001C4B00221A611B4B00221A76194B002233
:101B100083F82020174B0022DA62164B174A9A628C
:101B2000144B0022DA60134B0122DA61114B0022C0
:101B300083F830200F4B01225A610E4802F03EFD1F
:101B40000346002B01D001F0D1FE0B233B600123A3
:101B50007B600023BB603B461946064802F0DCFE72
:101B60000346002B01D001F0C1FE00BF1037BD4677
:101B700080BD00BFA04C0020002001400100000FEC
:101B800080B584B000AF3B4600221A605A609A606C
:101B9000DA60214B214A1A601F4B00225A601E4B0B
:101BA00000229A601C4B00221A611B4B00221A76FD
:101BB000194B002283F82020174B0022DA62164BC3
:101BC000174A9A62144B0022DA60134B0122DA6141
:101BD000114B002283F830200F4B01225A610E482E
:101BE00002F0ECFC0346002B01D001F07FFE0C2339
:101BF0003B6001237B600023BB603B4619460648DF
:101C000002F08AFE0346002B01D001F06FFE00BFF8
:101C10001037BD4680BD00BFBC4B002000210140F5
:101C20000100000F80B500AF124B134A1A60114B30
:101C3000124A5A600F4B00229A600E4B0022DA6063
:101C40000C4B4FF480421A610A4B00225A61094B37
:101C500000229A61074B0022DA61064B00221A62C9
:101C6000044803F0D1FB0346002B01D001F03EFEF7
:101C700000BF80BD044C002000540040A08601003D
:101C800080B596B000AF07F1480300221A605A6091
:101C90009A60DA6007F1400300221A605A6007F187
:101CA000240300221A605A609A60DA601A615A614D
:101CB0009A613B1D20220021184609F081FD3D4B11
:101CC0003D4A1A603B4BA0225A603A4B00229A6070
:101CD000384B4FF47A72DA60364B00221A61354B7A
:101CE00000225A61334B80229A61324804F0BCFFD3
:101CF0000346002B01D001F0F9FD4FF48053BB6483
:101D000007F1480319462B4805F014FB0346002B46
:101D100001D001F0EBFD274804F0F5FF0346002B4E
:101D200001D001F0E3FD00233B6400237B6407F155
:101D3000400319461F4805F0D5FE0346002B01D08D
:101D400001F0D4FD60237B620023BB620023FB62B1
:101D500000237B630023BB630023FB6307F12403A1
:101D60000C221946134805F023FA0346002B01D034
:101D700001F0BCFD00237B600023BB600023FB60FF
:101D800000233B6100237B614FF40053BB610023C0
:101D90003B623B1D1946074805F020FF0346002B18
:101DA00001D001F0A3FD034802F0B8F900BF583795
:101DB000BD4680BDEC4C00200000014080B58CB0D9
:101DC00000AF07F10C0324220021184609F0F8FCAB
:101DD0003B1D00221A605A60214B4FF080421A606E
:101DE0001F4B00225A601E4B00229A601C4B4FF082
:101DF000FF32DA601A4B00221A61194B00229A61F5
:101E00000323FB6000233B6101237B610023BB6153
:101E10000023FB6100233B6201237B620023BB6242
:101E20000023FB6207F10C0319460D4805F08CF8FE
:101E30000346002B01D001F059FD00237B600023F5
:101E4000BB603B1D1946064805F04CFE0346002BBF
:101E500001D001F04BFD00BF3037BD4680BD00BF53
:101E6000584D002080B58CB000AF07F10C03242240
:101E70000021184609F0A4FC3B1D00221A605A609C
:101E8000204B214A1A601F4B00225A601D4B002232
:101E90009A601C4B4FF6FF72DA601A4B00221A61EF
:101EA000184B00229A610323FB6000233B6101234E
:101EB0007B610023BB610023FB6100233B620123A4
:101EC0007B620023BB620023FB6207F10C0319460F
:101ED0000C4805F039F80346002B01D001F006FD4F
:101EE00000237B600023BB603B1D1946054805F0BD
:101EF000F9FD0346002B01D001F0F8FC00BF30379C
:101F0000BD4680BD584C00200004004080B596B00E
:101F100000AF07F1480300221A605A609A60DA6045
:101F200007F1400300221A605A6007F124030022DF
:101F30001A605A609A60DA601A615A619A613B1DB0
:101F400020220021184609F03BFC434B434A1A600B
:101F5000414B00225A60404B00229A603E4B41F6B2
:101F60001F42DA603C4B00221A613B4B00225A614F
:101F7000394B00229A61384804F076FE0346002B64
:101F800001D001F0B3FC4FF48053BB6407F1480368
:101F90001946314805F0CEF90346002B01D001F077
:101FA000A5FC2D4804F0AFFE0346002B01D001F044
:101FB0009DFC00233B6400237B6407F1400319462A
:101FC000254805F08FFD0346002B01D001F08EFC63
:101FD00060237B620023BB620023FB6200233B6320
:101FE00000237B630023BB630023FB6307F124030F
:101FF00000221946184805F0DBF80346002B01D0F3
:1020000001F074FC07F1240304221946124805F07C
:10201000CFF80346002B01D001F068FC00237B6061
:102020000023BB600023FB6000233B6100237B6136
:102030004FF40053BB6100233B623B1D1946064829
:1020400005F0CCFD0346002B01D001F04FFC00BF92
:102050005837BD4680BD00BF304B00200004014012
:1020600080B500AF114B124A1A60104B4FF4E132A9
:102070005A600E4B00229A600C4B0022DA600B4B28
:1020800000221A61094B0C225A61084B00229A6106
:10209000064B0022DA61054805F0F2FD0346002BED
:1020A00001D001F023FC00BF80BD00BF784B0020B1
:1020B0000048004080B58AB000AF07F11403002249
:1020C0001A605A609A60DA601A6100233B61314BF2
:1020D0001B6B304A43F0100313632E4B1B6B03F052
:1020E00010033B613B690023FB602A4B1B6B294AB1
:1020F00043F004031363274B1B6B03F00403FB60E3
:10210000FB680023BB60234B1B6B224A43F0010397
:102110001363204B1B6B03F00103BB60BB68002300
:102120007B601C4B1B6B1B4A43F002031363194B70
:102130001B6B03F002037B607B6800224FF4F1719C
:10214000154803F047F900223C21144803F042F9F6
:102150004FF4F1737B610123BB610023FB6100231A
:102160003B6207F1140319460B4802F097FF3C232A
:102170007B610123BB610023FB6102233B6207F10A
:1021800014031946054802F089FF00BF2837BD46F1
:1021900080BD00BF00380240001002400000024035
:1021A00080B483B000AF786000BF0C37BD465DF8E7
:1021B000047B704784B080B584B000AF07F1180C81
:1021C0008CE80F000023FB8100237B6015E007F102
:1021D000180002F037FA4FF0FF3107F1180002F053
:1021E00003FB07F1180002F08AFB03469AB2FB8951
:1021F0001344FB817B6801337B607B68132BE6DD36
:10220000FB89434AA2FB03231B099BB23B603B684B
:10221000B3F5396F07DC3B6840F6C412934202DD28
:102220000A23BB606BE03B6840F6C412934207DCB4
:102230003B6840F23572934202DD0F23BB605EE0E3
:102240003B6840F23572934207DC3B6840F2B4527F
:10225000934202DD1423BB6051E03B6840F2B4526C
:10226000934207DC3B6840F2FB42934202DD1923B4
:10227000BB6044E03B6840F2FB42934206DC3B68B3
:10228000B3F58E6F02DB1E23BB6038E03B68B3F50D
:102290008E6F06DA3B68B3F57F7F02DD2323BB60D8
:1022A0002DE03B68B3F57F7F07DC3B6840F29D3251
:1022B000934202DD2823BB6021E03B6840F29D325F
:1022C000934206DC3B68B3F54C7F02DB2D23BB60F9
:1022D00015E03B68B3F54C7F07DA3B6840F2C62255
:1022E000934202DD3223BB6009E03B6840F2C62224
:1022F000934202DC0023BB6001E00523BB60BB68A6
:1023000018461037BD46BDE8804004B0704700BF96
:10231000CDCCCCCC80B58AB000AF03463960FB7120
:102320004FF4AF63FB834FF4AF63BB830021AD4831
:1023300004F042FD0421AB4804F03EFD0C21AA4804
:1023400004F03AFD3C21A94804F0A4FE8F23BB61B0
:10235000A74B1B687B61A44B1B68BA691A644FF4D6
:10236000FA7006F065FDA14B1B685B6A7B829E4B91
:102370001B68BA691A64FB79002B78D0012204210A
:102380009C4803F027F8002208219A4803F022F81D
:1023900001222021974803F01DF8002210219548C2
:1023A00003F018F8924BD3ED007AFDEEE77A17EEC2
:1023B000903A83EAE372A2EBE372D7ED057AFDEE81
:1023C000E77A17EE903A002BB8BF5B42D31A002B86
:1023D000B8BF5B4207EE903AF8EEE77AC7ED087AAD
:1023E000834BD3ED007A97ED057AB4EEE77AF1EE00
:1023F00010FA07DD9FED807AD7ED087A77EE677ADD
:10240000C7ED087A0423FB60D7ED087AB6EE007AB0
:10241000F4EEC77AF1EE10FA09DBBA69FB681A44E8
:10242000714B1B681A640A2006F002FD97E0D7ED95
:10243000087ABEEE007AF4EEC77AF1EE10FA09D807
:10244000BA69FB681A44684B1B681A640A2006F0D4
:10245000EFFC84E0644B1B68BA691A64614B1B682B
:10246000FA8B5A635F4B1B68BA8B9A6377E0012241
:102470000821604802F0AEFF002204215D4802F00E
:10248000A9FF012210215B4802F0A4FF00222021B5
:10249000584802F09FFF564BD3ED007AFDEEE77AE5
:1024A00017EE903A83EAE372A2EBE372D7ED057A76
:1024B000FDEEE77A17EE903A002BB8BF5B42D31AD5
:1024C000002BB8BF5B4207EE903AF8EEE77AC7ED13
:1024D000087A474BD3ED007A97ED057AB4EEE77AA8
:1024E000F1EE10FA07D59FED447AD7ED087A77EE32
:1024F000677AC7ED087A0423FB60D7ED087ABEEE51
:10250000007AF4EEC77AF1EE10FA09D8BA69FB68DE
:102510001A44354B1B681A640A2006F089FC1EE039
:10252000D7ED087AB6EE007AF4EEC77AF1EE10FA3B
:1025300009DBBA69FB681A442B4B1B681A640A2032
:1025400006F076FC0BE0284B1B68BA691A64254B31
:102550001B68BA8B5A63234B1B68FA8B9A63FB790F
:10256000002B08D01F4B1B68FA8B5A631D4B1B684E
:10257000BA8B9A6307E01B4B1B68BA8B5A63194BE3
:102580001B68FA8B9A63FB79002B06D03B6840F2FC
:10259000972202FB03F37B6205E03B6840F2A32233
:1025A00002FB03F37B62114B1B685B6A7B810F4B61
:1025B0001B681B6803F01003102B09D1B7F9122018
:1025C000B7F90A30D31A7A6A9A423FF7D0AE16E0CA
:1025D000B7F90A20B7F91230D31A7A6A9A420DDD98
:1025E000C5E600BF304B0020EC4C0020584C0020CA
:1025F0000C020020000002400000000000BF0A4B57
:102600001B6800225A63084B1B6800229A63074B21
:102610001B686FF001021A61054B00225A625223B7
:1026200018462837BD4680BD304B0020584C00204E
:1026300000040040F0B597B00EAF03463960FB8050
:102640000423BB618F237B61A24B1B683B6100218C
:10265000A14804F0B1FB04219F4804F0ADFB0C211C
:102660009E4804F0A9FB3C219D4804F013FD9B4BC0
:102670001B687A691A649B4B1B685B6AFB813B6829
:10268000002B00F0038101220421974802F0A2FEF2
:1026900000220821944802F09DFE01222021924848
:1026A00002F098FE002210218F4802F093FE894B21
:1026B000D3ED007AFDEEE77A17EE903A83EAE37203
:1026C000A2EBE372D7ED047AFDEEE77A17EE903ACB
:1026D000002BB8BF5B42D31A002BB8BF5B4207EE9A
:1026E000903AF8EEE77AC7ED077A7A4BD3ED007AA5
:1026F00097ED047AB4EEE77AF1EE10FA07DD9FED7C
:102700007B7AD7ED077A77EE677AC7ED077AD7ED50
:10271000077AB6EE007AF4EEC77AF1EE10FA09DB2A
:102720007A69BB691A446D4B1B681A640A2006F06B
:102730007FFB11E0D7ED077ABEEE007AF4EEC77AA0
:10274000F1EE10FA08D87A69BB691A44634B1B682A
:102750001A640A2006F06CFB5F4B1B68FA885A6308
:102760005D4B1B68FA889A635E4B1B685B6ABB8192
:102770005C4B1B681B6803F01003102B09D1B7F9E1
:102780000E20B7F90C30D31A3A689A423FF77BAF64
:1027900009E0B7F90C20B7F90E30D31A3A689A421B
:1027A00000DD70E700BF00238FE0012204214E48C6
:1027B00002F010FE002208214B4802F00BFE01221D
:1027C0002021494802F006FE00221021464802F06E
:1027D00001FE404BD3ED007AFDEEE77A17EE903A1A
:1027E00083EAE372A2EBE372D7ED047AFDEEE77AB7
:1027F00017EE903A002BB8BF5B42D31A002BB8BF3C
:102800005B4207EE903AF8EEE77AC7ED077A314B74
:10281000D3ED007A97ED047AB4EEE77AF1EE10FA90
:1028200007DD9FED327AD7ED077A77EE677AC7ED4D
:10283000077AD7ED077AB6EE007AF4EEC77AF1EEB2
:1028400010FA09DB7A69BB691A44244B1B681A64C5
:102850000A2006F0EDFA11E0D7ED077ABEEE007A15
:10286000F4EEC77AF1EE10FA08D87A69BB691A4417
:102870001A4B1B681A640A2006F0DAFA164B1B681A
:10288000FA885A63144B1B68FA889A63184E6D468F
:1028900006F110040FCC0FC50FCC0FC50FCC0FC520
:1028A00094E8030085E8030096E80F00FFF782FC38
:1028B0000346002B7FF479AF0A4B1B685B6ABB8130
:1028C000B7F90C20B7F90E30D31A18462437BD4695
:1028D000F0BD00BF0C020020304B0020EC4C00206B
:1028E000584D0020584C002000000240000000001D
:1028F000A04C002080B584B000AF03460A4687EDA7
:10290000000AFB711346BB803D4B1B686FF0010250
:102910001A613C4B00225A6200213B4804F04CFAF9
:102920000421394804F048FA0C21384804F044FAEC
:102930003C21334804F0AEFBFB79002B04D0334B31
:102940001B6864221A6403E0304B1B68F0221A648F
:102950002F4B1B68BB60012204212E4802F03AFD78
:10296000002208212B4802F035FD012220212948B0
:1029700002F030FD00221021264802F02BFD4FF41A
:10298000FA7006F055FA204B1B68BA885A631E4B42
:102990001B68BA889A630A2006F04AFAFB79002B72
:1029A00009D01B4B93ED007AD7ED027A77EE677A68
:1029B000C7ED037A08E0164BD3ED007A97ED027A63
:1029C00077EE677AC7ED037A97ED037AD7ED007A51
:1029D000B4EEE77AF1EE10FA00DCDFE700BF0B4B54
:1029E0001B688F221A64064B1B686FF001021A6184
:1029F000044B00225A62522318461037BD4680BD50
:102A0000584C002000040040304B0020EC4C0020CB
:102A10000C0200200000024080B58EB000AF0346DB
:102A20000A46FB711346BB714FF4E163FB844FF020
:102A300000033B620021AA4804F0BEF90421A84823
:102A400004F0BAF90C21A74804F0B6F93C21A648D5
:102A500004F020FBA54B1B683B62FB79002B1ED0CA
:102A6000BB79002B0DD09F4B1B685D221A6440F28E
:102A700056433B6340F29653FB6240F25233BB62D3
:102A80002AE0984B1B68F0221A6440F2AE533B6375
:102A900040F2A633FB6240F24243BB621CE0BB79CA
:102AA000002B0CD08F4B1B685D221A64C8233B633C
:102AB0004FF4C863FB6240F22A33BB620CE0894BDF
:102AC0001B68F0221A644FF42F733B6340F2B63355
:102AD000FB6240F28E33BB62FB79002B14D00122E3
:102AE0000421834802F076FC00220821804802F08D
:102AF00071FC012220217E4802F06CFC0022102192
:102B00007B4802F067FC13E001220821784802F0BC
:102B100061FC00220421764802F05CFC01221021B5
:102B2000734802F057FC00222021714802F052FC49
:102B30004FF4FA7006F07CF9694B1B68FA8C5A6303
:102B4000674B1B68FA8C9A630A2006F071F9664B92
:102B50001B686FF001021A61664B00225A62624BD9
:102B60001B685B6AFB83604B1B681B6803F01003E8
:102B7000102B0AD1FB8BC3F57F43FF333A6B9A428C
:102B8000EDDCFB8B002BEAD005E0FB8B3A6B9A4225
:102B900000DDE4E700BF524B1B6800225A63504B34
:102BA0001B6800229A63642006F042F9BB79002B6F
:102BB00004D04C4B1B68F0221A6403E0494B1B689D
:102BC0005D221A64FB79002B14D0012208214848A9
:102BD00002F000FC00220421454802F0FBFB012228
:102BE0001021434802F0F6FB00222021404802F069
:102BF000F1FB13E0012204213D4802F0EBFB00222F
:102C000008213B4802F0E6FB01222021384802F06F
:102C1000E1FB00221021364802F0DCFB4FF4FA7091
:102C200006F006F92E4B1B68FA8C5A632C4B1B6876
:102C3000FA8C9A630A2006F0FBF82B4B1B686FF0A6
:102C400001021A612B4B00225A62274B1B685B6AF8
:102C5000FB83254B1B681B6803F01003102B0AD164
:102C6000FB8BC3F57F43FF33FA6A9A42EDDCFB8BA3
:102C7000002BEAD005E0FB8BFA6A9A4200DDE4E71C
:102C800000BF174B1B6800225A63154B1B680022BC
:102C90009A63642006F0CCF8BB79002B04D0114B6A
:102CA0001B685D221A6403E00E4B1B68F0221A6455
:102CB000FB79002B20D0012204210D4802F08AFB71
:102CC000002208210A4802F085FB01222021084841
:102CD00002F080FB00221021054802F07BFB1FE080
:102CE000304B0020EC4C0020584C00200C020020FF
:102CF000000002400004004001220821B14802F017
:102D000069FB00220421AF4802F064FB012210217C
:102D1000AC4802F05FFB00222021AA4802F05AFBD7
:102D20004FF4FA7006F084F8A74B1B68FA8C5A63CC
:102D3000A54B1B68FA8C9A630A2006F079F8A34B1E
:102D40001B686FF001021A61A14B00225A629F4B6F
:102D50001B685B6AFB839D4B1B681B6803F01003B9
:102D6000102B0AD1FB8BC3F57F43FF33BA6A9A421B
:102D7000EDDCFB8B002BEAD005E0FB8BBA6A9A42B4
:102D800000DDE4E700BF904B1B6800225A638E4BC6
:102D90001B6800229A630A2006F04AF88D4B1B68D4
:102DA0008F221A64894B1B686FF001021A61884BED
:102DB00000225A62854B1B685B6ABB830122082193
:102DC000804802F007FB002204217E4802F002FB4B
:102DD000012210217B4802F0FDFA002220217948CF
:102DE00002F0F8FA0A2006F023F8774B1B68FA8CF9
:102DF0005A63754B1B68FA8C9A63FB79002B0AD0D7
:102E0000BB79002B03D040F295337B630DE04FF488
:102E100061737B6309E0BB79002B03D04FF4C87367
:102E20007B6302E04FF47A737B63684B1B685B6AD9
:102E30007B83664B1B681B6803F01003102B08D1C3
:102E4000B7F91C20B7F91A30D31A7A6B9A42B5DC5D
:102E500009E0B7F91A20B7F91C30D31A7A6B9A42F5
:102E600000DDABE700BF584B1B6800225A63564B8E
:102E70001B6800229A634FF4FA7005F0D9FF564B95
:102E80007B61564B3B614FF07E53FB60BB79002B5F
:102E900000F03681524B93ED007AD7ED087A77EE49
:102EA000677AC7ED027A97ED057AD7ED037A77EE68
:102EB000277A97ED027AB4EEE77AF1EE10FA40F352
:102EC0009180444B1B6898221A64C82005F0B0FF1B
:102ED000012204213B4802F07DFA002208213948F2
:102EE00002F078FA01222021364802F073FA00221B
:102EF0001021344802F06EFA334B1B68FA8C5A6387
:102F0000314B1B68FA8C9A63C82005F091FF2E4B59
:102F10001B6800225A632C4B1B6800229A632D4BBE
:102F20001B688C221A64C82005F082FF0122082148
:102F3000244802F04FFA00220421224802F04AFA03
:102F4000012210211F4802F045FA002220211D48CD
:102F500002F040FA1C4B1B68FA8C5A631A4B1B6830
:102F6000FA8C9A63C82005F063FF174B1B68002298
:102F70005A63154B1B6800229A63194B93ED007A34
:102F8000D7ED087A77EE677AC7ED027A97ED057A82
:102F9000D7ED037A77EE277A97ED027AB4EEE77AE7
:102FA000F1EE10FA40F2D8810D4BD3ED007AF5EE38
:102FB000407AF1EE10FA00F0D181642005F038FF7C
:102FC0007FE700BF00000240304B0020584C00203B
:102FD00000040040EC4C00200000B2420000B0426F
:102FE0000C02002097ED057AD7ED037A77EE677A29
:102FF00097ED027AB4EEE77AF1EE10FA40F1BB8178
:103000008B4B1B688C221A64C82005F011FF01222B
:103010000421884802F0DEF900220821854802F0E8
:10302000D9F901222021834802F0D4F9002210218D
:10303000804802F0CFF9804B1B68FA8C5A637E4BB4
:103040001B68FA8C9A63C82005F0F2FE7A4B1B6865
:1030500000225A63784B1B6800229A63744B1B68EA
:1030600098221A64C82005F0E3FE01220821714865
:1030700002F0B0F9002204216E4802F0ABF90122FF
:1030800010216C4802F0A6F900222021694802F0C4
:10309000A1F9694B1B68FA8C5A63674B1B68FA8C61
:1030A0009A63C82005F0C4FE634B1B6800225A6374
:1030B000614B1B6800229A63604B93ED007AD7ED59
:1030C000087A77EE677AC7ED027A97ED057AD7ED41
:1030D000037A77EE677A97ED027AB4EEE77AF1EE4B
:1030E00010FA80F23D81554BD3ED007AF5EE407A2F
:1030F000F1EE10FA00F03681642005F099FE7FE7CA
:103100004E4BD3ED007A97ED087A77EE677AC7EDEC
:10311000027A97ED047AD7ED037A77EE677A97ED26
:10312000027AB4EEE77AF1EE10FA40F18980404B72
:103130001B689B221A64C82005F07AFE0122042134
:103140003C4802F047F9002208213A4802F042F9CF
:1031500001222021374802F03DF900221021354894
:1031600002F038F9344B1B68FA8C5A63324B1B68F7
:10317000FA8C9A63C82005F05BFE2F4B1B68002277
:103180005A632D4B1B6800229A63294B1B688A22C5
:103190001A64C82005F04CFE01220821254802F0DF
:1031A00019F900220421234802F014F90122102108
:1031B000204802F00FF9002220211E4802F00AF9EF
:1031C0001D4B1B68FA8C5A631B4B1B68FA8C9A6365
:1031D000C82005F02DFE184B1B6800225A63164BC1
:1031E0001B6800229A63154BD3ED007A97ED087A9D
:1031F00077EE677AC7ED027A97ED047AD7ED037A16
:1032000077EE677A97ED027AB4EEE77AF1EE10FA8C
:1032100080F2AA80094BD3ED007AF5EE407AF1EE08
:1032200010FA00F0A380642005F002FE7FE700BFE3
:10323000EC4C002000000240304B00200C0200202B
:1032400097ED047AD7ED037A77EE277A97ED027A35
:10325000B4EEE77AF1EE10FA40F38D804E4B1B6826
:103260008A221A64C82005F0E3FD012204214B489C
:1032700002F0B0F800220821484802F0ABF8012221
:103280002021464802F0A6F800221021434802F00F
:10329000A1F8434B1B68FA8C5A63414B1B68FA8CAC
:1032A0009A63C82005F0C4FD3D4B1B6800225A6399
:1032B0003B4B1B6800229A63374B1B689B221A64A6
:1032C000C82005F0B5FD01220821344802F082F83B
:1032D00000220421314802F07DF8012210212F48FC
:1032E00002F078F8002220212C4802F073F82C4BD1
:1032F0001B68FA8C5A632A4B1B68FA8C9A63C820A5
:1033000005F096FD264B1B6800225A63244B1B6870
:1033100000229A63234BD3ED007A97ED087A77EE7B
:10332000677AC7ED027A97ED047AD7ED037A77EEE4
:10333000277A97ED027AB4EEE77AF1EE10FA17D910
:10334000184BD3ED007AF5EE407AF1EE10FA11D079
:10335000642005F06DFD81E700BF0CE000BF0AE0CE
:1033600000BF08E000BF06E000BF04E000BF02E0CD
:1033700000BF00E000BF084B1B6892221A640A4B92
:103380001B686FF001021A61084B00225A62522337
:1033900018463837BD4680BDEC4C00200000024086
:1033A000304B00200C020020584C0020000400404C
:1033B00080B586B000AF0346FB7140F6B833FB82A0
:1033C000FB79303B3B6140F2DC53FB6000212C4831
:1033D00003F0F2FC04212A4803F0EEFC0C212948FA
:1033E00003F0EAFC3C21284803F054FE3B6940F21C
:1033F000972202FB03F2FB8A11461846FFF71AF9DF
:10340000FB8A9FED220A19460020FFF773FAFB8A18
:1034100000211846FFF70EF9B860FB8A9FED1C0AE1
:1034200019460120FFF766FAFB8A40F68A711846B2
:10343000FFF700F9FB8A9FED160A19460120FFF7F6
:1034400059FABB68C3F578630A33FA689A1AFB8A9B
:1034500011461846FFF7EEF8FB8A9FED0C0A194655
:103460000020FFF747FA064B1B6800225A63044B03
:103470001B6800229A63522318461837BD4680BD48
:10348000304B0020EC4C0020584D00200000B04292
:1034900000003043F0B599B00EAF7860774E6D46BE
:1034A00006F110040FCC0FC50FCC0FC50FCC0FC504
:1034B00094E8030085E8030096E80F00FEF77AFE23
:1034C000786207F108037A6A6D49184608F0EAFD48
:1034D00007F108031A4614210A2000F081FB01229B
:1034E0006849694804F0ABFC664B1B7887F82030CC
:1034F00097F82030303B272B00F2B48001A252F81D
:1035000023F000BF59360008593600085936000824
:10351000593600085936000859360008593600084F
:103520005936000859360008593600086536000833
:1035300065360008653600086536000865360008FF
:1035400065360008653600081D3600086536000837
:10355000653600083B360008FF3500086536000870
:1035600065360008653600086536000865360008CF
:1035700065360008653600086536000865360008BF
:103580006536000865360008E13500086536000834
:10359000C335000865360008653600086536000842
:1035A000A535000801210120FEF7B4FE0346FB7794
:1035B00007F11F014FF6FF730122334804F0ADFB02
:1035C00051E001210020FEF7A5FE0346FB7707F13D
:1035D0001F014FF6FF7301222B4804F09EFB42E0CF
:1035E00001210120FFF718FA0346FB7707F11F01BD
:1035F0004FF6FF730122244804F08FFB33E00021D3
:103600000120FFF709FA0346FB7707F11F014FF688
:10361000FF7301221C4804F080FB24E001210020FC
:10362000FFF7FAF90346FB7707F11F014FF6FF7327
:103630000122154804F071FB15E000210020FFF77E
:10364000EBF90346FB7707F11F014FF6FF730122E9
:103650000D4804F062FB06E097F820301846FFF7AB
:10366000A7FE00E000BF094B13221946054808F0E9
:103670008DF8642005F0DCFB10E700BFA04C0020B3
:10368000F4E40008444D0020784B0020454D002014
:1036900080B58EB000AF78603C213A4803F0FAFC68
:1036A000384B1B685B6A7B6300F058FFF86200F0E0
:1036B00055FF0246FB6AD31AB3F57A7F5DD9314BC9
:1036C0001B685B6ABB622F4B1B681B6803F010030F
:1036D000102B10D1BA6A7B6B9A4204DA7A6BBB6A00
:1036E000D31A3B6317E0BB6AC3F57F43FF337A6BA2
:1036F00013443B630FE0BA6A7B6B9A4204DDBA6AFB
:103700007B6BD31A3B6306E07B6BC3F57F43FF33D0
:10371000BA6A13443B6307F10C033A6B1A49184623
:1037200008F0C0FC174B1B681B6803F01003102B3C
:103730000CBF01230023DBB2FB84FA8C07F10C03DE
:103740001249184608F0AEFC0E4B1B685B6A3B62E0
:1037500007F10C033A6A0E49184608F0A3FC07F17A
:103760000C031A461E210A2000F03AFA054B1B688A
:103770005B6A7B6300F0F2FEF862012005F058FB03
:1037800095E700BF584C0020FCE4000808E500085D
:1037900014E5000890B589B000AF7860194B07F1C7
:1037A0000C040FCB07C4238007F11A0300221A6010
:1037B0009A8007F10C03144A1449184608F072FC69
:1037C00007F10C031A460A210A2000F009FA104BEF
:1037D0001B681846FCF7B8FE02460B4607F10C00C2
:1037E0000C4908F05FFC07F10C031A4628210A2057
:1037F00000F0F6F900F080F84FF47A7005F018FB4D
:10380000D7E700BF28E50008444D00201CE500086C
:103810000C02002020E5000880B586B000AF78607B
:10382000FDF73EFBFDF768FB01233B6123E000F061
:1038300095FEF8602948FDF705FC0A2005F0F8FA26
:1038400000F08CFE0246FB68D31A07EE903AB8EE01
:10385000677A224BD3ED027A27EE277ADFED206AD2
:10386000C7EE267A97ED057A77EE277AC7ED057AC7
:103870003B6901333B613B69642BD8DD97ED057AE9
:10388000DFED186AC7EE267AC7ED057A00F066FE0E
:10389000F8601248FDF7D6FB0A2005F0C9FA00F0DF
:1038A0005DFE0246FB68D31A07EE903AB8EE677ADF
:1038B0000A4BD3ED027A67EE277ADFED096A87EECD
:1038C000A67AD7ED057A37EE677A074BD3ED007A03
:1038D00077EE277A044BC3ED007AD7E7B04D00208E
:1038E00000007A440000C8420C02002080B400AFFF
:1038F00072B600BFFEE7000080B582B000AF0023C3
:10390000FB7126E0FB79503BDBB20021184600F04A
:103910002BF80021002000F027F80021102000F0F3
:1039200023F80023BB710DE0BA79FB790D49D20071
:103930000A4413441B780121184600F015F8BB799E
:103940000133BB7197F90630002BEDDAFB790133B7
:10395000FB71FB79072BD5D900BF00BF0837BD46E7
:1039600080BD00BFBC4D002080B584B000AF0346D1
:103970000A46FB711346BB71BB79002B06D00122AE
:103980004FF480711C4801F025FD05E000224FF442
:103990008071194801F01EFD0023FB731EE0002218
:1039A0002021154801F016FD97F90730002B05DAA4
:1039B00001224021104801F00DFD04E000224021C9
:1039C0000D4801F007FD012220210B4801F002FD06
:1039D000FB795B00FB71FB7B0133FB73FB7B072BEC
:1039E000DDD901224FF48071034801F0F3FC00BFE0
:1039F0001037BD4680BD00BF0010024080B582B0C8
:103A000000AF0023FB7114E00023BB710AE0BA7918
:103A1000FB790C49D2000A44134400221A70BB7986
:103A20000133BB7197F90630002BF0DAFB790133D3
:103A3000FB71FB79072BE7D9FFF75EFF00BF083763
:103A4000BD4680BDBC4D002080B485B000AF0346AC
:103A5000FB710B46BB7113467B710023FB7397F917
:103A60000730002B41DBBB793F2B3ED8BB79DB080D
:103A7000DBB2C3F10703BB73BB7903F007037B73AE
:103A80007B7BC3F10703012202FA03F3FB737B790B
:103A9000002B12D0FA79BB7B1749D2000A44134499
:103AA0001878FA79BB7BF97B0143C8B21249D2007E
:103AB0000A44134402461A7018E0FA79BB7B0E4997
:103AC000D2000A4413441B785AB297F90F30DB43F3
:103AD0005BB2134059B2FA79BB7BC8B20649D20037
:103AE0000A44134402461A7000E000BF1437BD4672
:103AF0005DF8047B704700BFBC4D002090B585B0D9
:103B000000AF0446084611461A462346FB71034699
:103B1000BB710B467B7113463B71BB793B737B7961
:103B2000203B7B710023BB734DE03B790C2B0BD109
:103B30007A79B97B284813465B0013449B00034401
:103B40000B441B78FB7307E07A79BB7B2349120196
:103B50000A4413441B78FB7300237B732DE097F911
:103B60000F30002B07DA97F82020B979FB79184637
:103B7000FFF76AFF0CE097F82030002B0CBF012301
:103B80000023DBB21A46B979FB791846FFF75CFFD0
:103B9000FB7B5B00FB73BB790133BB71BA793B7B69
:103BA000D21A3B799A4205D13B7BBB71FB79013339
:103BB000FB7105E07B7B01337B737B7B072BCED9CD
:103BC000BB7B0133BB73BA7B3B799A42ADD300BF59
:103BD00000BF1437BD4690BDE4E5000858EA000870
:103BE00080B584B002AF03463A60FB710B46BB71EF
:103BF0001FE0FB797A2B04D90023FB71BB791033CA
:103C0000BB71BB793A2B05D90023FB71FB79BB71E2
:103C1000FFF7F4FE3B681A78B979F879012300932D
:103C20000C23FFF76BFFFB790833FB713B68013313
:103C30003B603B681B78002BDBD100BF00BF08371F
:103C4000BD4680BD80B500AF02F09EFB414B1B6FAF
:103C5000404A23F0010313673E4B1B6F3D4A23F09C
:103C60000403136702F0A4FB002280213A4801F00C
:103C7000B1FB642000F07EFC01228021364801F077
:103C8000A9FB0021AE20FFF76FFE0021D520FFF732
:103C90006BFE00215020FFF767FE0021A820FFF7F0
:103CA00063FE00213F20FFF75FFE0021D320FFF7D6
:103CB0005BFE00210020FFF757FE00214020FFF7A8
:103CC00053FE00218D20FFF74FFE00211420FFF747
:103CD0004BFE00212020FFF747FE00210220FFF7C6
:103CE00043FE0021A120FFF73FFE0021C020FFF787
:103CF0003BFE0021DA20FFF737FE00211220FFF7FC
:103D000033FE00218120FFF72FFE0021EF20FFF777
:103D10002BFE0021D920FFF727FE0021F120FFF71D
:103D200023FE0021DB20FFF71FFE00213020FFF7DC
:103D30001BFE0021A420FFF717FE0021A620FFF79D
:103D400013FE0021AF20FFF70FFEFFF757FE00BF65
:103D500080BD00BF003802400010024080B582B034
:103D600000AF00237B60124B5B6C114A43F480432D
:103D700053640F4B5B6C03F480437B607B680023D0
:103D80003B600B4B1B6C0A4A43F080531364084B97
:103D90001B6C03F080533B603B6800220F216FF0E7
:103DA000010001F0B2F800BF0837BD4680BD00BF7A
:103DB0000038024080B58CB000AF786007F11C037A
:103DC00000221A605A609A60DA601A617B681B6888
:103DD0002E4A934228D10023BB612D4B5B6C2C4AA9
:103DE00043F4807353642A4B5B6C03F48073BB61B0
:103DF000BB6900237B61264B1B6B254A43F0040300
:103E00001363234B1B6B03F004037B617B69022369
:103E1000FB6103233B6200237B6207F11C0319460D
:103E20001C4801F03BF92CE07B681B681A4A93425E
:103E300027D100233B61164B5B6C154A43F400739A
:103E40005364134B5B6C03F400733B613B690023C9
:103E5000FB600F4B1B6B0E4A43F0040313630C4BC8
:103E60001B6B03F00403FB60FB680423FB6103236B
:103E70003B6200237B6207F11C031946054801F0F1
:103E80000DF900BF3037BD4680BD00BF00200140A6
:103E900000380240000802400021014080B58AB08D
:103EA00000AF786007F1140300221A605A609A602C
:103EB000DA601A617B681B68194A93422CD100238F
:103EC0003B61184B1B6B174A43F002031363154BFE
:103ED0001B6B03F002033B613B694FF440737B6152
:103EE0001223BB610023FB6103233B6204237B623B
:103EF00007F1140319460C4801F0D0F80023FB60C9
:103F0000084B1B6C074A43F400131364054B1B6CEE
:103F100003F40013FB60FB6800BF2837BD4680BD7B
:103F200000540040003802400004024080B58AB0CE
:103F300000AF786007F1140300221A605A609A609B
:103F4000DA601A617B681B68234A93420ED1002312
:103F50003B61224B5B6C214A43F0010353641F4BCE
:103F60005B6C03F001033B613B6930E07B681B68DD
:103F70001B4A93422BD10023FB60184B5B6C174A02
:103F800043F002035364154B5B6C03F00203FB60C8
:103F9000FB680023BB60114B1B6B104A43F004030A
:103FA00013630E4B1B6B03F00403BB60BB68C023A1
:103FB0007B610223BB610023FB6100233B6203237F
:103FC0007B6207F114031946064801F067F800BF49
:103FD0002837BD4680BD00BF0000014000380240C8
:103FE000000401400008024080B58CB000AF78604A
:103FF00007F11C0300221A605A609A60DA601A61A5
:104000007B681B68B3F1804F4BD10023BB613F4BF2
:104010001B6C3E4A43F0010313643C4B1B6C03F0E2
:104020000103BB61BB6900237B61384B1B6B374AC3
:1040300043F001031363354B1B6B03F001037B61FA
:104040007B6900233B61314B1B6B304A43F0020319
:1040500013632E4B1B6B03F002033B613B694FF470
:104060000043FB6102233B6200237B620023BB62AF
:104070000123FB6207F11C031946254801F00EF8E5
:104080000823FB6102233B6200237B620023BB62A7
:104090000123FB6207F11C0319461E4800F0FEFFD6
:1040A00030E07B681B681C4A93422BD10023FB60E5
:1040B000164B1B6C154A43F002031364134B1B6C25
:1040C00003F00203FB60FB680023BB600F4B1B6B1C
:1040D0000E4A43F0010313630C4B1B6B03F0010307
:1040E000BB60BB68C023FB6102233B6200237B6291
:1040F0000023BB620223FB6207F11C03194604483C
:1041000000F0CCFF00BF3037BD4680BD0038024014
:1041100000000240000402400004004080B588B066
:1041200000AF786007F10C0300221A605A609A60B1
:10413000DA601A617B681B68124A93421ED1002321
:10414000BB60114B1B6B104A43F0100313630E4B03
:104150001B6B03F01003BB60BB684FF48043FB6034
:1041600002233B6100237B610023BB610123FB61D0
:1041700007F10C031946054800F090FF00BF2037F7
:10418000BD4680BD000001400038024000100240E2
:1041900080B58AB000AF786007F1140300221A607E
:1041A0005A609A60DA601A617B681B681D4A934204
:1041B00034D100233B611C4B1B6C1B4A43F480230E
:1041C0001364194B1B6C03F480233B613B69002390
:1041D000FB60154B1B6B144A43F004031363124B33
:1041E0001B6B03F00403FB60FB684FF440637B61CF
:1041F0000223BB610023FB6103233B6207237B6235
:1042000007F114031946094800F048FF0022052170
:10421000272000F07AFE272000F093FE00BF283709
:10422000BD4680BD00480040003802400008024002
:1042300080B400AFFEE780B400AFFEE780B400AF0B
:10424000FEE780B400AFFEE780B400AFFEE780B4C5
:1042500000AF00BFBD465DF8047B704780B500AF7E
:1042600000F068F906F0F2F90346012B01D006F0E0
:10427000DBFF00BF80BD000080B500AF024803F047
:104280000FFE00BF80BD00BF784B002080B400AFA0
:1042900001231846BD465DF8047B704780B582B0A7
:1042A00000AF7860396007F039FA034616221A60C9
:1042B0004FF0FF3318460837BD4680BD80B582B049
:1042C00000AF78604FF0FF317868FFF7E7FFFEE757
:1042D00080B586B000AFF860B9607A6000237B617A
:1042E0000AE0AFF300800146BB685A1CBA60CAB24C
:1042F0001A707B6901337B617A697B689A42F0DBD3
:104300007B6818461837BD4680BD80B586B000AFC3
:10431000F860B9607A6000237B6109E0BB685A1CD1
:10432000BA601B781846AFF300807B6901337B616C
:104330007A697B689A42F1DB7B6818461837BD467C
:1043400080BD80B483B000AF78604FF0FF33184673
:104350000C37BD465DF8047B704780B483B000AF76
:10436000786039603B684FF400525A600023184669
:104370000C37BD465DF8047B704780B483B000AF56
:104380007860012318460C37BD465DF8047B704702
:1043900080B485B000AFF860B9607A600023184639
:1043A0001437BD465DF8047B7047000080B586B0C9
:1043B00000AF7860144A154BD31A7B617B693B616F
:1043C000134B1B68002B02D1114B124A1A60104B81
:1043D0001A687B6813443A699A4207D207F09EF93B
:1043E00003460C221A604FF0FF3309E0084B1B68AC
:1043F000FB60074B1A687B681344054A1360FB682F
:1044000018461837BD4680BD000002200004000099
:10441000100200201052002080B400AF064BD3F8E9
:104420008830054A43F47003C2F8883000BFBD46A7
:104430005DF8047B704700BF00ED00E0DFF834D08A
:104440000D480E490E4A002302E0D458C4500433EC
:10445000C4188C42F9D30B4A0B4C002301E01360C3
:104460000432A242FBD3FFF7D7FF07F05DF9FDF757
:1044700077FA70470000022000000020E0010020D1
:1044800054F40008E001002010520020FEE7000074
:1044900080B500AF0E4B1B680D4A43F400731360E8
:1044A0000B4B1B680A4A43F480631360084B1B687C
:1044B000074A43F480731360032000F01BFD0F20B4
:1044C00000F008F8FFF74AFC0023184680BD00BF43
:1044D000003C024080B582B000AF7860124B1A6891
:1044E000124B1B7819464FF47A73B3FBF1F3B2FB0E
:1044F000F3F3184600F033FD0346002B01D00123EF
:104500000EE07B680F2B0AD8002279684FF0FF304D
:1045100000F0FBFC064A7B681360002300E00123E7
:1045200018460837BD4680BD000000200800002066
:104530000400002080B400AF064B1B781A46064BDF
:104540001B681344044A136000BFBD465DF8047B3A
:10455000704700BF08000020BC51002080B400AFAD
:10456000034B1B681846BD465DF8047B704700BFCF
:10457000BC51002080B584B000AF7860FFF7EEFF3B
:10458000B8607B68FB60FB68B3F1FF3F05D00A4B66
:104590001B781A46FB681344FB6000BFFFF7DEFF81
:1045A0000246BB68D31AFA689A42F7D800BF00BF28
:1045B0001037BD4680BD00BF0800002080B584B024
:1045C00000AF78600023FB737B68002B01D10123CF
:1045D00033E07B681B6C002B09D17868FFF7EAFB9E
:1045E0007B6800225A647B68002283F83C207B6849
:1045F0001B6C03F01003002B18D17B681B6C23F499
:10460000885323F0020343F002027B681A6478683F
:1046100000F0A4FA7B6800225A647B681B6C23F0CC
:10462000030343F001027B681A6401E00123FB737A
:104630007B68002283F83C20FB7B18461037BD4680
:1046400080BD000080B485B000AF78600023BB60FF
:104650007B6893F83C30012B01D10223B2E07B68E8
:10466000012283F83C207B681B689B6803F00103F0
:10467000012B18D07B681B689A687B681B6842F026
:1046800001029A60524B1B68524AA2FB03239A0C08
:1046900013465B001344BB6002E0BB68013BBB6098
:1046A000BB68002BF9D17B681B689B6803F0010392
:1046B000012B7AD17B681B6C23F4E06323F00103A8
:1046C00043F480727B681A647B681B685B6803F440
:1046D0008063002B07D07B681B6C23F4405343F4AA
:1046E00080527B681A647B681B6C03F48053B3F5BB
:1046F000805F06D17B685B6C23F006027B685A649E
:1047000002E07B6800225A647B68002283F83C2028
:10471000314BFB607B681B686FF022021A60FB68FC
:104720005B6803F01F03002B2AD17B681B682B4AB0
:10473000934215D07B681B68294A934205D1264BCA
:104740005B6803F01F03002B0AD07B681B68254AB7
:10475000934236D1204B5B6803F01003002B30D11D
:104760007B681B689B6803F04053002B29D17B6852
:104770001B689A687B681B6842F080429A6020E060
:104780007B681B68154A93421BD17B681B689B683A
:1047900003F04053002B14D17B681B689A687B6838
:1047A0001B6842F080429A600BE07B681B6C43F010
:1047B00010027B681A647B685B6C43F001027B68C3
:1047C0005A64002318461437BD465DF8047B7047D1
:1047D0000000002083DE1B43002301400020014035
:1047E000002101400022014080B584B000AF786014
:1047F00039600023FB607B681B689B6803F480635F
:10480000B3F5806F13D17B681B689B6803F48073DA
:10481000B3F5807F0BD17B681B6C43F020027B6873
:104820001A647B68002283F83C20012363E0FFF7D1
:1048300095FEF86021E03B68B3F1FF3F1DD03B6877
:10484000002B07D0FFF78AFE0246FB68D31A3A68AE
:104850009A4212D27B681B681B6803F00203022B8A
:104860000BD07B681B6C43F004027B681A647B6886
:10487000002283F83C2003233DE07B681B681B6813
:1048800003F00203022BD6D17B681B686FF0120283
:104890001A607B681B6C43F400727B681A647B6847
:1048A0001B689B6803F04053002B23D17B681B7E61
:1048B000002B1FD17B681B68DB6A03F47003002B9D
:1048C00006D07B681B689B6803F48063002B11D1C2
:1048D0007B681B6C23F480727B681A647B681B6C9A
:1048E00003F48053002B05D17B681B6C43F001025D
:1048F0007B681A64002318461037BD4680BD80B41B
:1049000083B000AF78607B681B68DB6C18460C379F
:10491000BD465DF8047B704780B485B000AF786019
:1049200039600023BB607B6893F83C30012B01D1D8
:10493000022305E17B68012283F83C203B681B6869
:10494000092B25D97B681B68D9683B681B689BB21B
:104950001A4613465B0013441E3B072202FA03F378
:10496000DA437B681B680A40DA607B681B68D96899
:104970003B689A683B681B689BB2184603465B001D
:1049800003441E3B9A407B681B680A43DA6022E0BE
:104990007B681B6819693B681B689BB21A46134603
:1049A0005B001344072202FA03F3DA437B681B68B7
:1049B0000A401A617B681B6819693B689A683B6802
:1049C0001B689BB2184603465B0003449A407B6811
:1049D0001B680A431A613B685B68062B24D87B6816
:1049E0001B68596B3B685A6813469B001344053B90
:1049F0001F2202FA03F3DA437B681B680A405A63FA
:104A00007B681B68596B3B681B689BB218463B6808
:104A10005A6813469B001344053B00FA03F27B6877
:104A20001B680A435A634CE03B685B680C2B24D834
:104A30007B681B68196B3B685A6813469B001344DC
:104A4000233B1F2202FA03F3DA437B681B680A4008
:104A50001A637B681B68196B3B681B689BB218461E
:104A60003B685A6813469B001344233B00FA03F249
:104A70007B681B680A431A6323E07B681B68D96A5A
:104A80003B685A6813469B001344413B1F2202FABD
:104A900003F3DA437B681B680A40DA627B681B68B1
:104AA000D96A3B681B689BB218463B685A68134634
:104AB0009B001344413B00FA03F27B681B680A43E6
:104AC000DA62224BFB607B681B68214A934209D162
:104AD0003B681B68122B05D1FB685B6843F48002BE
:104AE000FB685A607B681B68194A934223D13B6874
:104AF0001B68102B03D03B681B68112B1BD1FB6874
:104B00005B6843F40002FB685A603B681B68102B2B
:104B100011D1104B1B68104AA2FB03239A0C1346B9
:104B20009B0013445B00BB6002E0BB68013BBB60C1
:104B3000BB68002BF9D17B68002283F83C2000235E
:104B400018461437BD465DF8047B704700230140CA
:104B5000002001400000002083DE1B4380B485B0AC
:104B600000AF7860794BFB60FB685B6823F44032F0
:104B7000FB685A60FB685A687B685B681A43FB688D
:104B80005A607B681B685A687B681B6822F48072D5
:104B90005A607B681B6859687B681B691A027B68CE
:104BA0001B680A435A607B681B685A687B681B68ED
:104BB00022F040725A607B681B6859687B689A686B
:104BC0007B681B680A435A607B681B689A687B682D
:104BD0001B6822F400629A607B681B6899687B6896
:104BE000DA687B681B680A439A607B689B6A584A4C
:104BF000934222D07B681B689A687B681B6822F00E
:104C000070629A607B681B6899687B689A6A7B68A7
:104C10001B680A439A607B681B689A687B681B68FC
:104C200022F040529A607B681B6899687B68DA6A58
:104C30007B681B680A439A600FE07B681B689A6870
:104C40007B681B6822F070629A607B681B689A68B8
:104C50007B681B6822F040529A607B681B689A68E8
:104C60007B681B6822F002029A607B681B68996867
:104C70007B681B7E5A007B681B680A439A607B68CE
:104C800093F82030002B1BD07B681B685A687B6828
:104C90001B6842F400625A607B681B685A687B6834
:104CA0001B6822F460425A607B681B6859687B6805
:104CB0005B6A013B5A037B681B680A435A6007E042
:104CC0007B681B685A687B681B6822F400625A6024
:104CD0007B681B68DA6A7B681B6822F47002DA6200
:104CE0007B681B68D96A7B68DB69013B1A057B68B6
:104CF0001B680A43DA627B681B689A687B681B68DA
:104D000022F400729A607B681B6899687B6893F84C
:104D100030305A027B681B680A439A607B681B68C4
:104D20009A687B681B6822F480629A607B681B68C3
:104D300099687B685B699A027B681B680A439A6082
:104D400000BF1437BD465DF8047B70470023014067
:104D50000100000F80B485B000AF78607B6803F07D
:104D60000703FB600C4BDB68BB60BA684FF6FF03C0
:104D70001340BB60FB681A02BB68134343F0BF6378
:104D800043F40033BB60044ABB68D36000BF1437F0
:104D9000BD465DF8047B704700ED00E080B400AFD5
:104DA000044BDB681B0A03F007031846BD465DF899
:104DB000047B704700ED00E080B483B000AF034691
:104DC000FB7197F90730002B0BDBFB7903F01F0217
:104DD000074997F907305B09012000FA02F241F810
:104DE000232000BF0C37BD465DF8047B704700BF31
:104DF00000E100E080B483B000AF03463960FB718E
:104E000097F90730002B0ADB3B68DAB20C4997F9B7
:104E100007301201D2B20B4483F800230AE03B684A
:104E2000DAB20849FB7903F00F03043B1201D2B256
:104E30000B441A7600BF0C37BD465DF8047B704703
:104E400000E100E000ED00E080B489B000AFF86060
:104E5000B9607A60FB6803F00703FB61FB69C3F18B
:104E60000703042B28BF0423BB61FB690433062B13
:104E700002D9FB69033B00E000237B614FF0FF3266
:104E8000BB6902FA03F3DA43BB681A407B699A40B4
:104E90004FF0FF317B6901FA03F3D9437B680B4084
:104EA000134318462437BD465DF8047B7047000065
:104EB00080B582B000AF78607B68013BB3F1807F42
:104EC00001D301230FE00A4A7B68013B53600F21A5
:104ED0004FF0FF30FFF78EFF054B00229A60044B26
:104EE00007221A60002318460837BD4680BD00BF60
:104EF00010E000E080B582B000AF78607868FFF71E
:104F000029FF00BF0837BD4680BD80B586B000AF21
:104F10000346B9607A60FB7300237B61FFF73EFFB5
:104F200078617A68B9687869FFF78EFF024697F969
:104F30000F3011461846FFF75DFF00BF1837BD461A
:104F400080BD80B582B000AF0346FB7197F9073092
:104F50001846FFF731FF00BF0837BD4680BD80B55A
:104F600082B000AF78607868FFF7A2FF034618466A
:104F70000837BD4680BD80B584B000AF78607B68DF
:104F80009B6DFB60FFF7EAFAB8607B6893F83530F9
:104F9000DBB2022B08D07B6880225A657B68002236
:104FA00083F83420012352E07B681B681A687B6811
:104FB0001B6822F016021A607B681B685A697B68BE
:104FC0001B6822F080025A617B681B6C002B03D1A6
:104FD0007B689B6C002B07D07B681B681A687B681A
:104FE0001B6822F008021A607B681B681A687B68DD
:104FF0001B6822F001021A6013E0FFF7AFFA0246C5
:10500000BB68D31A052B0CD97B6820225A657B68B4
:10501000032283F835207B68002283F834200323A1
:1050200015E07B681B681B6803F00103002BE4D1CB
:105030007B68DB6D3F229A40FB689A607B680122A7
:1050400083F835207B68002283F83420002318463B
:105050001037BD4680BD80B483B000AF78607B68F8
:1050600093F83530DBB2022B04D07B6880225A657E
:1050700001230CE07B68052283F835207B681B68E0
:105080001A687B681B6822F001021A600023184628
:105090000C37BD465DF8047B7047000080B489B0D2
:1050A00000AF7860396000237B6100233B610023FF
:1050B000BB610023FB616BE10122FB6902FA03F390
:1050C0007B613B681B687A6913403B613A697B6985
:1050D0009A4240F05A813B685B6803F00303012B5E
:1050E00005D03B685B6803F00303022B30D17B687B
:1050F0009B68BB61FB695B00032202FA03F3DB439D
:10510000BA691340BB613B68DA68FB695B0002FA6D
:1051100003F3BA691343BB617B68BA699A607B6821
:105120005B68BB610122FB6902FA03F3DB43BA69E6
:105130001340BB613B685B681B0903F00102FB691C
:1051400002FA03F3BA691343BB617B68BA695A6018
:105150003B685B6803F00303032B17D07B68DB68B5
:10516000BB61FB695B00032202FA03F3DB43BA690C
:105170001340BB613B689A68FB695B0002FA03F36A
:10518000BA691343BB617B68BA69DA603B685B68E4
:1051900003F00303022B23D1FB69DA087B68083292
:1051A00053F82230BB61FB6903F007039B000F2219
:1051B00002FA03F3DB43BA691340BB613B681A6927
:1051C000FB6903F007039B0002FA03F3BA69134378
:1051D000BB61FB69DA087B680832B96943F82210C1
:1051E0007B681B68BB61FB695B00032202FA03F367
:1051F000DB43BA691340BB613B685B6803F00302A1
:10520000FB695B0002FA03F3BA691343BB617B6875
:10521000BA691A603B685B6803F44033002B00F006
:10522000B4800023FB60604B5B6C5F4A43F48043B7
:1052300053645D4B5B6C03F48043FB60FB685B4A2B
:10524000FB699B08023352F82330BB61FB6903F012
:1052500003039B000F2202FA03F3DB43BA691340F6
:10526000BB617B68524A93422BD07B68514A934280
:1052700025D07B68504A93421FD07B684F4A9342A7
:1052800019D07B684E4A934213D07B684D4A9342B3
:105290000DD07B684C4A934207D07B684B4A9342BF
:1052A00001D107230EE008230CE006230AE00523C2
:1052B00008E0042306E0032304E0022302E00123C4
:1052C00000E00023FA6902F0030292009340BA69F9
:1052D0001343BB613549FB699B080233BA6941F846
:1052E00023203B4B1B68BB613B69DB43BA6913401E
:1052F000BB613B685B6803F48033002B03D0BA6961
:105300003B691343BB61324ABB691360304B5B6836
:10531000BB613B69DB43BA691340BB613B685B68B7
:1053200003F40033002B03D0BA693B691343BB611C
:10533000274ABB695360264B9B68BB613B69DB43D3
:10534000BA691340BB613B685B6803F48013002BB0
:1053500003D0BA693B691343BB611D4ABB699360C3
:105360001B4BDB68BB613B69DB43BA691340BB6124
:105370003B685B6803F40013002B03D0BA693B69F8
:105380001343BB61124ABB69D360FB690133FB6104
:10539000FB690F2B7FF690AE00BF00BF2437BD46E0
:1053A0005DF8047B704700BF0038024000380140C0
:1053B000000002400004024000080240000C0240CD
:1053C000001002400014024000180240001C02407D
:1053D000003C014080B483B000AF78600B467B8016
:1053E00013467B707B78002B03D07A887B689A61A8
:1053F00003E07B881A047B689A6100BF0C37BD46C6
:105400005DF8047B7047000080B584B000AF786021
:105410007B68002B01D101232BE17B6893F83D30A1
:10542000DBB2002B06D17B68002283F83C20786831
:10543000FEF734FD7B68242283F83D207B681B68DF
:105440001A687B681B6822F001021A607B681B687F
:105450001A687B681B6842F400421A607B681B680C
:105460001A687B681B6822F400421A6001F0D4FBC2
:10547000F8607B685B68814A934207D8FB68804A82
:10548000934294BF01230023DBB206E0FB687D4A10
:10549000934294BF01230023DBB2002B01D00123F0
:1054A000E7E0FB68784AA2FB03239B0CBB607B68A8
:1054B0001B685B6823F03F017B681B68BA680A437E
:1054C0005A607B681B681B6A23F03F017B685B683E
:1054D0006A4A934202D8BB68013309E0BB684FF4C3
:1054E000967202FB03F3694AA2FB03239B09013373
:1054F0007A6812680B4313627B681B68DB6923F4CC
:105500004F4222F0FF027B685B685C498B4219D8EE
:10551000FB68591E7B685B685B00B1FBF3F3591CA9
:1055200040F6FC730B40002B0AD0FB68591E7B68C9
:105530005B685B00B1FBF3F30133C3F30B0351E092
:1055400004234FE07B689B68002B11D1FB68581E39
:105550007B6859680B465B000B44B0FBF3F30133E7
:10556000C3F30B03002B0CBF01230023DBB212E0BB
:10557000FB68581E7B6859680B469B000B449900DA
:105580000B44B0FBF3F30133C3F30B03002B0CBF4D
:1055900001230023DBB2002B01D0012322E07B6832
:1055A0009B68002B0ED1FB68581E7B6859680B4620
:1055B0005B000B44B0FBF3F30133C3F30B0343F481
:1055C00000430FE0FB68581E7B6859680B469B0040
:1055D0000B4499000B44B0FBF3F30133C3F30B030B
:1055E00043F44043796809681343CB617B681B68C7
:1055F0001B6823F0C0017B68DA697B681B6A1A4369
:105600007B681B680A431A607B681B689B6823F4ED
:10561000034323F0FF037A6811697A68D268114363
:105620007A6812680B4393607B681B68DB6823F021
:10563000FF017B685A697B689B691A437B681B681A
:105640000A43DA607B681B681A687B681B6842F053
:1056500001021A607B6800221A647B68202283F8AA
:105660003D207B6800221A637B68002283F83E207D
:10567000002318461037BD4680BD00BFA08601003C
:105680007F841E00FF083D0083DE1B43D34D621064
:1056900080B588B002AFF860084611461A46034646
:1056A0007B810B463B811346FB80FEF757FF7861F9
:1056B000FB6893F83D30DBB2202B40F0D9807B694A
:1056C0000093192301226D49F86800F07FFC03461E
:1056D000002B01D00223CCE0FB6893F83C30012B77
:1056E00001D10223C5E0FB68012283F83C20FB685E
:1056F0001B681B6803F00103012B07D0FB681B68C4
:105700001A68FB681B6842F001021A60FB681B689C
:105710001A68FB681B6822F400621A60FB68212289
:1057200083F83D20FB68402283F83E20FB6800227E
:105730001A64FB683A6A5A62FB68BA8C5A85FB683D
:105740005B8D9AB2FB681A85FB684D4ADA62F8886D
:105750003A8979897B690193BB6A00930346F868AB
:1057600000F0B6FA0346002B52D0012381E07A699B
:10577000B96AF86800F000FD0346002B0DD0FB6805
:105780001B6C042B07D1FB681B681A68FB681B683D
:1057900042F400721A6001236BE0FB685B6A1A78BE
:1057A000FB681B681A61FB685B6A5A1CFB685A62DB
:1057B000FB681B8D013B9AB2FB681A85FB685B8D09
:1057C0009BB2013B9AB2FB685A85FB681B685B6918
:1057D00003F00403042B1BD1FB681B8D002B17D097
:1057E000FB685B6A1A78FB681B681A61FB685B6A76
:1057F0005A1CFB685A62FB681B8D013B9AB2FB681E
:105800001A85FB685B8D9BB2013B9AB2FB685A8597
:10581000FB681B8D002BAAD17A69B96AF86800F081
:10582000ECFC0346002B0DD0FB681B6C042B07D14E
:10583000FB681B681A68FB681B6842F400721A60F8
:10584000012316E0FB681B681A68FB681B6842F4BA
:1058500000721A60FB68202283F83D20FB6800225A
:1058600083F83E20FB68002283F83C20002300E000
:10587000022318461837BD4680BD00BF0200100045
:105880000000FFFF80B58CB002AFF86008461146FB
:105890001A4603467B810B463B811346FB80FEF78D
:1058A0005DFE7862FB6893F83D30DBB2202B40F060
:1058B00008827B6A0093192301227B49F86800F073
:1058C00085FB0346002B01D00223FBE1FB6893F824
:1058D0003C30012B01D10223F4E1FB68012283F863
:1058E0003C20FB681B681B6803F00103012B07D0F9
:1058F000FB681B681A68FB681B6842F001021A60AB
:10590000FB681B681A68FB681B6822F400621A6057
:10591000FB68222283F83D20FB68402283F83E206A
:10592000FB6800221A64FB683A6B5A62FB68BA8E05
:105930005A85FB685B8D9AB2FB681A85FB685B4AE7
:10594000DA62F8883A8979897B6A0193BB6B0093A4
:105950000346F86800F052FA0346002B01D00123F9
:10596000B0E1FB681B8D002B13D100233B62FB6869
:105970001B685B693B62FB681B689B693B623B6A17
:10598000FB681B681A68FB681B6842F400721A60A7
:1059900084E1FB681B8D012B1BD1FB681B681A6817
:1059A000FB681B6822F480621A600023FB61FB68BD
:1059B0001B685B69FB61FB681B689B69FB61FB699A
:1059C000FB681B681A68FB681B6842F400721A6067
:1059D00064E1FB681B8D022B1BD1FB681B681A68F6
:1059E000FB681B6822F480621A60FB681B681A68F7
:1059F000FB681B6842F400621A600023BB61FB680D
:105A00001B685B69BB61FB681B689B69BB61BB6909
:105A100044E100237B61FB681B685B697B61FB6879
:105A20001B689B697B617B6938E1FB681B8D032BDD
:105A300000F2F180FB681B8D012B23D17A6AB96BD0
:105A4000F86800F01BFC0346002B01D0012339E16C
:105A5000FB681B681A69FB685B6AD2B21A70FB6844
:105A60005B6A5A1CFB685A62FB681B8D013B9AB249
:105A7000FB681A85FB685B8D9BB2013B9AB2FB68A1
:105A80005A850BE1FB681B8D022B4ED17B6A00937C
:105A9000BB6B00220649F86800F098FA0346002B19
:105AA00008D001230EE100BF020010000000FFFF3C
:105AB00004000100FB681B681A68FB681B6842F45D
:105AC00000721A60FB681B681A69FB685B6AD2B2D5
:105AD0001A70FB685B6A5A1CFB685A62FB681B8D74
