:020000040800F2
:1000000000000220A1310008B1300008B330000820
:10001000B5300008B7300008B93000080000000013
:10002000000000000000000000000000C16E000899
:10003000BB30000800000000516F0008BD30000810
:10004000F1310008F1310008F1310008F131000808
:10005000F1310008F1310008F1310008F1310008F8
:10006000F1310008F1310008F1310008F1310008E8
:10007000F1310008F1310008F1310008F1310008D8
:10008000F1310008F1310008F1310008F1310008C8
:10009000F1310008F1310008F1310008F1310008B8
:1000A000F1310008F1310008F1310008F1310008A8
:1000B000F1310008F1310008F1310008F131000898
:1000C000F1310008F1310008F1310008F131000888
:1000D000F1310008F1310008F1310008D530000895
:1000E000F1310008F1310008F1310008F131000868
:1000F000F1310008F1310008F1310008F131000858
:10010000F1310008F1310008F1310008F131000847
:10011000F1310008F1310008F1310008F131000837
:10012000F1310008F1310008F1310008F131000827
:10013000F1310008F1310008F1310008F131000817
:10014000F1310008F1310008F1310008F131000807
:10015000F1310008F1310008F1310008F1310008F7
:10016000F1310008F1310008F1310008F1310008E7
:10017000F1310008F1310008F13100080000000001
:08018000F1310008F131000823
:1001900010B5054C237833B9044B13B10448AFF3C1
:1001A00000800123237010BDE0010020000000004A
:1001B000FCA0000808B5034B1BB103490348AFF38B
:1001C000008008BD00000000E4010020FCA0000841
:1001D000034613F8012B002AFBD1181A0138704787
:1001E00001F0FF01102A2BDB10F0070F08D010F8E8
:1001F000013B013A8B422DD010F0070F42B3F6D1EC
:10020000F0B441EA012141EA014122F007047FF004
:1002100000070023F0E80256083C85EA010586EA5B
:10022000010685FA47F5A3FA87F586FA47F6A5FA97
:1002300087F68EB9EED1F0BC01F0FF0102F00702A3
:1002400032B110F8013B013A83EA010313B1F8D14E
:100250000020704701387047002D06BF354603382F
:10026000073815F0010F07D1013015F4807F02BF68
:10027000013015F4C03F0130F0BC0138704700BFB9
:1002800081F0004102E000BF83F0004330B54FEA47
:1002900041044FEA430594EA050F08BF90EA020FB4
:1002A0001FBF54EA000C55EA020C7FEA645C7FEA47
:1002B000655C00F0E2804FEA5454D4EB5555B8BF6A
:1002C0006D420CDD2C4480EA020281EA030382EADB
:1002D000000083EA010180EA020281EA0303362D6D
:1002E00088BF30BD11F0004F4FEA01314FF4801C40
:1002F0004CEA113102D0404261EB410113F0004F52
:100300004FEA03334CEA133302D0524263EB430308
:1003100094EA050F00F0A780A4F10104D5F1200EA6
:100320000DDB02FA0EFC22FA05F2801841F1000101
:1003300003FA0EF2801843FA05F359410EE0A5F1D5
:1003400020050EF1200E012A03FA0EFC28BF4CF006
:10035000020C43FA05F3C01851EBE37101F00045BC
:1003600007D54FF0000EDCF1000C7EEB00006EEBC9
:100370000101B1F5801F1BD3B1F5001F0CD3490853
:100380005FEA30004FEA3C0C04F101044FEA4452AA
:1003900012F5800F80F09A80BCF1004F08BF5FEA31
:1003A000500C50F1000041EB045141EA050130BD11
:1003B0005FEA4C0C404141EB0101013C28BFB1F523
:1003C000801FE9D291F0000F04BF01460020B1FA6E
:1003D00081F308BF2033A3F10B03B3F120020CDA41
:1003E0000C3208DD02F1140CC2F10C0201FA0CF01F
:1003F00021FA02F10CE002F11402D8BFC2F1200C84
:1004000001FA02F120FA0CFCDCBF41EA0C01904039
:10041000E41AA2BF01EB0451294330BD6FEA040482
:100420001F3C1CDA0C340EDC04F11404C4F120026D
:1004300020FA04F001FA02F340EA030021FA04F37F
:1004400045EA030130BDC4F10C04C4F1200220FAD6
:1004500002F001FA04F340EA0300294630BD21FA14
:1004600004F0294630BD94F0000F83F4801306BFDA
:1004700081F480110134013D4EE77FEA645C18BFCE
:100480007FEA655C29D094EA050F08BF90EA020F65
:1004900005D054EA000C04BF1946104630BD91EA5D
:1004A000030F1EBF0021002030BD5FEA545C05D160
:1004B0004000494128BF41F0004130BD14F580049F
:1004C0003CBF01F5801130BD01F0004545F0FE4113
:1004D00041F470014FF0000030BD7FEA645C1ABF48
:1004E000194610467FEA655C1CBF0B46024650EA7F
:1004F000013406BF52EA033591EA030F41F40021AB
:1005000030BD00BF90F0000F04BF0021704730B530
:100510004FF4806404F132044FF000054FF0000105
:1005200050E700BF90F0000F04BF0021704730B5C6
:100530004FF4806404F1320410F0004548BF40429B
:100540004FF000013EE700BF42004FEAE2014FEAF0
:1005500031014FEA02701FBF12F07F4393F07F4FCB
:1005600081F06051704732F07F4208BF704793F0CE
:100570007F4F04BF41F40021704730B54FF46074E1
:1005800001F0004521F000411CE700BF50EA0102E4
:1005900008BF704730B54FF000050AE050EA01028D
:1005A00008BF704730B511F0004502D5404261EBFD
:1005B00041014FF4806404F132045FEA915C3FF43E
:1005C000D8AE4FF003025FEADC0C18BF03325FEADB
:1005D000DC0C18BF033202EBDC02C2F1200300FA8C
:1005E00003FC20FA02F001FA03FE40EA0E0021FAB1
:1005F00002F11444BDE600BF70B54FF0FF0C4CF49F
:10060000E06C1CEA11541DBF1CEA135594EA0C0F50
:1006100095EA0C0F00F0DEF82C4481EA030621EA8B
:100620004C5123EA4C5350EA013518BF52EA0335C6
:1006300041F4801143F4801338D0A0FB02CE4FF078
:100640000005E1FB02E506F00042E0FB03E54FF0A8
:100650000006E1FB03569CF0000F18BF4EF0010EA0
:10066000A4F1FF04B6F5007F64F5407404D25FEA9C
:100670004E0E6D4146EB060642EAC62141EA55514F
:100680004FEAC52040EA5E504FEACE2EB4F1FD0C91
:1006900088BFBCF5E06F1ED8BEF1004F08BF5FEA0F
:1006A000500E50F1000041EB045170BD06F00046C1
:1006B00046EA010140EA020081EA0301B4EB5C046E
:1006C000C2BFD4EB0C0541EA045170BD41F4801166
:1006D0004FF0000E013C00F3AB8014F1360FDEBF8B
:1006E000002001F0004170BDC4F10004203C35DA67
:1006F0000C341BDC04F11404C4F1200500FA05F3EA
:1007000020FA04F001FA05F240EA020001F000428A
:1007100021F0004110EBD37021FA04F642EB060100
:100720005EEA430E08BF20EAD37070BDC4F10C042A
:10073000C4F1200500FA04F320FA05F001FA04F2EE
:1007400040EA020001F0004110EBD37041F10001DA
:100750005EEA430E08BF20EAD37070BDC4F12005E5
:1007600000FA05F24EEA020E20FA04F301FA05F24D
:1007700043EA020321FA04F001F0004121FA04F2F5
:1007800020EA020000EBD3705EEA430E08BF20EAC5
:10079000D37070BD94F0000F0FD101F000464000FF
:1007A00041EB010111F4801F08BF013CF7D041EA81
:1007B000060195F0000F18BF704703F00046520085
:1007C00043EB030313F4801F08BF013DF7D043EA56
:1007D0000603704794EA0C0F0CEA135518BF95EA0C
:1007E0000C0F0CD050EA410618BF52EA4306D1D193
:1007F00081EA030101F000414FF0000070BD50EAB2
:10080000410606BF1046194652EA430619D094EA3B
:100810000C0F02D150EA013613D195EA0C0F05D125
:1008200052EA03361CBF104619460AD181EA030179
:1008300001F0004141F0FE4141F470014FF0000031
:1008400070BD41F0FE4141F4780170BD70B54FF0CC
:10085000FF0C4CF4E06C1CEA11541DBF1CEA13554C
:1008600094EA0C0F95EA0C0F00F0A7F8A4EB05042E
:1008700081EA030E52EA03354FEA013100F0888025
:100880004FEA03334FF0805545EA131343EA1263EE
:100890004FEA022245EA111545EA10654FEA0026A3
:1008A0000EF000419D4208BF964244F1FD0404F55C
:1008B000407402D25B084FEA3202B61A65EB0305B8
:1008C0005B084FEA32024FF480104FF4002CB6EB75
:1008D000020E75EB030E22BFB61A754640EA0C00F5
:1008E0005B084FEA3202B6EB020E75EB030E22BF35
:1008F000B61A754640EA5C005B084FEA3202B6EB76
:10090000020E75EB030E22BFB61A754640EA9C0034
:100910005B084FEA3202B6EB020E75EB030E22BF04
:10092000B61A754640EADC0055EA060E18D04FEAC2
:10093000051545EA16754FEA06164FEAC30343EA62
:1009400052734FEAC2025FEA1C1CC0D111F4801F2F
:100950000BD141EA00014FF000004FF0004CB6E728
:1009600011F4801F04BF01430020B4F1FD0C88BFC7
:10097000BCF5E06F3FF6AFAEB5EB030C04BFB6EBD2
:10098000020C5FEA500C50F1000041EB045170BDC5
:100990000EF0004E4EEA113114EB5C04C2BFD4EBF2
:1009A0000C0541EA045170BD41F480114FF0000E76
:1009B000013C90E645EA060E8DE60CEA135594EAF2
:1009C0000C0F08BF95EA0C0F3FF43BAF94EA0C0FF5
:1009D0000AD150EA01347FF434AF95EA0C0F7FF46A
:1009E00025AF104619462CE795EA0C0F06D152EABE
:1009F00003353FF4FDAE1046194622E750EA4106A2
:100A000018BF52EA43067FF4C5AE50EA41047FF4B2
:100A10000DAF52EA43057FF4EBAE12E74FF0FF3C17
:100A200006E000BF4FF0010C02E000BF4FF0010CE8
:100A30004DF804CD4FEA410C7FEA6C5C4FEA430C61
:100A400018BF7FEA6C5C1BD001B050EA410C0CBFB0
:100A500052EA430C91EA030F02BF90EA020F002012
:100A6000704710F1000F91EA030F58BF994208BF79
:100A700090422CBFD8176FEAE37040F00100704736
:100A80004FEA410C7FEA6C5C02D150EA013C07D18D
:100A90004FEA430C7FEA6C5CD6D152EA033CD3D0D8
:100AA0005DF8040B704700BF8446104662468C46D2
:100AB0001946634600E000BF01B5FFF7B7FF002805
:100AC00048BF10F1000F01BD4DF808EDFFF7F4FF2E
:100AD0000CBF012000205DF808FB00BF4DF808EDB9
:100AE000FFF7EAFF34BF012000205DF808FB00BFDC
:100AF0004DF808EDFFF7E0FF94BF012000205DF8FE
:100B000008FB00BF4DF808EDFFF7CEFF94BF0120B2
:100B100000205DF808FB00BF4DF808EDFFF7C4FFAB
:100B200034BF012000205DF808FB00BF4FEA410CF4
:100B30007FEA6C5C02D150EA013C0AD14FEA430CD7
:100B40007FEA6C5C02D152EA033C02D14FF0000014
:100B500070474FF0010070474FEA410212F5001252
:100B600015D211D56FF47873B3EB625212D94FEAF4
:100B7000C12343F0004343EA505311F0004F23FADE
:100B800002F018BF404270474FF00000704750EA33
:100B9000013005D111F0004008BF6FF000407047F0
:100BA0004FF00000704700BF4FEA4102B2F1E0434E
:100BB00024BFB3F5001CDCF1FE5C0DD901F0004C44
:100BC0004FEAC0024CEA5070B2F1004F40EB830094
:100BD00008BF20F00100704711F0804F21D113F1C0
:100BE0003872BCBF01F00040704741F480114FEAF9
:100BF0005252C2F11802C2F1200C10FA0CF320FA82
:100C000002F018BF40F001004FEAC1234FEAD3239E
:100C100003FA0CFC40EA0C0023FA02F34FEA430308
:100C2000CCE77FEA625307D150EA01331EBF4FF091
:100C3000FE4040F44000704701F0004040F0FE40AC
:100C400040F40000704700BF53B94AB9002908BFFB
:100C500000281CBF4FF0FF314FF0FF3000F06EB99D
:100C6000ADF1080C6DE904CE00F006F8DDF804E003
:100C7000DDE9022304B070472DE9F047089D0446E2
:100C80008C46002B40F083808A42174647D9B2FA3F
:100C900082F242B1C2F1200024FA00F09140974064
:100CA00040EA010C94404FEA1748230CBCFBF8F6CD
:100CB0001FFA87FE08FB16C143EA014306FB0EF14B
:100CC000994209D9FB1806F1FF3080F01981994249
:100CD00040F21681023E3B445B1AA4B2B3FBF8F02B
:100CE00008FB103344EA034400FB0EFEA64509D975
:100CF0003C1900F1FF3380F00581A64540F20281E6
:100D000002383C4440EA0640A4EB0E0400261DB124
:100D1000D4400023C5E900433146BDE8F08702B95D
:100D2000FFDEB2FA82F2002A50D1CB1B4FEA174EF7
:100D30001FFA87F80126B3FBFEFC210C0EFB1C33C7
:100D400041EA034108FB0CF38B4207D979180CF1F7
:100D5000FF3002D28B4200F2E9808446C91AA3B266
:100D6000B1FBFEF00EFB101143EA014408FB00F852
:100D7000A04507D93C1900F1FF3302D2A04500F28B
:100D8000D9801846A4EB080440EA0C40BFE78B4228
:100D900009D9002D00F0B1800026C5E900013046D8
:100DA0003146BDE8F087B3FA83F6002E4AD18B4274
:100DB00002D3824200F2B880841A61EB0301012061
:100DC0008C46002DA8D0C5E9004CA5E7C2F1200350
:100DD00020FA03F6974001FA02F04FEA174ED94085
:100DE0003043030CB1FBFEF61FFA87F80EFB161119
:100DF00043EA014306FB08F1994204FA02F409D9D7
:100E0000FB1806F1FF3C80F08D80994240F28A8009
:100E1000023E3B445B1A81B2B3FBFEF00EFB103383
:100E200041EA034100FB08F38B4207D9791800F12E
:100E3000FF3C73D28B4271D902383944CB1A40EA55
:100E4000064678E7C6F1200C03FA06F422FA0CF302
:100E50001C4320FA0CF701FA06F34FEA144E21FA6C
:100E60000CF11F433B0CB1FBFEF91FFA84F80EFB9B
:100E7000191143EA014109FB08FA8A4502FA06F210
:100E800000FA06F308D9611809F1FF3048D28A4503
:100E900046D9A9F102092144A1EB0A01BFB2B1FB75
:100EA000FEF00EFB101147EA014700FB08F8B845B9
:100EB00007D9E71900F1FF312ED2B8452CD90238F5
:100EC000274440EA0940A7EB0807A0FB02894F45E9
:100ED000C64649461AD317D05DB1B3EB0E0267EB95
:100EE000010707FA0CFCF2404CEA0202F740C5E9A0
:100EF000002700263146BDE8F0872E4628460BE73E
:100F00000646E9E61846FDE64345E5D2B8EB020E93
:100F100069EB04010138DFE70846D2E760468DE758
:100F20008146B9E7664675E730464AE7ACF1020C00
:100F3000394413E702383C4424E700BF704700BF40
:100F40007FB501234FF47A72CDE901320DF117021A
:100F50008DF817000092D0217F22034802F0E2FFB3
:100F600007B05DF804FB00BFBC4B002030B585B076
:100F70000C461546FFF7E4FF4FF47A73CDE90153B1
:100F8000054D009501232246D021044803F05AF86C
:100F9000284605B030BD00BF04020020BC4B002035
:100FA00000B589B00591FFF7CBFF01230DF11F01BB
:100FB0004FF47A72CDE901320091059A0448D021AC
:100FC00003F040F89DF81F0009B05DF804FB00BF76
:100FD000BC4B002010B586B00C468DF81720FFF7EB
:100FE000AFFF01234FF47A72CDE901320DF1170200
:100FF0000092D0212246024802F094FF06B010BDB4
:10100000BC4B002038B50C2205460C46302003218D
:10101000FFF7E0FF2A4604213020FFF7DBFF2246DE
:1010200006213020FFF7D6FFBDE838408122052198
:101030003020FFF7CFBF00007FB50C4615461E4697
:10104000FFF77EFF4FF47A73CDE90163009501232A
:101050002246D021024802F065FF04B070BD00BFF7
:10106000BC4B002010B58C22044603213020FFF732
:10107000B1FF224604213020FFF7ACFF0521812279
:101080003020FFF7A7FF012002F004F9BDE810406F
:101090003B210020FFF784BF10B506220446332110
:1010A0000020FFF763FF0278437843EA02231BB274
:1010B00007EE903AF8EEE77AC4ED007A8278C378CA
:1010C00043EA02231BB207EE903AF8EEE77AC4ED4A
:1010D000017A0279437943EA02231BB207EE903A80
:1010E000F8EEE77AC4ED027A10BD000010B50622D2
:1010F00004462D210020FFF739FF0278437843EAA8
:1011000002231BB207EE903AF8EEE77AC4ED007ABC
:101110008278C37843EA02231BB207EE903AF8EED6
:10112000E77AC4ED017A0279437943EA02231BB2DC
:1011300007EE903A044BF8EEE77A93ED007A77EEFB
:10114000877AC4ED027A10BDFC01002038B505464F
:101150001020FFF787FFC20701D4002038BD8C2282
:1011600003213020FFF736FF112204213020FFF742
:1011700031FF862205213020FFF72CFF012002F0ED
:1011800089F806223B210020FFF7F0FE04461820D4
:10119000FFF768FF0307E0D46278237843EA02236D
:1011A0001BB207EE903AF8EEE77A0120C5ED007A1F
:1011B000E278A37843EA02231BB207EE903AF8EEF6
:1011C000E77AC5ED017A6279237943EA02231BB2FB
:1011D00007EE903AF8EEE77AC5ED027ABEE7000036
:1011E00010B50446FFF758FF0A4BD4ED006AD3ED63
:1011F000007A86EEA77AD4ED016A84ED007A86EE55
:10120000A77AD4ED026A84ED017A86EEA77A84ED9E
:10121000027A10BD0002002010B50446FFF766FFF9
:101220000A4BD4ED006AD3ED007A86EEA77AD4EDAE
:10123000016A84ED007A86EEA77AD4ED026A84ED25
:10124000017A86EEA77A84ED027A10BDFC010020B7
:1012500030B585B0044601A8FFF778FF054600B316
:101260000198FFF771F910A3D3E90023FFF7C4F940
:10127000FFF79AFC20600298FFF766F90AA3D3E90A
:101280000023FFF7B9F9FFF78FFC60600398FFF7C1
:101290005BF905A3D3E90023FFF7AEF9FFF784FC60
:1012A000A060284605B030BD333333333333C33FFA
:1012B000002108B50846FFF773FEA0F1EA03584283
:1012C000584108BD08B50120FFF7CCFEA0F1090385
:1012D0005842584108BD08B50020C1220621FFF739
:1012E00079FEBDE80840642001F0D4BF08B5322083
:1012F0000121FFF787FEBDE80840642001F0CABF66
:1013000008B506210020FFF74BFE062100F0BF02C2
:101310000020FFF75FFEBDE80840642001F0BABF7F
:1013200008B503210020FFF73BFE40F00200C2B2E7
:10133000BDE8084003210020FFF74CBE08B503219B
:101340000020FFF72DFE40F02000C2B20321002054
:10135000FFF740FEBDE80840642001F09BBF10B5D8
:10136000012104463020FFF71BFE2043C2B2BDE836
:10137000104001213020FFF72DBE10B50621044694
:101380000020FFF70DFE2043C2B2BDE81040062149
:101390000020FFF71FBE012209212020FFF71ABEFF
:1013A00010B5012104462020FFF7FAFD40EAC400F1
:1013B000C2B2BDE8104001212020FFF70BBE10B5DE
:1013C000142104462020FFF7EBFD40EAC400C2B21E
:1013D000BDE8104001212020FFF7FCBD024600219E
:1013E0002020FFF7F7BD10B5020A04461021202087
:1013F000FFF7F0FD04F00F021121BDE8104020209E
:10140000FFF7E8BD08B501463120FFF7FBFDBDE859
:101410000840642001F03EBF08B5FFF781FFFFF7E9
:101420008DFF0720FFF79BFFFFF74CFF0028FBD045
:10143000FFF75CFFBDE808400820FFF7E3BF30B5C9
:101440002DED028B002487B008EE104A08EE904A7A
:101450000194ADF80840642503A8FFF71DFEDDEDFB
:10146000037A9DED057AF8EEE88AB8EEC88A78EE40
:10147000A78ADDED047A38EE278A07EE904AF8EE67
:10148000E77A013D77EE877AFDEEE88AFDEEE77AAE
:10149000BDEEC88A17EE904ADED118EE902A64237A
:1014A00092FBF3F35B42002BB8BF033318EE102A14
:1014B0009B105BBAADF80430642392FBF3F35B42FC
:1014C000002BB8BF03339B105BBAADF80630642322
:1014D00094FBF3F46442002CB8BF0334A41064BA44
:1014E000062301AA03212020ADF80840FFF7A4FD40
:1014F00007B0BDEC028B30BD2DE9F0432DED028B22
:10150000002487B008EE904A08EE104A0194ADF826
:101510000840642503A8FFF7E9FD07EE904A9DED1A
:10152000037AF8EEE77AF8EEE88A77EE877AB8EE93
:10153000C88AFDEEE77A013D17EE904ADDED047AA8
:1015400078EEA78ADDED057A38EE278AFDEEE88A87
:10155000BDEEC88ADED1022214211020FFF706FD5D
:101560000222B0F80090467817211020FFF7FEFC09
:101570000288457852BA1FFA82F81A2102221020F6
:10158000FFF7F4FC99FA99F901884778234B94FB0B
:10159000F3F418EE100A18EE902A1FFA89F94C4459
:1015A00049BA92FBF3F290FBF3F3424413FA81F34E
:1015B00021128DF8041005F00105111222F001022C
:1015C0002A438DF8072007F001071A1223F00103C0
:1015D0003B4306F0010624F001048DF806108DF857
:1015E00008208DF8093001AA344302231421102069
:1015F0008DF80540FFF720FD0DF1060202231721AB
:101600001020FFF719FD022302AA1A211020FFF76C
:1016100013FD07B0BDEC028BBDE8F083E0FCFFFFDB
:1016200010B5012104462020FFF7BAFC0246032C26
:1016300006D8DFE804F0020B11170D4B0D491960B5
:10164000BDE8104001212020FFF7C4BC40F0020299
:10165000074B0949D2B2F2E740F00402044B0749B4
:10166000D2B2ECE740F00602014B0549D2B2E6E700
:101670000002002000000343000083423333034292
:101680003333834110B5142104462020FFF788FC32
:101690000246032C07D8DFE804F0020C131A0F4BA4
:1016A0004FF08D411960BDE8104014212020FFF754
:1016B00091BC40F00202094BD2B24FF08C41F1E7ED
:1016C00040F00402054BD2B24FF08B41EAE740F004
:1016D0000602024BD2B24FF08A41E3E7FC01002040
:1016E00008B5FFF7E5FD0028FBD0FFF7F4FDFFF795
:1016F00007FE0120FFF741FEFFF74DFE0020FFF738
:101700004FFE0020FFF75BFE0020FFF767FE002082
:10171000FFF769FEFFF793FEFFF7EEFE0320FFF7EA
:101720007FFFBDE808400320FFF7ACBF2DE9F04183
:101730001F4D204F86B03C21284603F0CCF82B6883
:101740005C6A01F0A1FD07F10B08064601F09CFD63
:10175000801BB0F57A7F19D92B685A6A1B68DB06A3
:101760001DD5944216DDA21A394601A806F0BCFA2E
:101770002B681A684146C2F3001201A806F0B4FAB9
:101780002B685A6A5C6A01F07FFD0646012003F06F
:10179000C0FFDBE7C2F57F42FF322244E4E7944218
:1017A00001DA121BE0E7C4F57F44FF34F5E700BF20
:1017B000104C002018A100087FB51B4B01AA03F1B3
:1017C0000806144618685968154603C50833B3421D
:1017D0002A46F7D118689B88AB8028600023134EF7
:1017E000134DCDF81230ADF816303146204606F0D4
:1017F0009BFA0A212246084601F000FA2868FEF703
:10180000A3FE0B4602460B49204606F06DFA22461F
:1018100028210A2001F0F2F901F054F94FF47A700E
:1018200003F077FFE1E700BF2CA10008FC4C00208B
:101830001002002040A10008F8B5FFF751FFFFF7A4
:10184000EBFD144D144F154E01F01EFD04461148DA
:10185000FFF7C6FC3846FFF7DFFC3046FFF7F8FC21
:101860000A2003F056FF01F00FFD021B07EE902A3D
:1018700095ED027ADFED0A6A0A4BF8EE677A67EEB9
:10188000877A87EEA67AD3ED007A77EE277AC3EDD2
:10189000007AD9E7684D0020F04C0020584D002018
:1018A00000007A441002002000B595B02C220021DF
:1018B00009A805F0A7FD1422002103A805F0A2FD48
:1018C0000023194A0193116C41F080511164126C8C
:1018D00002F080520192019A144A0293116841F475
:1018E0008041116012680E9302F480420292029AC3
:1018F0000222089201201022CDE90B0208A802F072
:10190000C5FC014608B172B6FEE70F23CDE90330EE
:10191000CDE90500079003A802F092FE08B172B667
:10192000FEE715B05DF804FB00380240007000408F
:1019300000B59BB001F082FCFFF7B6FF1422002136
:1019400011A805F05FFD0024A24B00941A6BA24879
:10195000A24D42F010021A631A6B02F010020092BC
:10196000009A01941A6B42F004021A631A6B02F097
:1019700004020192019A02941A6B42F001021A6366
:101980001A6B02F001020292029A03941A6B42F05F
:1019900002021A631B6B03F00203039322464FF407
:1019A000F171039B02F034F822468D483C2102F08D
:1019B0002FF801264FF4F173874811A9CDE91136AC
:1019C000CDE9134401F04AFF3C23CDE911368448A8
:1019D0001394022311A9149301F040FF1022214611
:1019E00006A805F00FFD1C2221460AA8CDE90444F3
:1019F00005F008FD2022214611A805F003FD794BD2
:101A0000AC60C5E90034284641F61F43C5E90334FC
:101A1000C5E9054403F020F808B172B6FEE74FF4BB
:101A2000805306A92846069303F062F908B172B6FE
:101A3000FEE7284603F03CF808B172B6FEE7CDE9B0
:101A4000040004A9284603F065FA024608B172B6FC
:101A5000FEE76023CDE90A30CDE90C00CDE90E00A8
:101A600010900AA9284603F0DBF808B172B6FEE729
:101A700004220AA9284603F0D3F808B172B6FEE79B
:101A8000CDE91100CDE9130015904FF400531890E3
:101A900011A92846169303F07BFA08B172B6FEE747
:101AA000514C19904FF08043C4E900304FF0FF33A0
:101AB000C4E903300323CDE90A00CDE91130CDE9B3
:101AC0001360CDE91500CDE91760A060A06111A9F0
:101AD000204603F019F808B172B6FEE7CDE90A0016
:101AE0000AA9204603F016FA044608B172B6FEE7CA
:101AF0000146102206A805F085FC1C2221460AA8F2
:101B0000CDE9044405F07EFC2022214611A805F011
:101B100079FC364E3648A023C0E900634FF47A734F
:101B2000C0E90334802384604461836102F094FF40
:101B300008B172B6FEE74FF480532D48069306A90C
:101B400003F0D6F808B172B6FEE7294802F0B0FFFC
:101B500008B172B6FEE7CDE9040004A9244803F0F9
:101B6000D9F908B172B6FEE76023CDE90A30CDE9B4
:101B70000E000C9010900C221D480AA903F050F89A
:101B800008B172B6FEE7CDE91100CDE9130015905A
:101B90004FF40053189011A91548169303F0F8F963
:101BA000044608B172B6FEE71148124D01F012FA70
:101BB00011484FF4E133C0E900530C23C0E9053468
:101BC000C0E902440461C46103F0CAFA0346A8B143
:101BD00072B6FEE70038024000100240304B002091
:101BE0000000024000040140104D002000000140B0
:101BF000A44C002000480040784B00204848494948
:101C0000494A0362C0E900124FF48042C0E902333E
:101C1000C0E90423C0E9063302F0DCF8054608B148
:101C200072B6FEE70146102211A805F0EBFB3F4C0F
:101C30003F4BA5600126C4E9003520463D4B256198
:101C4000257684F82050E562A362E560E66184F8B9
:101C50003050666101F032FB08B172B6FEE70B232B
:101C6000139011A92046CDE9113601F0A7FC08B167
:101C700072B6FEE7304B314A9860C3E900204FF658
:101C8000FF72C3E903200322CDE90A00CDE9112048
:101C9000CDE91360CDE91500CDE917609861199081
:101CA00011A9184602F030FF08B172B6FEE7002312
:101CB00021480AA9CDE90A3303F02CF9044608B1FA
:101CC00072B6FEE700F0BAFF1D491E480A2203F073
:101CD00092FC03F0A9FC012003F050FF1A4B1B4AB1
:101CE000186021461A4803F0CBFC1A4B1A4A1860B8
:101CF00021461A4803F0C4FC194B1A4A18602146C1
:101D0000194803F0BDFC194B194A186021461948BF
:101D100003F0B6FC184B186003F098FCFEE700BF18
:101D2000BC4B002000540040A0860100584C00200D
:101D3000002001400100000F104C00200004004072
:101D4000FC4C0020784B00200C02002070A1000801
:101D5000C92800082C4B0020B8A100082D17000846
:101D6000EC4C002094A10008B9170008644D002035
:101D7000DCA1000839180008A04C002070470000C2
:101D80002DE9F04F2DED028B864D874EDFF82CA20A
:101D9000DFF8188285B00F4681460021834803F0A2
:101DA000B7F80421814803F0B3F80C21284603F06A
:101DB000AFF83C21304602F08EFD2B689AED008A88
:101DC00092221A644FF4FA7003F0A3FC336803966E
:101DD0005B6A774E40F297211BB24F43FDEEC87A03
:101DE000019307EBD7735B10009317EE903A002B2B
:101DF000B8BF5B424FF4E16440F6340B02932A68AB
:101E0000922111640122B9F1000F6ED004213046F5
:101E100001F0FEFD00220821304601F0F9FD01220B
:101E20002021304601F0F4FD00221021304601F05F
:101E3000EFFD9AED007A029BFDEEC77AB4EEC87A08
:101E400017EE902A002AB8BF5242D21A002AB8BF11
:101E5000524207EE902AF1EE10FAF8EEE77A44BF0C
:101E60009FED547A77EE677ABDEEE77A17EE102A87
:101E7000B7EE007AF4EEC77AF1EE10FA4FEA82027A
:101E800026DB296892320A640A2003F042FC0A2009
:101E900003F03FFC039B1968019B4A6A086812B271
:101EA000C0064CBF9A1AD21ABA426BDA009B9A4209
:101EB0005EDABBF57A6F05D20BF150031FFA83FB94
:101EC0005034A4B2D8F80020C2F834B0946396E736
:101ED000BFEE007AF4EEC77AF1EE10FAD1D9D8F855
:101EE0000020C2F834B09463D1E70821304601F0F5
:101EF0008FFD4A460421304601F08AFD012210215F
:101F0000304601F085FD4A462021304601F080FD33
:101F10009AED007A029BFDEEC77AB4EEC87A17EE0E
:101F2000902A002AB8BF5242D21A002AB8BF5242A1
:101F300007EE902AF1EE10FAF8EEE77AC4BF9FEDB3
:101F40001D7A77EE677ABDEEE77A17EE102ABFEEBC
:101F5000007AF4EEC77AF1EE10FA4FEA820290D9D5
:101F6000B7EE007AF4EEC77AF1EE10FAB7DB88E745
:101F7000BBF5487FA6D9ABF5FA731FFA83FBA4F52E
:101F8000FA749EE7D8F800200023536393636FF040
:101F900001020A61084A5220536205B0BDEC028B6F
:101FA000BDE8F08FA44C0020104C0020304B0020E6
:101FB0000000024000000000000400401002002069
:101FC0002DE9F04F2DED028B3E4D83B006460F46B6
:101FD0003D48002102F09CFF04213B4802F098FF9D
:101FE0000C21284602F094FF38483C2102F073FC93
:101FF000374B93ED008A98462B68002E3ED0002F79
:1020000033D05D221A6440F28A2A40F2645B4FF4B6
:102010005C73304801930122042101F0F9FC2D4842
:102020000022082101F0F4FC01222021294801F0BE
:10203000EFFC002210212748234C01F0E9FC4FF46B
:10204000FA7003F066FB226840F2DC5151630A200B
:10205000916303F05EFB1D4A11686FF00100086197
:102060001D480023436291463CE0F0221A6440F28E
:10207000424A40F2A63B40F21263CAE7CFB15D226A
:102080001A6440F22A3A4FF4C86BC82311480193EE
:102090000122082101F0BCFC0E480022042101F0BD
:1020A000B7FC012210210B4801F0B2FC00222021D4
:1020B000C1E7F0221A6440F28E3A40F2B63B4FF488
:1020C0002F73E3E7A44C0020304B0020104C00207D
:1020D000100200200000024000040040019B92B268
:1020E0009A420BDA4A6A0868C306F7D5019BD043C7
:1020F00080B29842F6DB92B2002AF3D02368002225
:102100005A6364209A6303F004FB2B68002F00F0ED
:102110004281F0221A640122002E00F03E81B9486B
:10212000082101F075FCB7480022042101F070FC81
:1021300001221021B34801F06BFC00222021B1489C
:1021400001F066FC4FF4FA7003F0E3FA236840F202
:10215000DC525A630A209A6303F0DBFAD9F80020B4
:102160006FF001031361A84B00215962536A116893
:10217000C80640F12381D94389B25945F6DB9BB2A9
:10218000002BF3D0236800225A6364209A6303F083
:10219000C0FA2B68002F00F016815D221A6401221C
:1021A000002E00F012819748042101F031FC95487F
:1021B0000022082101F02CFC01222021914801F08D
:1021C00027FC002210218F4801F022FC4FF4FA7006
:1021D00003F09FFA236840F2DC525A630A209A63A4
:1021E00003F097FAD9F800206FF001031361864BD2
:1021F00000215962536A1168C90640F1F780D9433A
:1022000089B25145F6DB9BB2002BF3D02368DFF88F
:10221000F4B14FF0000AC3F834A00A20C3F838A084
:1022200003F077FA2B688F221A64D9F800306FF028
:1022300001021A61744AC2F824A05B6A0FFA83FA99
:1022400001220821584601F0E3FB002204215846F0
:1022500001F0DEFB01221021584601F0D9FB2021BC
:102260000022584601F0D4FB0A2003F052FA2168FC
:1022700040F2DC534B638B63002E00F0BC8040F2D5
:10228000953240F20233002F08BF1A46D9F80000F9
:10229000436A00681BB2C0064CBFAAEB0303A3EB62
:1022A0000A039342CCDB00234B634FF4FA708B6339
:1022B00003F02FFADFED558AD8ED007A002F00F0F9
:1022C0000B8177EEC87AF4EEE87AF1EE10FA40F37B
:1022D0009F804C4E2B6885221A64C82003F019FA9F
:1022E00001220821304601F093FB002204213046F0
:1022F00001F08EFB01221021304601F089FB2021E4
:102300000022304601F084FB236840F2DC5AC3F817
:1023100034A0C820C3F838A003F0FBF923680027D5
:102320005F639F632B68A0221A64C82003F0F1F951
:1023300001220421304601F06BFB3A460821304669
:1023400001F066FB01222021304601F061FB3A4694
:102350001021304601F05CFB2368C820C3F834A08C
:10236000C3F838A003F0D5F9D8ED007A236837EE2A
:10237000C87A5F63B4EEE87AF1EE10FA9F6340F238
:102380007381F5EE407AF1EE10FA00F06D81642071
:1023900003F0BFF99EE75D22BCE61A48042101F074
:1023A00037FB18483246082101F032FB0122202178
:1023B000144801F02DFB32461021C0E69BB25B456C
:1023C000FFF6D4AEDEE6F022E8E60E48082101F082
:1023D0001FFB0C483246042101F01AFB0122102198
:1023E000084801F015FB32462021ECE69BB253452C
:1023F000FFF600AF0AE7002F14BF4FF4C8724FF486
:102400007A7243E700000240000400400000AE4240
:1024100040F12A819D4E2B68A0221A64C82003F047
:1024200078F901220821304601F0F2FA0022042155
:10243000304601F0EDFA01221021304601F0E8FAB1
:1024400020210022304601F0E3FA236840F2DC5AF2
:10245000C3F834A0C820C3F838A003F05AF92368A1
:1024600000275F639F632B6885221A64C82003F0EE
:1024700050F901220421304601F0CAFA3A460821F7
:10248000304601F0C5FA01222021304601F0C0FAA1
:102490003A461021304601F0BBFA2368C820C3F841
:1024A00034A0C3F838A003F034F9D8ED007A2368DB
:1024B00037EEC87A5F63B4EEE87AF1EE10FA9F6304
:1024C00080F2D280F5EE407AF1EE10FA00F0CC8086
:1024D000642003F01EF99EE778EE677AF4EEE87A5E
:1024E000F1EE10FA5FD5694E2B6885221A64C82078
:1024F00003F00FF901220821304601F089FA002289
:102500000421304601F084FA01221021304601F006
:102510007FFA20210022304601F07AFA236840F247
:10252000DC5AC3F834A0C820C3F838A003F0F1F88F
:10253000236800275F639F632B68A0221A64C8206A
:1025400003F0E7F801220421304601F061FA3A462F
:102550000821304601F05CFA01222021304601F0CA
:1025600057FA3A461021304601F052FA2368C82043
:10257000C3F834A0C3F838A003F0CBF8D8ED007A44
:10258000236838EE677A5F63B4EEE87AF1EE10FA0A
:102590009F6369DAF5EE407AF1EE10FA64D06420B8
:1025A00003F0B7F8A0E75FDD384E2B68AA221A6463
:1025B000C82003F0AEF801220821304601F028FAC5
:1025C00000220421304601F023FA01221021304676
:1025D00001F01EFA20210022304601F019FA23688A
:1025E00040F2DC5AC3F834A0C820C3F838A003F086
:1025F00090F8236800275F639F632B687B221A642F
:10260000C82003F086F801220421304601F000FAC8
:102610003A460821304601F0FBF9012220213046DC
:1026200001F0F6F93A461021304601F0F1F923683D
:10263000C820C3F834A0C3F838A003F06AF8D8ED76
:10264000007A236838EE677A5F63B4EEE87AF1EED9
:1026500010FA9F6308D9F5EE407AF1EE10FA03D034
:10266000642003F056F8A0E72B6892221A64D9F888
:1026700000306FF001021A61054B002252205A62AD
:1026800003B0BDEC028BBDE8F08F00BF000002403C
:1026900000040040000000002DE9F04700212DED6E
:1026A000028B4148DFED418A414D02F031FC0421AB
:1026B0003D4802F02DFC0C213E4802F029FC3E482A
:1026C0003C2102F008F90FF2D809D9E900893B4C06
:1026D000DFF8ECA02068374F334E4FF0FF3103F0A6
:1026E0006DFBF5EE408A0023F1EE10FA1A4619460A
:1026F000206808BFDAED008A03F08EF93B68642297
:102700001A6404210122284601F082F900220821DE
:10271000284601F07DF901222021284601F078F9B0
:1027200010210022284601F073F933684FF49662B5
:102730005A630A209A6302F0ECFF4FF0FF312068E1
:1027400003F03CFB9AED008A2068002338EEC88A2B
:102750001A46194603F060F918EE100AFDF7F4FE68
:1027600042464B46FEF7CEF90028B0D03B68942293
:102770001A64336800245C630A209C6302F0C9FF7A
:102780000D4BBDEC028B1B686FF001021A614FF01C
:10279000804352205C62BDE8F08700BFAFF3008049
:1027A0003333333333330B40304B00200000000011
:1027B00000000240A44C0020104D00200C0200201C
:1027C0001002002084B0F0B585B00AAC84E80F0098
:1027D0003A483A4F01224FF4806101F019F914266A
:1027E00000250AA800F010FE4FF0FF310AA800F003
:1027F0008FFE0AA800F0DFFE00222C184FF4806143
:10280000384601F005F9013EA5B2EAD11424B5FB22
:10281000F4F3A3F6C512B2F5E67F3ED3A3F2367108
:1028200040F28E2291423AD9A3F2B552B2F5C07F5E
:102830001ED9A3F2FC42B82A33D9A3F58E628B2AA3
:1028400031D96FF47F729A18722A2ED9A3F29E3270
:102850005E2A2CD9A3F54C726D2A2AD9A3F2C7237C
:10286000682B28D943F28B74A5428CBF63240024C3
:102870002246134901A805F037FA01A8FDF7A8FC84
:102880004FF0FF3382B201A90E4802F097FC2046B8
:1028900005B0BDE8F04004B070470A24E8E70F2413
:1028A000E6E71924E4E71E24E2E72324E0E72824EE
:1028B000DEE72D24DCE73224DAE700BF0000024027
:1028C00046A10008784B00202DE9F04F0025DFF8E5
:1028D00090A191B04FF001082E46AB46DAF80030D7
:1028E0005B495C486FF001021A615B4B0122C3F83F
:1028F00024B002F080FE564B1C78392C33D82F2C94
:1029000035D931238DF83F3052484FF6FF730122FD
:102910000DF13F0102F052FCB8F1020FA4F13004B6
:1029200040F0928032238DF83F304A484FF6FF73D3
:1029300001220DF13F0102F041FC4FF00108A146D8
:102940004546012613E0162C11D8DFE804F052109A
:1029500010614910101010101010101063103F106B
:1029600034107A101900413CE3B2162BEBD93B49E5
:102970001322481E04F02CFD642002F0CAFEADE7CD
:10298000BEB115B10A2303FB079739460120FFF7B3
:10299000F7F952238DF83F302E484FF6FF7301228E
:1029A0000DF13F01002502F009FC4FF001082E4611
:1029B000DDE70121EAE736B115B10A2303FB0797EA
:1029C00039460020E3E701213046E0E71EB115B1AA
:1029D0000A2303FB079701210120FFF7F1FAD8E74B
:1029E0002EB115B10A2303FB07970021F4E7314606
:1029F000F2E701210020FFF7E3FA8DF83F004FF6E0
:102A0000FF7301220DF13F01124802F0D7FBAEE740
:102A10000021EFE7DFF84CE00EF1100CBCE80F00EE
:102A20006C460FC4BCE80F000FC4BCE80F000FC415
:102A30009CE8030084E803009EE80F00FFF7C2FE55
:102A400095E7FFF729FED8E727464FF0020878E719
:102A5000FC4C0020784B002000040040FD4C00207E
:102A6000104C0020584C002070B50A46044601B1B5
:102A700001221348124E4FF4807100F0C9FF08255F
:102A800000222021304600F0C3FF23064CBF012264
:102A900000224021304600F0BBFF013D01222021F1
:102AA000304600F0B5FF640015F0FF05E4B2E7D151
:102AB000BDE87040024801224FF4807100F0A8BFC9
:102AC0000010024070B50F4EB02400212046FFF7E1
:102AD000CBFF00210846FFF7C7FF00211020FFF7BA
:102AE000C3FF002516F8350001210135FFF7BCFFB3
:102AF000802DF7D10134E4B2B82C06F10106E4D1FF
:102B000070BD00BF744D002008490823002000223A
:102B100001F832000132802AFAD1013B13F0FF03A1
:102B200001F10101F3D1FFF7CDBF00BF744D0020CB
:102B3000030630B513D43F2911D801F007050A4C1C
:102B4000C908C1F10701C9B204EBC0000123C5F1F6
:102B5000070503FA05F5435C12B12B43435430BD1E
:102B600023EA0503FAE700BF744D00202DE9F74F73
:102B70001F46A2F1200A1F4B9DF830B05FFA8AFA77
:102B800003EB0A1300931C4B0AEB4A0A03EB8A037C
:102B90008146884601930C460026B74202D103B015
:102BA000BDE8F08F0C2F0CBF019B009B9D5D04F1D5
:102BB00008035FFA83FA2B0658BFBBFA8BF2214653
:102BC00004F101044CBF5A4652094846E4B2FFF7EB
:102BD000AFFFA4EB08026D00BA42EDB207D109F1D4
:102BE00001005FFA80F9C24601365446D5E7A24596
:102BF000E1D1F9E774A6000800A20008F7B5044681
:102C00000D46561E012716F8013F0BB903B0F0BD63
:102C10007A2C82BF1035EDB200243A2D03D9FFF78C
:102C200073FF00252C460097204632780C23294656
:102C30000834FFF79BFFE4B2E5E7000010B501F0B0
:102C400009FB404B404C1A6F22F001021A671A6FC1
:102C500022F004021A6701F00BFB002280212046BB
:102C600000F0D6FE642000F015FB012220468021F2
:102C700000F0CEFE0021AE20FFF7F6FE0021D520A9
:102C8000FFF7F2FE00215020FFF7EEFE0021A82002
:102C9000FFF7EAFE00213F20FFF7E6FE0021D320E8
:102CA000FFF7E2FE00210846FFF7DEFE002140208C
:102CB000FFF7DAFE00218D20FFF7D6FE0021142059
:102CC000FFF7D2FE00212020FFF7CEFE00210220D8
:102CD000FFF7CAFE0021A120FFF7C6FE0021C02099
:102CE000FFF7C2FE0021DA20FFF7BEFE002112200E
:102CF000FFF7BAFE00218120FFF7B6FE0021EF208A
:102D0000FFF7B2FE0021D920FFF7AEFE0021F1202F
:102D1000FFF7AAFE0021DB20FFF7A6FE00213020EE
:102D2000FFF7A2FE0021A420FFF79EFE0021A620AF
:102D3000FFF79AFE0021AF20FFF796FEBDE8104096
:102D4000FFF7E2BE003802400010024082B00E4B96
:102D500000220092596C41F480415964596C01F48D
:102D60008041009100990192196C41F080511964E1
:102D70001B6C03F080530193019B0F216FF0010046
:102D800002B000F0BFBC00BF0038024010B50446DE
:102D900088B01422002103A804F034FB2268124BEF
:102DA0009A421FD103F58C3300220192596C0F48CF
:102DB00041F480715964596C01F480710191019959
:102DC0000292196B41F0040119631B6B059203F029
:102DD000040302930221029B0323CDE9031303A9F9
:102DE00000F03CFD08B010BD00200140000802408A
:102DF00030B5044689B01422002103A804F002FB78
:102E00002268144B9A4223D1134C14480025019593
:102E1000236B43F002032363236B059503F0020346
:102E20000193019B4FF440721223CDE90323032148
:102E30000423CDE9061303A900F010FD0295236CCD
:102E400043F400132364236C03F400130293029BE6
:102E500009B030BD00540040003802400004024078
:102E600010B5044688B01422002103A804F0CAFA61
:102E700023681B4A93420DD100230093194B5A6CCF
:102E800042F001025A645B6C03F001030093009B63
:102E900008B010BD144A9342FAD1124B13480022D5
:102EA0000192596C41F002015964596C01F0020120
:102EB000019101990292196B41F0040119631B6B96
:102EC00003F004030293029BC0210223CDE9031304
:102ED000032303A9CDE90522079300F0BFFCD7E740
:102EE0000000014000380240000401400008024098
:102EF00070B514228AB0044600210DEB020004F0E4
:102F000081FA2368B3F1804F39D103F50E330024E1
:102F100000941A6C2B4842F001021A641A6C02F0F9
:102F200001020092009A01941A6B42F001021A63A6
:102F30001A6B02F001020192019A02941A6B42F09C
:102F400002021A631B6B03F002030293029B022628
:102F50004FF40043012505A9CDE90536CDE9074425
:102F6000099500F07BFC0823CDE90536CDE907443F
:102F70001548099505A900F071FC0AB070BD134A07
:102F80009342FAD1124B0F4800220392196C41F080
:102F900002011964196C01F0020103910399049272
:102FA000196B41F0010119631B6B03F001030493DA
:102FB000C021049B0223CDE90513CDE90722099323
:102FC00005A9D8E7000002400004024000040040C8
:102FD0000038024010B5044686B01422002101A832
:102FE00004F010FA22680F4B9A4218D10E4A0F488B
:102FF00000230093116B41F010011163126B02F07A
:10300000100200924FF48041009A0222CDE9011291
:10301000CDE9033301A90123059300F01FFC06B09D
:1030200010BD00BF00000140003802400010024007
:1030300010B5044688B01422002103A804F0E2F978
:103040002268194B9A422CD103F5F83300240194DD
:103050001A6C164842F480221A641A6C02F4802218
:103060000192019A02941A6B42F004021A631B6BDC
:10307000059403F0040302934FF44062029B022381
:10308000CDE9032303210723CDE9061303A900F0AB
:10309000E5FB27202246052100F034FB272000F025
:1030A00063FB08B010BD00BF0048004000080240AC
:1030B000FEE7FEE7FEE7FEE7FEE7704708B500F033
:1030C000D7F803F0C9FB012803D0BDE8084003F09E
:1030D00071BF08BD014802F02DB900BF784B002038
:1030E0000120704708B504F03BF9162303604FF048
:1030F000FF3008BD08B504F033F916230360FEE77E
:1031000070B50E4614460025A54201DB204670BD71
:10311000AFF3008070550135F6E770B50E461446E2
:103120000025A54201DB204670BD705DAFF3008035
:103130000135F6E74FF0FF3070474FF400534B6016
:103140000020704701207047002070470B4B196822
:1031500010B5024609B90A491960186809490A4CAC
:103160000244091B8A4206D904F0FAF80C230360D2
:103170004FF0FF3010BD1A60FCE700BF14020020C2
:10318000C85100200000022000040000034AD2F8C9
:10319000883043F47003C2F88830704700ED00E0D7
:1031A000DFF834D00D480E490E4A002302E0D4580F
:1031B000C4500433C4188C42F9D30B4A0B4C00237F
:1031C00001E013600432A242FBD3FFF7DFFF04F0FB
:1031D000CDF8FEF7ADFB7047000002200000002094
:1031E000E001002084B00008E0010020C851002068
:1031F000FEE7000038B50E4A0E4B054618784FF42E
:103200007A73B3FBF0F31068B0FBF3F000F0BAFA96
:10321000044658B90F2D09D8024629464FF0FF3011
:1032200000F070FA044B20461D6038BD0120FCE719
:1032300000000020040000200800002008B50B4B0F
:103240001A6842F400721A601A6842F480621A60C6
:103250001A6842F480721A60032000F041FA0F20CD
:10326000FFF7C8FFFFF772FD002008BD003C0240D9
:10327000034A044B11681B780B441360704700BF6E
:103280007451002004000020014B1868704700BFF3
:103290007451002038B50446FFF7F6FF631C1CBFCD
:1032A000054B1B78054618BFE418FFF7EDFF431BDD
:1032B000A342FAD338BD00BF0400002038B504464D
:1032C000002800F09B80056C25B9FFF75FFD656461
:1032D00084F83C50236CDB0600F18E80236C23F4D1
:1032E000885323F0020343F002032364444B5A68DB
:1032F00022F440325A605A6861680A435A6023686F
:1033000021695A6822F480725A605A6842EA01229E
:103310005A605A68A16822F040725A605A680A439B
:103320005A609A68E16822F400629A609A680A43D7
:103330009A603449A26A8A4252D0996821F0706139
:10334000996099680A439A609A68E16A22F040524B
:103350009A609A680A439A609A6822F002029A6018
:103360009A68217E42EA41029A6094F82020002A5D
:103370003ED05A68616A42F400625A605A6822F488
:1033800060425A605A68013942EA41325A60DA6A48
:10339000E16922F47002DA62DA6A013942EA015222
:1033A000DA629A6822F400729A609A6894F830108F
:1033B00042EA41229A609A68616922F480629A60C6
:1033C0009A68002042EA81229A606064236C23F0AC
:1033D000030343F001032364002384F83C3038BD29
:1033E0009A6822F070629A609A6822F04052B2E7BE
:1033F0005A6822F40062C9E70120EDE70120EEE7F8
:10340000002301400100000F13B50023019390F841
:103410003C30012B6CD00123026880F83C3093686B
:10342000D9070CD5936813F001031AD1026C42F04E
:1034300010020264426C42F00102426456E093685A
:103440002D4943F0010393602C4B1B68B3FBF1F350
:1034500003EB43030193019B002BE3D0019B013B52
:10346000F8E7036C264C23F4E06323F0010343F4F4
:103470008073036453685B0541BF036C23F44053BE
:1034800043F480530364036C13F480531CBF436CF8
:1034900023F0060343646FF02201002380F83C30E0
:1034A00011601849486810F01F0019D1A24206D0D7
:1034B000154B9A420DD14B6813F01F0F07D190683E
:1034C00010F0405016D1936843F08043936002B0EF
:1034D00010BD0E4B9A42FAD14B6813F0100FEDE776
:1034E000A24207D1906810F04050ECD01846EEE7A9
:1034F0000220ECE70020EAE740420F000000002035
:103500000020014000230140002101400022014031
:1035100003689A68520570B504460D460BD59B6842
:10352000DE0508D5036C43F020030364002380F814
:103530003C30012070BDFFF7A7FE064623681A68DD
:1035400091070CD56FF012021A60226C42F40072DF
:1035500022649A6812F0405F17D00020EAE7681CE6
:10356000EDD065B923681B6813F00203E6D1226C25
:1035700084F83C3042F0040222640320DAE7FFF7CB
:1035800083FE801BA842EDD8D8E7207E0028E4D136
:10359000DA6A12F4700F02D09B685A05DDD4236CEE
:1035A00023F480732364236CDB04D6D4236C43F0B0
:1035B00001032364BEE70368D86C7047F7B50023A6
:1035C000019390F83C30012B66D0012380F83C3009
:1035D0000D6803688E68092DACB231D904EB440242
:1035E000DF681E3A4FF0070C0CFA02FC27EA0C07C2
:1035F000DF60DF6806FA02F23A43DA6049680629BA
:1036000001EB81022CD8596B053A1F26964021EA1E
:1036100006015963596B04FA02F20A435A632C4AB1
:10362000934207D1122D39D1D2F8043343F48003E9
:10363000C2F80433002380F83C30184603B0F0BDD4
:103640001F6905EB45024FF0070C0CFA02FC27EA54
:103650000C071F611F6906FA02F23A431A61CDE7AF
:103660000C294FF01F010BD81E6B233A914026EA1C
:1036700001011963196B04FA02F20A431A63CEE7D7
:10368000DE6A413A914026EA0101D962D96A04FA18
:1036900002F20A43DA62C2E70220CFE7A5F1100383
:1036A000012BC7D80B4A5368102D43F40003536015
:1036B000C0D1094B094A1B68B3FBF2F20A235343FA
:1036C0000193019B002BB5D0019B013BF8E700BFA4
:1036D00000200140002301400000002040420F0074
:1036E0000749CA6822F4E0620302120403F4E063AB
:1036F000120C134343F0BF6343F40033CB607047B5
:1037000000ED00E0164B30B5DC68C4F30224C4F1D0
:103710000705231D042D28BF0425062B4FF0FF337A
:103720008CBF033C002403FA05F521EA0501A34000
:1037300022EA0302A140002841EA0203ACBF00F1E3
:103740006040084A4FEA0313B8BF00F00F00DBB235
:10375000AABF00F56140135480F8003330BD00BFAC
:1037600000ED00E014ED00E0002808DB4209012331
:1037700000F01F0003FA00F0014B43F822007047ED
:1037800000E100E00138B0F1807F0AD2064B074A21
:103790005860F02182F823100020072298601A60F8
:1037A00070470120704700BF10E000E000ED00E02E
:1037B00070B50446866DFFF767FD94F83530022B2F
:1037C000054606D080236365002384F83430012049
:1037D00070BD23681A6822F016021A605A6922F036
:1037E00080025A61226C0AB9A26C1AB11A6822F0DE
:1037F00008021A601A6822F001021A6023681B6826
:1038000013F001030AD1E16D3F228A40B260012228
:1038100084F8352084F834301846D9E7FFF734FDB2
:10382000401B0528EAD9202363650320002384F880
:10383000350084F83430CBE790F83530022B03D0D4
:1038400080234365012070470268052380F83530E6
:10385000136823F001031360002070472DE9F74F30
:10386000DFF8A891674A00230D6801249C4004EA10
:10387000050CAC4340F0B1804D6805F003044FEAFD
:1038800043080326671E06FA08F6012F6FEA0606AC
:1038900034D8876807EA060ECF6807FA08F747EAC0
:1038A0000E078760476827EA0C0EC5F300179F4094
:1038B00047EA0E074760C76807EA060E8F6807FAEF
:1038C00008F747EA0E07022CC76019D14FEAD30A5E
:1038D00000EB8A0A03F0070BDAF820704FEA8B0B33
:1038E0004FF00F0E0EFA0BFE27EA0E0E0F6907FAC5
:1038F0000BF747EA0E07CAF8207001E0032CDAD173
:10390000076804FA08F43E40264315F4403F066079
:1039100063D04FF0000ACDF804A0D9F844603A4CC7
:1039200046F48046C9F84460D9F8446006F48046FD
:103930000196019E23F0030606F1804606F59C36AB
:1039400003F0030ED6F808804FEA8E0E0F2707FA11
:103950000EF7A04228EA070746D004F58064A0428B
:1039600044D004F58064A04242D004F58064A042B3
:1039700040D004F58064A0423ED004F58064A042AB
:103980003CD004F58064A0423AD004F58064A042A3
:103990000CBF0724082404FA0EF43C43B4601468F6
:1039A0006FEA0C06EF0354BF34404CEA0404146081
:1039B0005468AF0354BF34404CEA04045460946824
:1039C000EF0254BF34404CEA04049460D468AD0262
:1039D00054BF34404CEA0404D4600133102B7FF40C
:1039E00043AF03B0BDE8F08F5446D4E70124D2E7DB
:1039F0000224D0E70324CEE70424CCE70524CAE759
:103A00000624C8E7003C01400000024000380240A4
:103A10000AB1816170470904FBE701684B6913F43F
:103A200080634FF0000210D06FF480634B6120235D
:103A3000026380F83D3080F83E20036C80F83C2023
:103A400043F00403036401207047184670472DE9D2
:103A5000F04104460F46164698462568686927EAED
:103A6000000080B2B8B16B695A0516D52B6843F4D3
:103A700000732B606FF480636B612022002323634B
:103A800084F83D2084F83E30226C42F00402226427
:103A900084F83C300120BDE8F081731CDED0FFF7D4
:103AA000F3FBA0EB0800B04201D8002ED5D10023D3
:103AB0002022236384F83D2084F83E30226C42F0BB
:103AC0002002E4E770B504460D46164623685B699C
:103AD0005B0701D5002070BD2046FFF79EFFA8B907
:103AE0006A1CF3D0FFF7D0FB801BA84201D8002D41
:103AF000ECD100232022236384F83D2084F83E305B
:103B0000226C84F83C3042F0200222640120E2E77B
:103B100070B504460D46164621684B6913F0400304
:103B200001D0002010E04A69D2060ED56FF01002D5
:103B30004A612022236384F83D2084F83E30226CC1
:103B4000226484F83C30012070BDFFF79DFB801B90
:103B5000A84201D8002DDFD100232022236384F85E
:103B60003D2084F83E30226C42F02002E8E72DE947
:103B7000F84606460F4691461D464FEA114A3368FD
:103B8000BAF1010F0CBF5C699C6927EA0404A4B276
:103B9000B4FA84F46409A14501D0002017E06A1C3E
:103BA000EED0FFF771FB089BC01AA84201D8002D88
:103BB000E5D100232022336386F83D2086F83E308D
:103BC000326C86F83C3042F0200232640120BDE8BD
:103BD000F88670B504460D46164623685B691B06D9
:103BE00001D5002070BD2046FFF717FFA8B96A1C59
:103BF000F3D0FFF749FB801BA84201D8002DECD180
:103C000000232022236384F83D2084F83E30226C78
:103C100084F83C3042F0200222640120E2E70000F8
:103C20002DE9F0431546026885B0DDE90C78994628
:103C3000136843F4807313600E463B46CDF8008052
:103C400000224FF001110446FFF791FF236838B1BD
:103C50001B68DB0502D54FF40073236403200AE0E0
:103C600006F0FE061E61194943463A462046FFF714
:103C7000EEFE18B1012005B0BDE8F0832368039083
:103C80005A6903929B690393424639462046039B37
:103C9000FFF79FFF40B1236C042B01BF226813681C
:103CA00043F400731360E5E7B9F1010F236802D113
:103CB000EDB21D61DFE72A0A1A6139464246204605
:103CC000FFF787FF0028E6D12368F1E70200010033
:103CD0002DE9FF479A46036815461A6842F4806248
:103CE0001A601A68DDE90C7842F480721A600E4698
:103CF0003B46CDF8008000224FF001110446FFF74B
:103D000036FF236848B11B68DB0502D54FF400730A
:103D10002364032004B0BDE8F0875FFA86F906F05B
:103D2000FE061E612A4943463A462046FFF78FFEAB
:103D300008B10120EEE7236803905A6903929B695A
:103D40000393424639462046039BFFF742FF40B1AA
:103D5000236C042B01BF2268136843F400731360C3
:103D6000E7E7BAF1010F23681AD1EDB21D614246AF
:103D700039462046FFF72DFF0028E9D12268136855
:103D800043F4807313604FF001110246CDF80080B8
:103D90003B462046FFF7EBFE226860B11368B3E7AD
:103DA0002A0A1A61394642462046FFF712FF0028C8
:103DB000CED12368D9E749F0010313610449434692
:103DC0003A462046FFF743FE003818BF0120A1E71E
:103DD0000200010070B5044608B9012070BD90F8DA
:103DE0003D3003F0FF021BB980F83C20FFF700F8DC
:103DF000242384F83D3023681A6822F001021A60F7
:103E00001A6842F400421A601A6822F400421A60EA
:103E100000F0B2FC3F4A6368934294BF3E4A3F4A77
:103E200090428CBF00220122002AD6D121683C4E4C
:103E30004A68B0FBF6F622F03F0232434A60354A48
:103E40000D6A934284BF4FF49672724325F03F058A
:103E500091BF721C4FF47A76B2FBF6F201322A431C
:103E60000A62CD69421E2B4825F44F45834225F056
:103E7000FF0532D85B00B2FBF3F340F6FC7201336E
:103E8000134242D0C3F30B032B43CB61D4E9073079
:103E90000A68034322F0C00213430B608A68D4E926
:103EA000030322F40342034322F0FF0213438B6017
:103EB000D4E90530CA68034322F0FF021343CB6004
:103EC0000B6843F001030B6000202023206484F87A
:103ED0003D30206384F83E0080E7A06850B903EBD2
:103EE0004303B2FBF3F30133C3F30B037BB143F49E
:103EF0000043C9E719204343B2FBF3F30133C3F393
:103F00000B0323B143F44043BEE70423BCE7012382
:103F1000BAE700BFA08601007F841E00FF083D00B5
:103F200040420F002DE9F743044699460C9E0F4688
:103F30009046FFF7A9F994F83D30202B054603D0B1
:103F4000022003B0BDE8F08300903C491923012210
:103F50002046FFF70CFE0028F2D194F83C30012BEC
:103F6000EED02068012384F83C300368D9075EBF97
:103F7000036843F001030360036823F400630360F4
:103F8000212384F83D30402384F83E30002323640D
:103F90000A9B6362BDF82C306385638D2385284BB3
:103FA000E362CDE900654B46424639462046FFF7BD
:103FB00037FE00282AD00120C3E7FFF70AFE40B1F0
:103FC000236C042B01BF2268136843F40073136051
:103FD000F1E7636A27681A4612F8011B39616262C9
:103FE000628D218D013A92B262857A69481E80B253
:103FF000520720850AD548B15A783A610233636284
:10400000638D013B02399BB221856385238D2A464E
:1040100031462046002BD0D1FFF754FD0028CFD1E8
:104020002268136843F400731360202384F83D3042
:1040300084F83C0084F83E0083E700BF02001000D3
:104040000000FFFF2DE9F043044687B09946109F1A
:104050000D469046FFF718F994F83D30202B0646A0
:1040600004D00225284607B0BDE8F08300907649C9
:10407000192301222046FFF77AFD0028F1D194F898
:104080003C30012BEDD02068012384F83C300368DC
:10409000DB075EBF036843F001030360036823F49A
:1040A00000630360222384F83D30402384F83E30CF
:1040B000002323640E9B6362BDF83C306385638DEF
:1040C0002385624BE3622946CDE900764B464246A2
:1040D0002046FFF7FDFD054608B10125C2E7228D08
:1040E0002368B2B902905A6902929A690292029ABE
:1040F0001A6842F400721A60DFF85481238D002B95
:104100002CD1202284F83D2084F83C3084F83E30C5
:10411000A8E7012A0AD11A6822F480621A60039083
:104120005A6903929A690392039AE1E7022A0ED12F
:104130001A6822F480621A601A6842F400621A60F7
:1041400004905A6904929B690493049BD4E70590F8
:104150005A6905929B690593059BCDE7032B56D8B9
:10416000012B15D1324639462046FFF7D1FC0028F5
:10417000B3D123681A69636A1A70636A0133636290
:10418000238D013B2385638D013B9BB26385B5E79E
:10419000022B00963B464FF000024146204619D1C3
:1041A000FFF7E5FC002898D123681A6842F40072F2
:1041B0001A601A69636A1A70626A531C6362238DFB
:1041C000013B2385638D013B9BB2638523681B699B
:1041D0005370D2E7FFF7CBFC00287FF47EAF236853
:1041E0001A6822F480621A601A69636A1A70636A34
:1041F000009601336362238D013B2385638D013B70
:104200009BB2638502463B4641462046C8E732469C
:1042100039462046FFF77CFC00287FF45EAF236818
:104220001A69636A1A70626A531C6362238D013BC8
:104230002385638D013B9BB26385236859694907D8
:104240007FF55CAFC3E700BF020010000000FFFF76
:1042500004000100044B01221A60044B82B01B6869
:104260000193019B02B0704720000E420070004095
:10427000044B00221A60044B82B01B680193019B1F
:1042800002B0704720000E42007000402DE9F3415B
:10429000044640B30368DD0710D4236898075ED452
:1042A00023681A0700F1A08023685B0700F1BE8035
:1042B000A069002840F01F8100202BE0A64B9A68DF
:1042C00002F00C02042A07D09A6802F00C02082AB5
:1042D0000BD15A68510208D59F4B1B689A03DCD555
:1042E0006368002BD9D1012014E06268B2F5803FE9
:1042F00013D11A6842F480321A60FEF7C5FF964E59
:10430000054633689B03C8D4FEF7BEFF401B6428F4
:10431000F7D9032002B0BDE8F0818F4DB2F5A02F90
:104320002B6807D143F480232B602B6843F4803340
:104330002B60E2E723F480332B602B6823F4802387
:104340002B60002AD9D1FEF79FFF06462B689F03FA
:10435000A3D5FEF799FF801B6428F7D9D9E77E4BD8
:104360009A6812F00C0F07D09A6802F00C02082A23
:1043700011D15B685E020ED4774B1A68950702D59F
:10438000E268012AAFD11A68216922F0F80242EAF4
:10439000C1021A6084E7E268704BB2B101221A6070
:1043A000FEF772FF6C4D06462B68980707D52B6801
:1043B000226923F0F80343EAC2032B6070E7FEF79B
:1043C00063FF801B0228EFD9A3E71A60FEF75CFFAA
:1043D000614E0546336899077FF562AFFEF754FFDB
:1043E000401B0228F6D994E762695D4B7AB101223D
:1043F0001A60FEF749FF584E0546736F9F073FF559
:1044000053AFFEF741FF401B0228F6D981E71A603F
:10441000FEF73AFF504E0546736F98077FF544AF9D
:10442000FEF732FF401B0228F6D972E74A4B1A6C9E
:1044300012F0805228D101921A6C42F080521A6414
:104440001B6C03F080530193019B0127454D2B68A2
:10445000D9051BD5A368404D012B27D12B6F43F005
:1044600001032B67FEF710FF3B4E054641F28838EB
:10447000336F9B0739D5002F3FF41AAF364A136CC0
:1044800023F08053136413E70027DFE72B6843F41E
:1044900080732B60FEF7F8FE06462B68DA05D9D448
:1044A000FEF7F2FE801B0228F7D932E7052B04D174
:1044B0002B6F43F004032B67D0E72A6F22F0010231
:1044C0002A672A6F22F004022A67002BCAD1FEF75E
:1044D000DBFE41F2883806462B6F9807CBD5FEF7F6
:1044E000D3FE801B4045F7D913E7FEF7CDFE401BF6
:1044F0004045BDD90DE7184DAB6803F00C03082B00
:1045000047D0194E00230228336035D1FEF7BCFE98
:1045100007462B68990129D4D4E907321343626A0C
:1045200043EA8213E26A43EA0263A26A5208013A4A
:1045300043EA02436B6001233360FEF7A5FE064D9C
:1045400004462B689A013FF5B7AEFEF79DFE001BAF
:104550000228F6D9DDE600BF0038024000004742DD
:10456000800E47420070004060004742FEF78CFE1C
:10457000C01B0228CDD9CCE6FEF786FE04462B6888
:104580009B017FF599AEFEF77FFE001B0228F6D94E
:10459000BFE601283FF4BEAE6B68E26903F4800118
:1045A00091427FF4A0AE216A03F03F028A427FF479
:1045B0009AAE616A47F6C0721A40B2EB811F7FF46F
:1045C00092AEA26A520803F44031013AB1EB024FB5
:1045D0007FF489AEE26A03F07063B3EB026F3FF4DD
:1045E0006BAE80E6134908B58B6803F00C03042B0F
:1045F0001CD0082B1CD14A684B68496813F480030F
:1046000014BF0D480D48C1F3881118BF002302F0F4
:104610003F02A1FB0001FCF717FB064B5B68C3F3ED
:10462000014301335B00B0FBF3F008BD0248FCE737
:104630000248FAE70038024040787D010024F40087
:104640002DE9F0410D46044610B90120BDE8F08186
:10465000444B1A6802F007028A4228D3226897075F
:104660002DD4D00741D43F4B1A6802F00702AA426A
:1046700066D8226851076CD4130707D53A4A2169D6
:10468000936823F4604343EAC1039360FFF7AAFFF2
:10469000354B364A9B68C3F30313D35CD840344B85
:1046A0001860344B1868FEF7A5FD0020CEE7CAB2AB
:1046B0001A701B6803F007038B42C6D1CEE72A4B62
:1046C00012F0040F1EBF996841F4E051996016077B
:1046D00042BF996841F4604199602349A0688B68A2
:1046E00023F0F00303438B60BBE762681E4B012A93
:1046F0001CD11B6813F4003FA7D01B4EB36823F0F6
:1047000003031343B360FEF7BFFD41F28838074649
:10471000B368626803F00C03B3EB820FA3D0FEF71B
:10472000B3FDC01B4045F3D903208FE7911E01293B
:104730001B6802D813F0007FDEE713F0020FDBE7FF
:10474000EAB21A701B6803F00703AB427FF47DAF37
:104750008FE70549E0688B6823F4E05303438B60DF
:104760008AE700BF003C02400038024064AC000809
:104770000000002008000020044B054A9B68C3F39A
:104780008223D35C034A1068D84070470038024047
:1047900074AC000800000020044B054A9B68C3F37A
:1047A0004233D35C034A1068D84070470038024057
:1047B00074AC000800000020036A23F001030362C8
:1047C000036A70B5446882690D6822F073022A4357
:1047D0008D6823F002032B430E4DA84202D00E4EEB
:1047E000B04210D1CE6823F008033343A84223F02F
:1047F000040302D0084DA84205D1D1E9055624F49E
:10480000407435432C43446082614A6842630362CA
:1048100070BD00BF0000014000040140036A23F4A2
:1048200080730362036A70B54468C2690D6822F040
:1048300073022A438D6823F4007343EA0523114D64
:10484000A84203D005F58065A84214D1CD6823F4B1
:10485000006343EA05230B4DA84223F4806303D091
:1048600005F58065A84206D1D1E9055624F44054E7
:10487000354344EA05144460C2614A68C263036276
:1048800070BD00BF00000140036A23F4805303623F
:10489000036A30B54468C2690D6822F4E64242EA10
:1048A00005228D6823F4005343EA0533084DA842DE
:1048B00003D005F58065A84204D14D6924F48044F5
:1048C00044EA85144460C2614A680264036230BDF0
:1048D00000000140704730B590F83E2090F83F301E
:1048E00090F8425090F84340D2B2DBB2EDB2E4B25D
:1048F000C9B9012A46D1012D46D1022380F83E30A4
:1049000080F8423003681A6A22F001021A621A6AB9
:1049100042F001021A620268136843F00103136057
:104920000023184630BD042911D1012B2AD1012CB6
:10493000F7D1022380F83F3080F8433003681A6AC9
:1049400022F010021A621A6A42F01002E2E7012A0B
:1049500018D1012B18D1012DE3D1012CE1D1022373
:1049600080F83E3080F83F3080F8423080F84330A5
:1049700003681A6A22F001021A621A6A42F00102FE
:104980001A62DCE70123CCE71346CAE7304A036822
:10499000904212D0B0F1804F0FD0A2F57C429042ED
:1049A0000BD002F58062904207D002F580629042FF
:1049B00003D002F57842904219D14A6823F070037F
:1049C0001343234A904229D0B0F1804F26D0A2F55C
:1049D0007C42904222D002F5806290421ED002F5C5
:1049E000806290421AD002F57842904216D0194A5D
:1049F000904213D002F5806290420FD002F580629F
:104A000090420BD0A2F59832904207D002F5806216
:104A1000904203D002F58062904203D1CA6823F429
:104A2000407313434A6923F08003134303608B6888
:104A3000C3620B688362064B984203D003F5806320
:104A4000984201D10B69036301234361704700BFA2
:104A5000000001400040014010B5044630B390F81A
:104A60003D3003F0FF021BB980F83C20FEF7F8F957
:104A70000223206884F83D30211DFFF787FF0123C2
:104A800084F84630002084F83E3084F83F3084F8C3
:104A9000403084F8413084F8423084F8433084F860
:104AA000443084F8453084F83D3010BD0120FCE7E7
:104AB00010B5044630B390F83D3003F0FF021BB947
:104AC00080F83C20FFF706FF0223206884F83D3081
:104AD000211DFFF75BFF012384F84630002084F896
:104AE0003E3084F83F3084F8403084F8413084F818
:104AF000423084F8433084F8443084F8453084F8F8
:104B00003D3010BD0120FCE7F8B50D4604460028F5
:104B10004DD090F83D3003F0FF021BB980F83C20E7
:104B2000FEF7E6F92146022384F83D3051F8040BE4
:104B3000836823F4804323F007038360FFF726FF95
:104B400020682B6886688269A968076A1E43AB697A
:104B500022F4407222F0030241EA0323134323F4B8
:104B60007C422B69E9691B0143EA0123E9680B4395
:104B7000296A22F0FC0243EA01331343696927F0F2
:104B8000AA026F68866047EA011783611743012311
:104B9000076284F84630002084F83E3084F83F30C5
:104BA00084F8423084F8433084F83D30F8BD012069
:104BB000FCE70000036A23F010030362036A70B588
:104BC000446882690D6822F4E64242EA05228D6853
:104BD00023F0200343EA0513104DA84203D005F546
:104BE0008065A84214D1CD6823F0800343EA051301
:104BF0000A4DA84223F0400303D005F58065A84282
:104C000006D1D1E9055624F44064354344EA8504CD
:104C1000446082614A688263036270BD00000140A3
:104C200070B590F83C30012B0546144654D0012253
:104C3000082C80F83C203ED007D8CCB1042C29D0D9
:104C4000002385F83C30104670BD0C2CF8D100686C
:104C5000FFF71AFE2B680969DA6942F40062DA612B
:104C6000DA6922F48062DA61DA6942EA012231E02B
:104C70000068FFF7A1FD2B6809699A6942F00802F4
:104C80009A619A6922F004029A619A690A439A61C8
:104C90000022D5E70068FFF78DFF2B6809699A6944
:104CA00042F400629A619A6922F480629A619A6978
:104CB00042EA0122EBE70068FFF7B0FD2B680969C3
:104CC000DA6942F00802DA61DA6922F00402DA6194
:104CD000DA690A43DA61DBE70222B4E710B58468D7
:104CE000114324F47F4441EA03232343836010BD2E
:104CF00070B590F83C30012B04464FF0020300F0F1
:104D00009180012280F83D3080F83C200068836863
:104D100023F47F4323F0770383600B68602B52D02A
:104D200033D8402B67D016D8202B0DD00AD833F0BB
:104D3000100109D0012384F83D30002384F83C3071
:104D4000104670BD302BF5D1826822F070021343FB
:104D500043F0070317E0502BECD14A68CE68016A94
:104D6000056A25F001050562836921F00A0123F037
:104D7000F00343EA06130A4383610262836823F067
:104D8000700343F05703836011E0B3F5805F0ED0EA
:104D9000B3F5005F0DD0702BCCD1CB68D1E90121E8
:104DA000FFF79CFF2268936843F07703936000222B
:104DB000C0E7CB68D1E90121FFF790FF2268936833
:104DC00043F48043F2E74D68CE68016A21F0100198
:104DD00001628269036A22F4704223F0A00343EA6D
:104DE000051342EA063282610362836823F070038E
:104DF00043F06703C7E74A68CE68016A056A25F091
:104E000001050562836921F00A0123F0F00343EAFA
:104E100006130A4383610262836823F0700343F040
:104E20004703B0E71A468BE7036A01F01F0110B58C
:104E300001248C4023EA04030362036A8A401A4374
:104E4000026210BD10B5044629B990F83E30012B1E
:104E50001DD0012032E0042907D190F83F30012B0A
:104E6000F7D1022380F83F3014E0082907D190F8E9
:104E70004030012BEDD1022380F840300AE090F859
:104E80004130012BE5D1022380F8413002E00223BA
:104E900080F83E3001222068FFF7C6FF2368194AD8
:104EA00093420CD018498B4209D0B3F1804F0DD1F9
:104EB0009A6802F00702062A1FD1002010BD596C23
:104EC000934241F400415964F2D0EEE70F4A934215
:104ED000EED002F580629342EAD002F580629342FE
:104EE000E6D002F578429342E2D002F57052934246
:104EF000DED0A2F594329342DAD01A6842F0010271
:104F00001A60DAE70000014000040140000400409C
:104F1000FFF798BF30B590F83C30012B4FF00203FB
:104F200032D080F83D3003680D685C689A6824F0E0
:104F300070042C435C60154CA3421AD0B3F1804F2F
:104F400017D0A4F57C44A34213D004F58064A34297
:104F50000FD004F58064A3420BD004F57844A3423B
:104F600007D004F57054A34203D0A4F59434A342AF
:104F700004D1496822F080020A439A60012380F834
:104F80003D30002380F83C30184630BD0000014021
:104F900090F83C30012B1FD0CB688A6823F4407313
:104FA00013434A6823F4806313430A6823F40063BD
:104FB00013430A6923F4805313434A6923F40053CB
:104FC0001343CA6923F480431343026853640023E4
:104FD00080F83C301846704702207047026802F1A2
:104FE0000C0353E8003F23F490730C3242E8003185
:104FF00002680029F2D102F1140353E8003F23F0C4
:10500000010302F1140C4CE800310029F3D1036BC9
:10501000012B0BD102F10C0353E8003F23F01003E6
:1050200002F10C0C4CE800310029F3D1202380F868
:105030003E300023036370470268C16838B51369C6
:1050400023F440530B431361054683680069D1681C
:10505000034368690343E86921F4164121F00C0118
:1050600003430B43D3605369A96923F440730B4393
:1050700053611F4B9A4203D003F580639A4224D1B7
:10508000FFF78AFBEA691923B2F5004FA0FB030181
:10509000D5E900431CD11A4692184FF000035B413A
:1050A000FBF7D2FD6421B0FBF1F501FB1503DB003A
:1050B0003233B3FBF1F303F007025B0002EB05129E
:1050C00003F4F8731344A36038BDFFF755FBD9E729
:1050D0009A009B0FFBF7B8FD6422B0FBF2F102FBD4
:1050E00011031B013233B3FBF2F303EB0113EAE7C5
:1050F00000100140F8B504460E4617461D462268CA
:10510000136836EA030301D1002028E06B1CF7D0B6
:1051100025B1FEF7B9F8C01B8542F0D2226802F132
:105120000C0353E8003F23F4D0730C3242E8003004
:1051300021680028F2D101F1140353E8003F23F065
:10514000010301F1140040E80032002AF3D12023CA
:1051500084F83D3084F83C2084F83E300320F8BDCC
:1051600010B5044640B390F83D3003F0FF021BB980
:1051700080F83C20FDF75CFF2268242384F83D3052
:10518000D36823F40053D3602046FFF755FF23680C
:105190001A6922F490421A615A6922F02A025A616D
:1051A000DA6842F40052DA6000202023206484F898
:1051B0003D3084F83E3010BD0120FCE7F7B51746BE
:1051C00090F83D200093202A04460E4649D100293C
:1051D00045D0002F43D090F83C20012A41D0012235
:1051E00080F83C2000252122056480F83D20FEF750
:1051F0004BF8A168009BA784B1F5805F0246E78465
:1052000003D1216909B935460E46002184F83C10C6
:10521000E18C89B241B940212046FFF76BFF60B9AC
:10522000202384F83D3009E080212046CDE9002389
:10523000FFF760FFDDE9002310B1032003B0F0BDEC
:1052400020684EB935F8021BC1F308014160E18CBA
:10525000013989B2E184DBE716F8011BF6E701208A
:10526000ECE70220EAE77047704708B5806B00233F
:10527000C385C384FFF7F8FF08BD704713B590F8E6
:105280003E30222B53D18168836A0268B1F5805F7A
:105290003DD1016900293DD15268C2F3080223F8CB
:1052A000022BC48D8362013CA4B2C485002C2CD196
:1052B0000368DA6822F02002DA60DA6822F4807289
:1052C000DA605A6922F001025A61202380F83E30E8
:1052D000036B012B036827D1046303F10C0252E82E
:1052E000002F22F0100203F10C0444E800210029F1
:1052F000F3D11A68D20605D501911A6801925B684C
:105300000193019B818DFFF7B8FF002010E039B9B0
:10531000016929B95268D2B21A70836A0133C0E7B1
:10532000526802F07F02F7E7FCF728FDEDE7022064
:1053300002B010BD036837B51A68D9685D6912F00C
:105340000F0F044608D1950668D58D0666D503B0C3
:10535000BDE83040FFF792BF05F0010001F4907501
:1053600005435BD0D50705D5CB0542BF236C43F081
:1053700001032364550704D518B1236C43F00203DD
:105380002364930704D518B1236C43F0040323640A
:10539000150707D501F0200303431EBF236C43F01C
:1053A00008032364236C002B32D0900604D58A06B0
:1053B00002D52046FFF762FF23685B69256C03F086
:1053C000400305F008051D43204623D0FFF706FEE5
:1053D000226853695B0618D502F1140353E8003FB5
:1053E00023F0400302F1140040E800310029F3D11A
:1053F000A06B50B1724B0365FEF71EFA40B1A06B73
:10540000036D03B0BDE8304018472046FFF72CFF7E
:1054100003B030BDFFF728FF2564F9E7206B0128B2
:1054200040F09180D50640F18E80C80640F18B8017
:10543000002201921A6801925A680192019A5A69EF
:1054400055064CD5A16B0A68526892B2002ADFD08B
:10545000A08D9042DCD9E285CA69B2F5807F36D052
:1054600003F10C0252E8002F22F4807203F10C00C9
:1054700040E800210029F3D103F1140252E8002F83
:1054800022F0010203F1140040E800210029F3D1C9
:1054900003F1140252E8002F22F0400203F114003D
:1054A00040E800210029F3D1202284F83E20216326
:1054B00003F10C0252E8002F22F0100203F10C005D
:1054C00040E800210029F3D1A06BFEF771F9E38DCC
:1054D000A18DC91A89B22046FFF7CFFE98E7E18D6A
:1054E0008AB2E18D89B2002992D0A18D891A89B240
:1054F00000298DD003F10C0252E8002F22F49072A3
:1055000003F10C0545E800200028F3D103F1140253
:1055100052E8002F22F0010203F1140545E80020B3
:105520000028F3D1202284F83E20206303F10C02EE
:1055300052E8002F22F0100203F10C0545E800208C
:105540000028F3D1C7E7100628D50D0626D594F814
:105550003D20212A7FF45CAFA168226AB1F5805F0B
:1055600017D12169A9B932F8021BC1F308015960AA
:105570002262E28C013A92B2E284002A7FF448AFC0
:10558000DA6822F08002DA60DA6842F04002DA601B
:105590003EE7511C216212785A60EAE750067FF517
:1055A00037AF4A067FF534AFDA6822F04002DA609E
:1055B000202384F83D302046FFF755FE28E700BF42
:1055C0006B520008C285828522230022026480F883
:1055D0003E30036880F83C208162D96841F48071D4
:1055E000D960596941F001015961D96841F0200140
:1055F000D9601046704770B490F83E60202E10D1EC
:1056000061B15AB190F83C40012C0AD0012480F8D5
:105610003C400024046370BCFFF7D4BF012070BC81
:1056200070470220FBE70000EFF305832BB9064B20
:10563000186828B901221A6070476FF0050070479A
:105640004FF0FF30704700BF7404002010B5EFF337
:1056500005845CB9084B1A68012A0AD1074AD47735
:1056600002221A6000F072FE204610BD6FF00500A5
:10567000FBE74FF0FF30F8E77404002000ED00E096
:10568000F0B587B0144600220B460592EFF3058271
:10569000D2B9C8B1002C2FD0A569002D08BF18259C
:1056A000691E3729AC462BD86168C90728D46669BA
:1056B0006EB1B208D4E9027E216857B1BEF15B0F2A
:1056C00002D9246904B1EEB9059807B0F0BD802273
:1056D000F0E7BEF1000FF7D12469002CF4D10C469D
:1056E00005A9CDE900C192B2214600F001FE0128D2
:1056F0001CBF00230593E7E74FF0180C8022EFE76B
:105700001046E2E7CDE90147009500F0B9FD0590AC
:10571000DAE710B5EFF3058424B910B100F072FF99
:10572000204610BD6FF00500FBE70000034B03604F
:10573000034B0B6080231360704700BF18040020E8
:1057400018020020034B0360034B0B604FF480737F
:1057500013607047780800207804002000F10803E7
:105760004FF0FF32C0E9022343600361002303606E
:10577000704700230361704743684B609A688A60F2
:105780009A6851609960036808610133036070474B
:1057900030B50C68631C0AD103695A684A6091608D
:1057A0008B605960036808610133036030BD00F10C
:1057B0000802134652681568A542FAD9EDE7D0E908
:1057C000011203698A6051605968814208BF5A60BA
:1057D000002202611A68013A1A601868704710B511
:1057E000044601F07FFBA46B01F09EFBB4FA84F049
:1057F000400910BDF8B51546026C866B044652B9D7
:10580000076847BB806801F079F8A7600546013654
:10581000A6632846F8BD65B9406801F0CBFD636812
:10582000226C1344A26863609342F0D323686360E0
:10583000EDE7C06801F0BEFD226CE36851429B1A9F
:105840002268E36093423EBFA3685B18E360022DC9
:1058500001D116B1013E0025D9E73546D7E7034609
:1058600010B41A6C08466AB1DC68996814448C421A
:1058700028BF1968DC6028BFD960D9685DF8044B7F
:1058800001F098BD5DF8044B704770B5044601F017
:1058900029FB94F8455004F124066DB2002D14DC68
:1058A000FF2384F8453001F03FFB01F01BFB94F827
:1058B000445004F110066DB2002D12DCFF2384F871
:1058C0004430BDE8704001F02FBB636A002BE7D085
:1058D000304600F02FFF08B100F0B8FF013D6DB277
:1058E000DCE72369002BE9D0304600F023FF08B144
:1058F00000F0ACFF013D6DB2DEE7000038B50D46AB
:10590000044640B94FF0500383F31188BFF36F8F03
:10591000BFF34F8FFEE701F0E5FAD4E90F312268BB
:1059200062604B43D0185B1A1344A060E360002010
:10593000FF23A06384F8443084F8453095B9236987
:1059400063B104F1100000F0F5FE38B10A4B4FF0DE
:1059500080521A60BFF34F8FBFF36F8F01F0E4FAEC
:10596000012038BD04F11000FFF7F8FE04F1240017
:10597000FFF7F4FEF2E700BF04ED00E013B51C46AC
:1059800040B94FF0500383F31188BFF36F8FBFF31B
:105990004F8FFEE743B94FF0500383F31188BFF3F5
:1059A0006F8FBFF34F8FFEE74AB191B94FF05003AD
:1059B00083F31188BFF36F8FBFF34F8FFEE741B1C1
:1059C0004FF0500383F31188BFF36F8FBFF34F8FF6
:1059D000FEE750230193019B502B08D04FF050035A
:1059E00083F31188BFF36F8FBFF34F8FFEE700295A
:1059F00008BF2246019B22600123C4E90F0184F8FD
:105A0000463019462046FFF779FF9DF8103084F89C
:105A10004C30204602B010BD2DE9FF478846019268
:105A20001F46044640B94FF0500383F31188BFF37B
:105A30006F8FBFF34F8FFEE751B9036C43B14FF047
:105A4000500383F31188BFF36F8FBFF34F8FFEE7CF
:105A5000022F0BD1E36B012B08D04FF0500383F3DF
:105A60001188BFF36F8FBFF34F8FFEE700F0F4FE96
:105A7000064650B9019B4BB14FF0500383F3118898
:105A8000BFF36F8FBFF34F8FFEE70026DFF8E8A06C
:105A90004FF0000937E0019D1DB901F045FA0020E3
:105AA00050E016B902A800F089FE01F03DFA00F0BE
:105AB00091FC01F017FA94F84430FF2B08BF84F8EA
:105AC000449094F84530FF2B08BF84F8459001F0CE
:105AD0002BFA01A902A800F07DFE002846D101F0B2
