:020000040800F2
:10000000000002204529000855280008572800084C
:10001000592800085B2800085D280008000000003F
:100020000000000000000000000000004161000826
:100030005F28000800000000D16100086128000866
:100040009529000895290008952900089529000898
:100050009529000895290008952900089529000888
:100060009529000895290008952900089529000878
:100070009529000895290008952900089529000868
:100080009529000895290008952900089529000858
:100090009529000895290008952900089529000848
:1000A0009529000895290008952900089529000838
:1000B0009529000895290008952900089529000828
:1000C0009529000895290008952900089529000818
:1000D0009529000895290008952900087928000825
:1000E00095290008952900089529000895290008F8
:1000F00095290008952900089529000895290008E8
:1001000095290008952900089529000895290008D7
:1001100095290008952900089529000895290008C7
:1001200095290008952900089529000895290008B7
:1001300095290008952900089529000895290008A7
:100140009529000895290008952900089529000897
:100150009529000895290008952900089529000887
:100160009529000895290008952900089529000877
:10017000952900089529000895290008000000002D
:080180009529000895290008EB
:1001900010B5054C237833B9044B13B10448AFF3C1
:1001A00000800123237010BDE40100200000000046
:1001B000CC9D000808B5034B1BB103490348AFF3BE
:1001C000008008BD00000000E8010020CC9D000870
:1001D000034613F8012B002AFBD1181A0138704787
:1001E00001F0FF01102A2BDB10F0070F08D010F8E8
:1001F000013B013A8B422DD010F0070F42B3F6D1EC
:10020000F0B441EA012141EA014122F007047FF004
:1002100000070023F0E80256083C85EA010586EA5B
:10022000010685FA47F5A3FA87F586FA47F6A5FA97
:1002300087F68EB9EED1F0BC01F0FF0102F00702A3
:1002400032B110F8013B013A83EA010313B1F8D14E
:100250000020704701387047002D06BF354603382F
:10026000073815F0010F07D1013015F4807F02BF68
:10027000013015F4C03F0130F0BC0138704700BFB9
:1002800081F0004102E000BF83F0004330B54FEA47
:1002900041044FEA430594EA050F08BF90EA020FB4
:1002A0001FBF54EA000C55EA020C7FEA645C7FEA47
:1002B000655C00F0E2804FEA5454D4EB5555B8BF6A
:1002C0006D420CDD2C4480EA020281EA030382EADB
:1002D000000083EA010180EA020281EA0303362D6D
:1002E00088BF30BD11F0004F4FEA01314FF4801C40
:1002F0004CEA113102D0404261EB410113F0004F52
:100300004FEA03334CEA133302D0524263EB430308
:1003100094EA050F00F0A780A4F10104D5F1200EA6
:100320000DDB02FA0EFC22FA05F2801841F1000101
:1003300003FA0EF2801843FA05F359410EE0A5F1D5
:1003400020050EF1200E012A03FA0EFC28BF4CF006
:10035000020C43FA05F3C01851EBE37101F00045BC
:1003600007D54FF0000EDCF1000C7EEB00006EEBC9
:100370000101B1F5801F1BD3B1F5001F0CD3490853
:100380005FEA30004FEA3C0C04F101044FEA4452AA
:1003900012F5800F80F09A80BCF1004F08BF5FEA31
:1003A000500C50F1000041EB045141EA050130BD11
:1003B0005FEA4C0C404141EB0101013C28BFB1F523
:1003C000801FE9D291F0000F04BF01460020B1FA6E
:1003D00081F308BF2033A3F10B03B3F120020CDA41
:1003E0000C3208DD02F1140CC2F10C0201FA0CF01F
:1003F00021FA02F10CE002F11402D8BFC2F1200C84
:1004000001FA02F120FA0CFCDCBF41EA0C01904039
:10041000E41AA2BF01EB0451294330BD6FEA040482
:100420001F3C1CDA0C340EDC04F11404C4F120026D
:1004300020FA04F001FA02F340EA030021FA04F37F
:1004400045EA030130BDC4F10C04C4F1200220FAD6
:1004500002F001FA04F340EA0300294630BD21FA14
:1004600004F0294630BD94F0000F83F4801306BFDA
:1004700081F480110134013D4EE77FEA645C18BFCE
:100480007FEA655C29D094EA050F08BF90EA020F65
:1004900005D054EA000C04BF1946104630BD91EA5D
:1004A000030F1EBF0021002030BD5FEA545C05D160
:1004B0004000494128BF41F0004130BD14F580049F
:1004C0003CBF01F5801130BD01F0004545F0FE4113
:1004D00041F470014FF0000030BD7FEA645C1ABF48
:1004E000194610467FEA655C1CBF0B46024650EA7F
:1004F000013406BF52EA033591EA030F41F40021AB
:1005000030BD00BF90F0000F04BF0021704730B530
:100510004FF4806404F132044FF000054FF0000105
:1005200050E700BF90F0000F04BF0021704730B5C6
:100530004FF4806404F1320410F0004548BF40429B
:100540004FF000013EE700BF42004FEAE2014FEAF0
:1005500031014FEA02701FBF12F07F4393F07F4FCB
:1005600081F06051704732F07F4208BF704793F0CE
:100570007F4F04BF41F40021704730B54FF46074E1
:1005800001F0004521F000411CE700BF50EA0102E4
:1005900008BF704730B54FF000050AE050EA01028D
:1005A00008BF704730B511F0004502D5404261EBFD
:1005B00041014FF4806404F132045FEA915C3FF43E
:1005C000D8AE4FF003025FEADC0C18BF03325FEADB
:1005D000DC0C18BF033202EBDC02C2F1200300FA8C
:1005E00003FC20FA02F001FA03FE40EA0E0021FAB1
:1005F00002F11444BDE600BF70B54FF0FF0C4CF49F
:10060000E06C1CEA11541DBF1CEA135594EA0C0F50
:1006100095EA0C0F00F0DEF82C4481EA030621EA8B
:100620004C5123EA4C5350EA013518BF52EA0335C6
:1006300041F4801143F4801338D0A0FB02CE4FF078
:100640000005E1FB02E506F00042E0FB03E54FF0A8
:100650000006E1FB03569CF0000F18BF4EF0010EA0
:10066000A4F1FF04B6F5007F64F5407404D25FEA9C
:100670004E0E6D4146EB060642EAC62141EA55514F
:100680004FEAC52040EA5E504FEACE2EB4F1FD0C91
:1006900088BFBCF5E06F1ED8BEF1004F08BF5FEA0F
:1006A000500E50F1000041EB045170BD06F00046C1
:1006B00046EA010140EA020081EA0301B4EB5C046E
:1006C000C2BFD4EB0C0541EA045170BD41F4801166
:1006D0004FF0000E013C00F3AB8014F1360FDEBF8B
:1006E000002001F0004170BDC4F10004203C35DA67
:1006F0000C341BDC04F11404C4F1200500FA05F3EA
:1007000020FA04F001FA05F240EA020001F000428A
:1007100021F0004110EBD37021FA04F642EB060100
:100720005EEA430E08BF20EAD37070BDC4F10C042A
:10073000C4F1200500FA04F320FA05F001FA04F2EE
:1007400040EA020001F0004110EBD37041F10001DA
:100750005EEA430E08BF20EAD37070BDC4F12005E5
:1007600000FA05F24EEA020E20FA04F301FA05F24D
:1007700043EA020321FA04F001F0004121FA04F2F5
:1007800020EA020000EBD3705EEA430E08BF20EAC5
:10079000D37070BD94F0000F0FD101F000464000FF
:1007A00041EB010111F4801F08BF013CF7D041EA81
:1007B000060195F0000F18BF704703F00046520085
:1007C00043EB030313F4801F08BF013DF7D043EA56
:1007D0000603704794EA0C0F0CEA135518BF95EA0C
:1007E0000C0F0CD050EA410618BF52EA4306D1D193
:1007F00081EA030101F000414FF0000070BD50EAB2
:10080000410606BF1046194652EA430619D094EA3B
:100810000C0F02D150EA013613D195EA0C0F05D125
:1008200052EA03361CBF104619460AD181EA030179
:1008300001F0004141F0FE4141F470014FF0000031
:1008400070BD41F0FE4141F4780170BD70B54FF0CC
:10085000FF0C4CF4E06C1CEA11541DBF1CEA13554C
:1008600094EA0C0F95EA0C0F00F0A7F8A4EB05042E
:1008700081EA030E52EA03354FEA013100F0888025
:100880004FEA03334FF0805545EA131343EA1263EE
:100890004FEA022245EA111545EA10654FEA0026A3
:1008A0000EF000419D4208BF964244F1FD0404F55C
:1008B000407402D25B084FEA3202B61A65EB0305B8
:1008C0005B084FEA32024FF480104FF4002CB6EB75
:1008D000020E75EB030E22BFB61A754640EA0C00F5
:1008E0005B084FEA3202B6EB020E75EB030E22BF35
:1008F000B61A754640EA5C005B084FEA3202B6EB76
:10090000020E75EB030E22BFB61A754640EA9C0034
:100910005B084FEA3202B6EB020E75EB030E22BF04
:10092000B61A754640EADC0055EA060E18D04FEAC2
:10093000051545EA16754FEA06164FEAC30343EA62
:1009400052734FEAC2025FEA1C1CC0D111F4801F2F
:100950000BD141EA00014FF000004FF0004CB6E728
:1009600011F4801F04BF01430020B4F1FD0C88BFC7
:10097000BCF5E06F3FF6AFAEB5EB030C04BFB6EBD2
:10098000020C5FEA500C50F1000041EB045170BDC5
:100990000EF0004E4EEA113114EB5C04C2BFD4EBF2
:1009A0000C0541EA045170BD41F480114FF0000E76
:1009B000013C90E645EA060E8DE60CEA135594EAF2
:1009C0000C0F08BF95EA0C0F3FF43BAF94EA0C0FF5
:1009D0000AD150EA01347FF434AF95EA0C0F7FF46A
:1009E00025AF104619462CE795EA0C0F06D152EABE
:1009F00003353FF4FDAE1046194622E750EA4106A2
:100A000018BF52EA43067FF4C5AE50EA41047FF4B2
:100A10000DAF52EA43057FF4EBAE12E74FF0FF3C17
:100A200006E000BF4FF0010C02E000BF4FF0010CE8
:100A30004DF804CD4FEA410C7FEA6C5C4FEA430C61
:100A400018BF7FEA6C5C1BD001B050EA410C0CBFB0
:100A500052EA430C91EA030F02BF90EA020F002012
:100A6000704710F1000F91EA030F58BF994208BF79
:100A700090422CBFD8176FEAE37040F00100704736
:100A80004FEA410C7FEA6C5C02D150EA013C07D18D
:100A90004FEA430C7FEA6C5CD6D152EA033CD3D0D8
:100AA0005DF8040B704700BF8446104662468C46D2
:100AB0001946634600E000BF01B5FFF7B7FF002805
:100AC00048BF10F1000F01BD4DF808EDFFF7F4FF2E
:100AD0000CBF012000205DF808FB00BF4DF808EDB9
:100AE000FFF7EAFF34BF012000205DF808FB00BFDC
:100AF0004DF808EDFFF7E0FF94BF012000205DF8FE
:100B000008FB00BF4DF808EDFFF7CEFF94BF0120B2
:100B100000205DF808FB00BF4DF808EDFFF7C4FFAB
:100B200034BF012000205DF808FB00BF4FEA410CF4
:100B30007FEA6C5C02D150EA013C0AD14FEA430CD7
:100B40007FEA6C5C02D152EA033C02D14FF0000014
:100B500070474FF0010070474FEA410212F5001252
:100B600015D211D56FF47873B3EB625212D94FEAF4
:100B7000C12343F0004343EA505311F0004F23FADE
:100B800002F018BF404270474FF00000704750EA33
:100B9000013005D111F0004008BF6FF000407047F0
:100BA0004FF00000704700BF4FEA4102B2F1E0434E
:100BB00024BFB3F5001CDCF1FE5C0DD901F0004C44
:100BC0004FEAC0024CEA5070B2F1004F40EB830094
:100BD00008BF20F00100704711F0804F21D113F1C0
:100BE0003872BCBF01F00040704741F480114FEAF9
:100BF0005252C2F11802C2F1200C10FA0CF320FA82
:100C000002F018BF40F001004FEAC1234FEAD3239E
:100C100003FA0CFC40EA0C0023FA02F34FEA430308
:100C2000CCE77FEA625307D150EA01331EBF4FF091
:100C3000FE4040F44000704701F0004040F0FE40AC
:100C400040F40000704700BF53B94AB9002908BFFB
:100C500000281CBF4FF0FF314FF0FF3000F06EB99D
:100C6000ADF1080C6DE904CE00F006F8DDF804E003
:100C7000DDE9022304B070472DE9F047089D0446E2
:100C80008C46002B40F083808A42174647D9B2FA3F
:100C900082F242B1C2F1200024FA00F09140974064
:100CA00040EA010C94404FEA1748230CBCFBF8F6CD
:100CB0001FFA87FE08FB16C143EA014306FB0EF14B
:100CC000994209D9FB1806F1FF3080F01981994249
:100CD00040F21681023E3B445B1AA4B2B3FBF8F02B
:100CE00008FB103344EA034400FB0EFEA64509D975
:100CF0003C1900F1FF3380F00581A64540F20281E6
:100D000002383C4440EA0640A4EB0E0400261DB124
:100D1000D4400023C5E900433146BDE8F08702B95D
:100D2000FFDEB2FA82F2002A50D1CB1B4FEA174EF7
:100D30001FFA87F80126B3FBFEFC210C0EFB1C33C7
:100D400041EA034108FB0CF38B4207D979180CF1F7
:100D5000FF3002D28B4200F2E9808446C91AA3B266
:100D6000B1FBFEF00EFB101143EA014408FB00F852
:100D7000A04507D93C1900F1FF3302D2A04500F28B
:100D8000D9801846A4EB080440EA0C40BFE78B4228
:100D900009D9002D00F0B1800026C5E900013046D8
:100DA0003146BDE8F087B3FA83F6002E4AD18B4274
:100DB00002D3824200F2B880841A61EB0301012061
:100DC0008C46002DA8D0C5E9004CA5E7C2F1200350
:100DD00020FA03F6974001FA02F04FEA174ED94085
:100DE0003043030CB1FBFEF61FFA87F80EFB161119
:100DF00043EA014306FB08F1994204FA02F409D9D7
:100E0000FB1806F1FF3C80F08D80994240F28A8009
:100E1000023E3B445B1A81B2B3FBFEF00EFB103383
:100E200041EA034100FB08F38B4207D9791800F12E
:100E3000FF3C73D28B4271D902383944CB1A40EA55
:100E4000064678E7C6F1200C03FA06F422FA0CF302
:100E50001C4320FA0CF701FA06F34FEA144E21FA6C
:100E60000CF11F433B0CB1FBFEF91FFA84F80EFB9B
:100E7000191143EA014109FB08FA8A4502FA06F210
:100E800000FA06F308D9611809F1FF3048D28A4503
:100E900046D9A9F102092144A1EB0A01BFB2B1FB75
:100EA000FEF00EFB101147EA014700FB08F8B845B9
:100EB00007D9E71900F1FF312ED2B8452CD90238F5
:100EC000274440EA0940A7EB0807A0FB02894F45E9
:100ED000C64649461AD317D05DB1B3EB0E0267EB95
:100EE000010707FA0CFCF2404CEA0202F740C5E9A0
:100EF000002700263146BDE8F0872E4628460BE73E
:100F00000646E9E61846FDE64345E5D2B8EB020E93
:100F100069EB04010138DFE70846D2E760468DE758
:100F20008146B9E7664675E730464AE7ACF1020C00
:100F3000394413E702383C4424E700BF704700BF40
:100F400070B50A46044601B101221348124E4FF40F
:100F5000807102F02FF9082500222021304602F08E
:100F600029F923064CBF012200224021304602F01D
:100F700021F9013D01222021304602F01BF96400D5
:100F800015F0FF05E4B2E7D1BDE870400248012248
:100F90004FF4807102F00EB90010024070B50F4E90
:100FA000B02400212046FFF7CBFF00210846FFF7C1
:100FB000C7FF00211020FFF7C3FF002516F83500FA
:100FC00001210135FFF7BCFF802DF7D10134E4B2D8
:100FD000B82C06F10106E4D170BD00BF244B0020FF
:100FE000084908230020002201F832000132802A3B
:100FF000FAD1013B13F0FF0301F10101F3D1FFF737
:10100000CDBF00BF244B0020030630B513D43F29C9
:1010100011D801F007050A4CC908C1F10701C9B28E
:1010200004EBC0000123C5F1070503FA05F5435C95
:1010300012B12B43435430BD23EA0503FAE700BF46
:10104000244B00202DE9F74F1F46A2F1200A1F4B29
:101050009DF830B05FFA8AFA03EB0A1300931C4B39
:101060000AEB4A0A03EB8A038146884601930C4641
:101070000026B74202D103B0BDE8F08F0C2F0CBFA1
:10108000019B009B9D5D04F108035FFA83FA2B0628
:1010900058BFBBFA8BF2214604F101044CBF5A46FB
:1010A00052094846E4B2FFF7AFFFA4EB08026D0017
:1010B000BA42EDB207D109F101005FFA80F9C246E8
:1010C00001365446D5E7A245E1D1F9E784A20008EC
:1010D000109E0008F7B504460D46561E012716F867
:1010E000013F0BB903B0F0BD7A2C82BF1035EDB2D1
:1010F00000243A2D03D9FFF773FF00252C460097F3
:10110000204632780C2329460834FFF79BFFE4B2CF
:10111000E5E7000010B502F053F8404B404C1A6F61
:1011200022F001021A671A6F22F004021A6702F015
:1011300055F800228021204602F03CF8642001F09E
:101140007BFC01222046802102F034F80021AE20F1
:10115000FFF7F6FE0021D520FFF7F2FE0021502018
:10116000FFF7EEFE0021A820FFF7EAFE00213F2056
:10117000FFF7E6FE0021D320FFF7E2FE002108463C
:10118000FFF7DEFE00214020FFF7DAFE00218D2070
:10119000FFF7D6FE00211420FFF7D2FE0021202009
:1011A000FFF7CEFE00210220FFF7CAFE0021A1209A
:1011B000FFF7C6FE0021C020FFF7C2FE0021DA20A3
:1011C000FFF7BEFE00211220FFF7BAFE00218120AA
:1011D000FFF7B6FE0021EF20FFF7B2FE0021D92075
:1011E000FFF7AEFE0021F120FFF7AAFE0021DB2071
:1011F000FFF7A6FE00213020FFF7A2FE0021A42069
:10120000FFF79EFE0021A620FFF79AFE0021AF20E7
:10121000FFF796FEBDE81040FFF7E2BE003802403F
:101220000010024037B50479012C39D001248480A4
:101230000468656825F400656560656825F4C06527
:1012400065602568ED075EBF256845F001052560EE
:10125000256825F400652560A569AD07FCD42568DF
:1012600045F4807525606569ED07FCD5256925F095
:10127000FF052943216161698D07FCD561690191F1
:101280000199A16901910199134493420AD16369BB
:101290005B07FCD5236843F40073236000230371CC
:1012A00003B030BD216912F8015B21F0FF01294331
:1012B000216161690906FCD5E7E773B50479012C62
:1012C00044D040F2011484800468656825F4006508
:1012D0006560656825F4C06565602568ED075EBFDB
:1012E000256845F001052560256825F4006541F075
:1012F00001012560A56915F00205FBD12668012BC7
:101300000CBF26F4806646F480662660266846F4A4
:10131000807626606669F607FCD5266926F0FF060A
:101320003143216161698E07FCD5616901910199A1
:10133000A169019101995E1EACB29C42016807D37C
:101340000B6843F400730B600023037102B070BD9F
:10135000AE4202BF0C6824F480640C604C696406E1
:10136000FCD5096951550135E6E707B502238DF82B
:1013700004108DF80520017A01AAFFF753FF03B08E
:101380005DF804FB13B504468DF800106A46017A37
:101390000123FFF747FF2046217A012301AAFFF727
:1013A0008CFF9DF8040002B010BD000038B5074D59
:1013B0002B788B420C4608D0032906D80A0102F08C
:1013C000F0027F21FFF7D1FF2C7038BD0002002012
:1013D00010B5064B1B78044613B10021FFF7E6FF5A
:1013E00020460021BDE81040FFF7CCBF00020020DE
:1013F00041F6D00310B50446038101604FF47A70C2
:1014000003F040FA20460021FFF7D0FF802206219A
:101410002046FFF7AAFF642003F034FA0922204691
:101420000621FFF7A2FF20460221FFF7BFFF20465B
:1014300001220021FFF799FF204603220121FFF737
:1014400094FF204601221121FFF78FFF032220463F
:101450001421FFF78AFF20460021FFF7A7FF20464F
:101460000222BDE810400F21FFF77FBFF0B5002139
:1014700085B00446FFF79AFF2D23217A8DF80330BB
:101480000DF1030220460123FFF7CCFE217A01AAC9
:1014900020460C23FFF711FF9DF806309DF80760EA
:1014A0009DF809509DF80B009DF80D109DF80E2039
:1014B0009DF804709FED247A46EA03269DF80830D3
:1014C00045EA03259DF80A3040EA03209DF80C30D8
:1014D00041EA03219DF80F3043EA02239DF80520DD
:1014E00042EA072236B212B2C4E90326B4F9302028
:1014F00000B2821A07EE902AF8EEE77AB4F93220A9
:10150000A4F84400C7EE876A09B28A1A1BB2A4F88D
:1015100048302DB26561A4F8461007EE902AF8EE27
:10152000E77AC4ED066AC7EE876AB4F934209B1ADD
:1015300007EE903AF8EEE77AC4ED076AC7EE876ADD
:10154000C4ED086A05B0F0BD000083422DE9F04FFC
:10155000054685B0642003F095F900212846FFF781
:1015600025FF0024DFF8A0B0A046274626464FF00E
:1015700064094FF02D0AB6FBF9F309FB13631BB99D
:101580003146584605F0F0FC297A8DF803A0012376
:101590000DF103022846FFF745FE0C2301AA297A24
:1015A0002846FFF78AFE9DF80A209DF80B3043EA93
:1015B000022307FA83F79DF80C209DF80D3043EACB
:1015C000022308FA83F89DF80E209DF80F300136AB
:1015D00043EA0223B6F57A7F04FA83F4CBD197FB72
:1015E000F6F198FBF6F209B212B294FBF6F31BB2D5
:1015F00029866A86AB86034805F0B6FC05B0BDE8CF
:10160000F08F00BF74A800087DA80008000000004B
:101610002DE9F04F2DED068B002189B004466BA714
:10162000D7E90067FFF7C2FE00254FF0640AB5FB5B
:10163000FAF30AFB13531BB96148294605F094FCE1
:101640002D23217A8DF813300DF11302012320464A
:10165000FFF7E8FD217A0C2305AA2046FFF72DFEAF
:101660009DF814309DF815209DF816109DF819006E
:1016700042EA03229DF8173043EA012319B208EE2B
:10168000901A9DF818100FFA82F840EA012012FB18
:1016900002F213FB03F392FBFAF293FBFAF3134407
:1016A0000FFA80FB10FB00F090FBFAF0184407EEF5
:1016B000900AF8EEE77A013517EE900AFEF744FF3C
:1016C00041EC100B07F024FF3E4B002251EC100BB5
:1016D000FEF792FFFFF768FA07EE908A08EE100A0D
:1016E000F8EEE77AC7EE887A17EE900AFEF72CFF3D
:1016F00041EC100B07F0D2FEF8EEE88A59EC108BA3
:10170000C8EE887A17EE900AFEF71EFF41EC100B28
:1017100007F0C4FE07EE90BAF8EEE77A8DED000B05
:10172000C7EE887A17EE900AFEF70EFF41EC100B19
:1017300007F0B4FE32463B46404649468DED020B6B
:10174000FEF75AFFFFF730FA07EE900A32463B46A3
:10175000DDE900013AEE27AAFEF74EFFFFF724FA73
:1017600007EE900A32463B46DDE9020179EEA79A80
:10177000FEF742FFFFF718FA07EE900AB5F57A7FF9
:1017800039EE279A7FF453AFDFED0F7A8AEE276A9E
:10179000C9EEA76A89EE277A84ED096AC4ED0A6A60
:1017A00084ED0B7A84ED0E6AC4ED0F6A84ED107A35
:1017B00009B0BDEC068BBDE8F08F00BFAFF3008031
:1017C0007DA800080000244000007A4472235D1ABE
:1017D000DCA54C40000000002DE9F84304462DED47
:1017E000028BFFF743FED4E90331626964205B4357
:1017F0004943B3FBF0F3B1FBF0F10B445243B2FBAE
:10180000F0F2134400EE103AB8EEC00A07F0E6FE1C
:10181000D4ED037AB2EE048A20EE088AB8EEE70A25
:1018200080EE080A07F0A8FED4ED047A10EE109AB4
:10183000B8EEE70A80EE080A07F09EFED4ED057ABE
:1018400010EE108AB8EEE70A80EE080A07F094FE60
:10185000A06B10EE105AFEF777FE0646E0690F46C1
:10186000FEF772FE48A3D3E90023FEF7C5FE024649
:101870000B4630463946FEF707FD45A3D3E9002362
:10188000FEF7BAFE064648460F46FEF75DFE42A347
:10189000D3E90023FEF7B0FEFFF786F9FEF754FE0A
:1018A0003FA3D3E90023FEF7A7FE02460B463046CE
:1018B0003946FEF7EBFCFFF777F9A063E06BFEF724
:1018C00043FE0646A0690F46FEF73EFE2EA3D3E96F
:1018D0000023FEF791FE02460B4630463946FEF7DE
:1018E000D3FC2BA3D3E90023FEF786FE0646404631
:1018F0000F46FEF729FE28A3D3E90023FEF77CFE5E
:10190000FFF752F9FEF720FE25A3D3E90023FEF7E7
:1019100073FE02460B4630463946FEF7B5FCFFF72C
:1019200043F9E063206CFEF70FFE0646206A0F467F
:10193000FEF70AFE14A3D3E90023FEF75DFE02467C
:101940000B4630463946FEF79FFC064628460F46B2
:10195000FEF7FAFD10A3D3E90023FEF74DFEFFF7D3
:1019600023F9FEF7F1FD00220023FEF745FE0246B3
:101970000B4630463946FEF787FCFFF715F9BDECFC
:10198000028B2064BDE8F883FCA9F1D24D62603F70
:101990003C4ED1915CFEEF3F72235D1ADCA54C40BA
:1019A00000401CEBE2362A3F07B502238DF80410F5
:1019B0008DF80520417A01AAFFF734FC03B05DF8E9
:1019C00004FB13B504468DF800106A46417A0123E2
:1019D000FFF728FC2046617A012301AAFFF76DFC7E
:1019E0009DF8040002B010BD0021FFF7EABF0121FD
:1019F000FFF7E7BF10B504464FF4967002F042FFC0
:101A000020460822BDE810403121FFF7CDBF30B598
:101A1000102185B004461546FFF7D3FFC30728D52C
:101A20001123217A8DF807300DF10702012320469A
:101A3000FFF7F8FB617A062302AA2046FFF73DFC78
:101A40009DF80B309DF80A209DF80D109DF80900B7
:101A500042EA03229DF80C306A8043EA01239DF894
:101A60000810AB8041EA0021298020461821FFF7A9
:101A7000A8FF05B030BD00002DE9F041234D244FF3
:101A800086B03C21284601F0DCFE2B685C6A00F041
:101A9000CDFF07F10B08064600F0C8FF801BB0F52C
:101AA0007A7F22D92B685A6A1B68DB0626D59442B6
:101AB0001FDDA21A394601A805F0E4FA01AA142193
:101AC0000A20FFF707FB2B681A684146C2F3001291
:101AD00001A805F0D7FA01AA1E210A20FFF7FAFA99
:101AE0002B685C6A00F0A2FF0646012002F053FF5B
:101AF000D2E7C2F57F42FF322244DBE7944201DAAB
:101B0000121BD7E7C4F57F44FF34F5E7AC50002043
:101B1000E89D00087FB5134B01AC03F1080226468F
:101B200018685968254603C5083393422C46F7D1F7
:101B300018689B88AB800C4C28600023CDF81230CD
:101B4000ADF816302146304605F0BCFA0A210846A9
:101B50003246FFF7BFFAFFF721FA4FF47A7002F02E
:101B60001AFFEFE7FC9D0008985000207FB54FF466
:101B70007A7002F087FE2048204E214C214D05F05E
:101B800079FA21491D48FFF733FC1C48FFF720FC78
:101B900001461E4805F0E8F91848FFF72BFF1748E3
:101BA000FFF722FF0146194805F0DEF91348FFF759
:101BB0001EFF0146154805F0D7F91048FFF7C6FC8F
:101BC0000E48FFF725FD642002F0E5FE0B48FFF705
:101BD00003FE01AA03A90948FFF719FF20684FF087
:101BE000FF3103F02DFA336C2B60002320681A4676
:101BF000194603F053F8E6E782A80008244F0020B6
:101C000004020020080200200054004089A80008B7
:101C100000B595B02C22002109A804F033FD142250
:101C2000002103A804F02EFD0023194A0193116C32
:101C300041F080511164126C02F080520192019ABD
:101C4000144A0293116841F48041116012680E93A6
:101C500002F480420292029A02220892012010228B
:101C6000CDE90B0208A801F0C7FA014608B172B627
:101C7000FEE70F23CDE90330CDE90500079003A867
:101C800001F094FC08B172B6FEE715B05DF804FBF4
:101C9000003802400070004080B59AB000F0A0FE0D
:101CA000FFF7B6FF1422002111A804F0EBFC00247A
:101CB000A24B00941A6BA248A24D42F010021A6384
:101CC0001A6B02F010020092009A01941A6B42F013
:101CD00004021A631A6B02F004020192019A029440
:101CE0001A6B42F001021A631A6B02F001020292AF
:101CF000029A03941A6B42F002021A631B6B03F000
:101D00000203039322464FF4F171039B01F052FA50
:101D100022468D483C2101F04DFA01264FF4F17323
:101D2000874811A9CDE91136CDE9134401F068F9CE
:101D30003C23CDE9113684481394022311A914934E
:101D400001F05EF91022214606A804F09BFC1C223B
:101D500021460AA8CDE9044404F094FC202221463F
:101D600011A804F08FFC794BAC60C5E9003428461B
:101D700041F61F43C5E90334C5E9054401F022FEDD
:101D800008B172B6FEE74FF4805306A928460693C1
:101D900001F064FF08B172B6FEE7284601F03EFE8E
:101DA00008B172B6FEE7CDE9040004A9284602F0A6
:101DB00067F8024608B172B6FEE76023CDE90A3043
:101DC000CDE90C00CDE90E0010900AA9284601F0DB
:101DD000DDFE08B172B6FEE704220AA9284601F02A
:101DE000D5FE08B172B6FEE7CDE91100CDE91300CA
:101DF00015904FF40053189011A92846169302F03D
:101E00007DF808B172B6FEE7514C19904FF080434F
:101E1000C4E900304FF0FF33CDE90A00C4E90330D4
:101E2000CDE91160CDE91360CDE91500CDE917606A
:101E3000A060A06111A9204601F01CFE08B172B695
:101E4000FEE7CDE90A000AA9204602F019F8044687
:101E500008B172B6FEE70146102206A804F012FC93
:101E60001C2221460AA8CDE9044404F00BFC2022E0
:101E7000214611A804F006FC364D3748A023C0E9DE
:101E800000534FF47A73C0E90334802384604461C3
:101E9000836101F097FD08B172B6FEE74FF48053FD
:101EA0002D48069306A901F0D9FE08B172B6FEE7E7
:101EB000294801F0B3FD08B172B6FEE7CDE9040090
:101EC00004A9254801F0DCFF08B172B6FEE76023E3
:101ED000CDE90A30CDE90E000C9010900C221E487E
:101EE0000AA901F053FE08B172B6FEE7CDE9110070
:101EF000CDE9130015904FF40053189011A916481E
:101F0000169301F0FBFF044608B172B6FEE71248D3
:101F1000124E00F031FC124834614FF4E133C6E94F
:101F200000030C233046C6E90244C6E90534F461D7
:101F300002F0CCF80446A8B172B6FEE700380240C1
:101F400000100240744F00200000024000040140D5
:101F5000AC500020000001404C500020BC4F00203D
:101F6000004800404E4D014618220AA804F08AFBA2
:101F70002B6B4C4843F002032B632B6B159403F03F
:101F8000020306934FF44072069B0223CDE911230E
:101F900001270323CDE9133711A90423169302F077
:101FA000F8FA2B6C43F400132B642B6CA5F5F23577
:101FB00003F400130493049BEB6823F00103EB602C
:101FC0002B6823F040032B602B6823F080032B60E9
:101FD000354B0A94CDE90B344FF480614FF48043C4
:101FE000CDE90E1328460AA90D9402F071FBEB68A7
:101FF00023F0FE03EB601022214611A804F042FBFF
:102000002A4D2B4BAC60C5E900342846294B2C6186
:102010002C7685F82040EC62AB62EC60EF6185F8CD
:1020200030406F6100F01CFD08B172B6FEE70B2373
:10203000139011A92846CDE9113700F091FE04460E
:1020400008B172B6FEE7FFF765F81B490A22304671
:1020500002F087FA02F02AFC384602F0D1FE174B54
:10206000174A18602146174802F04CFC164B174AD5
:1020700018602146164802F045FC164B164A1860B7
:102080002146164802F03EFC154B164A18602146C0
:10209000154802F037FC154B186002F019FCFEE7FA
:1020A0000038024000040240A086010000500020D9
:1020B000002001400100000F985000200402002081
:1020C000C0A80008B1240008704F002008A900082B
:1020D000791A000894500020E4A80008151B000895
:1020E000F45000202CA900086D1B00084850002067
:1020F000034904484FF6FF730A2202F015B800BFE7
:1021000098500020BC4F002084B030B5194D85B0E8
:1021100008AC84E80F0001224FF48061284601F0EA
:1021200049F808A800F042FD4FF0FF3108A800F080
:10213000C1FD08A800F011FE002204464FF48061A2
:10214000284601F037F8A4B26420B4FBF0F4C4F1DF
:1021500023042246084901A804F094FF01AA28217B
:102160000A20FEF7B7FF204605B0BDE8304004B0B6
:10217000704700BF0000024090A800082DE9F0471A
:1021800000218EB0304E3148DFF8C8A0304F01F04A
:1021900075FE04212D4801F071FE06F110050C2199
:1021A0002C4801F06BFE0FCD6C460FC40FCD0FC451
:1021B0000FCD0FC495E8030084E8030096E80F00F4
:1021C000FFF7A2FF8046DAF80030DFF88090224D5A
:1021D00094221A6404210122384600F0EBFF002209
:1021E0000821384600F0E6FF01222021384600F0A1
:1021F000E1FF00221021384600F0DCFF0A2002F047
:10220000CAFBD9F800304FF496625A639A630FCD37
:102210006C460FC40FCD0FC40FCD0FC495E803005B
:1022200084E8030096E80F00FFF76EFF08F109034A
:102230008342C8DAD9F80030002252205A639A63E8
:102240000EB0BDE8F08700BF00500020744F0020A2
:10225000000002404C50002010500020F8B5002132
:1022600005462E482E4E2F4C2C4F01F007FE042120
:102270002A4801F003FE0C21294801F0FFFD2A48FD
:102280003C2101F0DEFA336894221A6401227DB306
:102290000421204600F08EFF00220821204600F095
:1022A00089FF01222021204600F084FF0022102116
:1022B000204600F07FFF0A2002F06DFB3B684FF4E0
:1022C00096625A639A63184A11684A6A0868C00697
:1022D00012B21ED512F5A17FD5DC00225A639A6393
:1022E0006FF001030B614FF0804352205A62F8BD3A
:1022F0000821204600F05EFF2A460421204600F017
:1023000059FF01221021204600F054FF2A462021C7
:10231000CEE7B2F5A17FB6DBDFE700BF744F002048
:102320004C50002000000240AC5000200000000093
:102330002DE9F84F04462DED028B57489FED578A43
:10234000574D8A46002101F099FD0421524801F0C1
:1023500095FD54480C2101F091FD0FF22C19D9E99B
:1023600000894FF0FF312868DFF840B14D4F02F08F
:1023700067FE0023B5EE408AF1EE10FA1A461946C0
:10238000286808BF9BED008A02F088FC3B68BAF120
:10239000000F3BD064221A640122002C38D042483E
:1023A000042100F007FF40480022082100F002FF4E
:1023B000012220213C4800F0FDFE00221021364E73
:1023C000394800F0F7FE33684FF496625A630A20EA
:1023D0009A6302F0E0FABAF1000F2AD05CBB4FF02A
:1023E000FF31286802F02CFEDBED008A286800230C
:1023F00078EEC88A1A46194602F050FC18EE900A88
:10240000FEF7A2F822A3D3E9002329E0E622C2E7DF
:102410002548082100F0CEFE23482246042100F082
:10242000C9FE01221021204800F0C4FE22462021CE
:10243000C5E7002CD3D14FF0FF31286802F000FE31
:10244000DBED008A2868002378EE688A1A46194670
:1024500002F024FC18EE900AFEF776F842464B464E
:10246000FEF750FB00283FF47CAF3B6894221A64CF
:10247000336800225A630A209A6302F08CFABDEC9A
:10248000028B5220BDE8F88F333333333333FB3FB5
:102490000AD7A3703D0AFB3F744F002000000000E4
:1024A000040200204C5000200000024008020020DE
:1024B00080B590B052238DF83F303848384FDFF860
:1024C000E880364E4FF6FF7301220DF13F0101F017
:1024D0002BFE344D0FCD6C460FC40FCD0FC40FCD66
:1024E0000FC495E8030084E8030097E80F00FFF7A6
:1024F0000BFE2D490122304602F033F898F80030E7
:102500005A2B07D8502B0ED8442B41D0452B3AD00C
:10251000412B3AD025491322481E04F099F8642033
:1025200002F039FAD5E7513B092BF3D801A252F852
:1025300023F000BF7D250008152500087925000837
:102540001525000815250008152500085D2500083B
:102550001525000815250008952500080120FFF71E
:102560007DFE8DF83F004FF6FF7301220DF13F0114
:10257000304601F0D9FDCDE70020F0E70121012030
:10258000FFF7D6FEEDE70021F9E701210020F7E78C
:102590000021FBE7FFF7F2FDE3E700BFBC4F00209F
:1025A000005000201050002098500020995000202A
:1025B00082B00E4B00220092596C41F48041596464
:1025C000596C01F48041009100990192196C41F01D
:1025D000805119641B6C03F080530193019B0F2100
:1025E0006FF0010002B000F05FBC00BF0038024095
:1025F00010B5044688B01422002103A804F042F864
:102600002268124B9A421FD103F58C3300220192AB
:10261000596C0F4841F480715964596C01F4807110
:10262000019101990292196B41F0040119631B6B2E
:10263000059203F0040302930221029B0323CDE9D8
:10264000031303A900F0DCFC08B010BD002001401A
:102650000008024010B5044688B01422002103A8E7
:1026600004F010F823681B4A93420DD10023009315
:10267000194B5A6C42F001025A645B6C03F001037F
:102680000093009B08B010BD144A9342FAD1124B3C
:10269000134800220192596C41F002015964596CAF
:1026A00001F00201019101990292196B41F00401BC
:1026B00019631B6B03F004030293029BC0210223E6
:1026C000CDE90313032303A9CDE90522079300F005
:1026D00097FCD7E7000001400038024000040140A9
:1026E0000008024070B5044688B01422002103A8F7
:1026F00003F0C8FF2368B3F1804F37D103F50E33E1
:10270000002400941A6C1A4842F001021A641A6CF0
:1027100002F001020092009A01941A6B42F0010249
:102720001A631A6B02F001020192019A02941A6B69
:1027300042F002021A631B6B03F002030293029B36
:1027400002264FF40043012503A9CDE90336CDE964
:102750000544079500F054FC08230648079503A993
:10276000CDE90336CDE9054400F04AFC08B070BD60
:10277000000002400004024010B5044686B0142256
:10278000002101A803F07EFF22680F4B9A4218D166
:102790000E4A0F4800230093116B41F010011163A2
:1027A000126B02F0100200924FF48041009A022254
:1027B000CDE90112CDE9033301A90123059300F00E
:1027C0001FFC06B010BD00BF0000014000380240F1
:1027D0000010024010B5044688B01422002103A85E
:1027E00003F050FF2268194B9A422CD103F5F833BD
:1027F000002401941A6C164842F480221A641A6C60
:1028000002F480220192019A02941A6B42F00402AF
:102810001A631B6B059403F0040302934FF44062A8
:10282000029B0223CDE9032303210723CDE90613ED
:1028300003A900F0E5FB27202246052100F034FB28
:10284000272000F063FB08B010BD00BF0048004027
:1028500000080240FEE7FEE7FEE7FEE7FEE77047FE
:1028600008B500F0D7F803F039F9012803D0BDE826
:10287000084003F0DFBC08BD014801F011BD00BFF6
:10288000BC4F00200120704708B503F0A9FE1623B5
:1028900003604FF0FF3008BD08B503F0A1FE16231A
:1028A0000360FEE770B50E4614460025A54201DB25
:1028B000204670BDAFF3008070550135F6E770B566
:1028C0000E4614460025A54201DB204670BD705D12
:1028D000AFF300800135F6E74FF0FF3070474FF45B
:1028E00000534B6000207047012070470020704764
:1028F0000B4B196810B5024609B90A4919601868E6
:1029000009490A4C0244091B8A4206D903F068FEB1
:102910000C2303604FF0FF3010BD1A60FCE700BFCE
:102920000C02002050510020000002200004000092
:10293000034AD2F8883043F47003C2F888307047F5
:1029400000ED00E0DFF834D00D480E490E4A0023B8
:1029500002E0D458C4500433C4188C42F9D30B4A53
:102960000B4C002301E013600432A242FBD3FFF7BB
:10297000DFFF03F03BFEFFF78FF9704700000220F6
:1029800000000020E40100206CAD0008E4010020FC
:102990004C510020FEE7000038B50E4A0E4B0546AC
:1029A00018784FF47A73B3FBF0F31068B0FBF3F0D0
:1029B00000F0BAFA044658B90F2D09D80246294644
:1029C0004FF0FF3000F070FA044B20461D6038BD18
:1029D0000120FCE700000020040000200800002087
:1029E00008B50B4B1A6842F400721A601A6842F478
:1029F00080621A601A6842F480721A60032000F044
:102A000041FA0F20FFF7C8FFFFF7D2FD002008BDF5
:102A1000003C0240034A044B11681B780B441360CE
:102A2000704700BFF850002004000020014B1868D8
:102A3000704700BFF850002038B50446FFF7F6FF96
:102A4000631C1CBF054B1B78054618BFE418FFF735
:102A5000EDFF431BA342FAD338BD00BF04000020A2
:102A600038B50446002800F09B80056C25B9FFF7B7
:102A7000BFFD656484F83C50236CDB0600F18E805A
:102A8000236C23F4885323F0020343F002032364EE
:102A9000444B5A6822F440325A605A6861680A43CB
:102AA0005A60236821695A6822F480725A605A6811
:102AB00042EA01225A605A68A16822F040725A60C4
:102AC0005A680A435A609A68E16822F400629A6080
:102AD0009A680A439A603449A26A8A4252D0996835
:102AE00021F07061996099680A439A609A68E16A76
:102AF00022F040529A609A680A439A609A6822F0DB
:102B000002029A609A68217E42EA41029A6094F831
:102B10002020002A3ED05A68616A42F400625A605E
:102B20005A6822F460425A605A68013942EA4132D6
:102B30005A60DA6AE16922F47002DA62DA6A01390B
:102B400042EA0152DA629A6822F400729A609A6844
:102B500094F8301042EA41229A609A68616922F43E
:102B600080629A609A68002042EA81229A606064DA
:102B7000236C23F0030343F001032364002384F850
:102B80003C3038BD9A6822F070629A609A6822F0F0
:102B90004052B2E75A6822F40062C9E70120EDE72B
:102BA0000120EEE7002301400100000F13B50023D0
:102BB000019390F83C30012B6CD00123026880F81F
:102BC0003C309368D9070CD5936813F001031AD1F0
:102BD000026C42F010020264426C42F00102426454
:102BE00056E093682D4943F0010393602C4B1B681A
:102BF000B3FBF1F303EB43030193019B002BE3D001
:102C0000019B013BF8E7036C264C23F4E06323F0BF
:102C1000010343F48073036453685B0541BF036C95
:102C200023F4405343F480530364036C13F4805340
:102C30001CBF436C23F0060343646FF022010023A2
:102C400080F83C3011601849486810F01F0019D115
:102C5000A24206D0154B9A420DD14B6813F01F0FBC
:102C600007D1906810F0405016D1936843F080432C
:102C7000936002B010BD0E4B9A42FAD14B6813F02C
:102C8000100FEDE7A24207D1906810F04050ECD051
:102C90001846EEE70220ECE70020EAE740420F008A
:102CA00000000020002001400023014000210140DD
:102CB0000022014003689A68520570B504460D462B
:102CC0000BD59B68DE0508D5036C43F02003036435
:102CD000002380F83C30012070BDFFF7A7FE0646B8
:102CE00023681A6891070CD56FF012021A60226CE3
:102CF00042F4007222649A6812F0405F17D00020FC
:102D0000EAE7681CEDD065B923681B6813F002037D
:102D1000E6D1226C84F83C3042F0040222640320A5
:102D2000DAE7FFF783FE801BA842EDD8D8E7207EC4
:102D30000028E4D1DA6A12F4700F02D09B685A05B9
:102D4000DDD4236C23F480732364236CDB04D6D49A
:102D5000236C43F001032364BEE70368D86C70471B
:102D6000F7B50023019390F83C30012B66D0012386
:102D700080F83C300D6803688E68092DACB231D9FB
:102D800004EB4402DF681E3A4FF0070C0CFA02FC19
:102D900027EA0C07DF60DF6806FA02F23A43DA60DE
:102DA0004968062901EB81022CD8596B053A1F2688
:102DB000964021EA06015963596B04FA02F20A436C
:102DC0005A632C4A934207D1122D39D1D2F80433D9
:102DD00043F48003C2F80433002380F83C301846E3
:102DE00003B0F0BD1F6905EB45024FF0070C0CFA6C
:102DF00002FC27EA0C071F611F6906FA02F23A4338
:102E00001A61CDE70C294FF01F010BD81E6B233A36
:102E1000914026EA01011963196B04FA02F20A4390
:102E20001A63CEE7DE6A413A914026EA0101D9628F
:102E3000D96A04FA02F20A43DA62C2E70220CFE753
:102E4000A5F11003012BC7D80B4A5368102D43F48A
:102E500000035360C0D1094B094A1B68B3FBF2F26F
:102E60000A2353430193019B002BB5D0019B013BE7
:102E7000F8E700BF002001400023014000000020CF
:102E800040420F000749CA6822F4E06203021204BC
:102E900003F4E063120C134343F0BF6343F40033C5
:102EA000CB60704700ED00E0164B30B5DC68C4F332
:102EB0000224C4F10705231D042D28BF0425062B79
:102EC0004FF0FF338CBF033C002403FA05F521EAE1
:102ED0000501A34022EA0302A140002841EA0203BF
:102EE000ACBF00F16040084A4FEA0313B8BF00F0DE
:102EF0000F00DBB2AABF00F56140135480F8003325
:102F000030BD00BF00ED00E014ED00E0002808DB5C
:102F10004209012300F01F0003FA00F0014B43F8BF
:102F20002200704700E100E00138B0F1807F0AD252
:102F3000064B074A5860F02182F823100020072230
:102F400098601A6070470120704700BF10E000E0F1
:102F500000ED00E070B50446866DFFF767FD94F85C
:102F60003530022B054606D080236365002384F8A4
:102F70003430012070BD23681A6822F016021A60EE
:102F80005A6922F080025A61226C0AB9A26C1AB105
:102F90001A6822F008021A601A6822F001021A6008
:102FA00023681B6813F001030AD1E16D3F228A40B8
:102FB000B260012284F8352084F834301846D9E70D
:102FC000FFF734FD401B0528EAD920236365032061
:102FD000002384F8350084F83430CBE790F835309E
:102FE000022B03D08023436501207047026805232C
:102FF00080F83530136823F0010313600020704718
:103000002DE9F74FDFF8A891674A00230D680124E6
:103010009C4004EA050CAC4340F0B1804D6805F0DB
:1030200003044FEA43080326671E06FA08F6012F39
:103030006FEA060634D8876807EA060ECF6807FAF3
:1030400008F747EA0E078760476827EA0C0EC5F3C2
:1030500000179F4047EA0E074760C76807EA060E59
:103060008F6807FA08F747EA0E07022CC76019D1E4
:103070004FEAD30A00EB8A0A03F0070BDAF8207054
:103080004FEA8B0B4FF00F0E0EFA0BFE27EA0E0ED7
:103090000F6907FA0BF747EA0E07CAF8207001E03C
:1030A000032CDAD1076804FA08F43E40264315F4ED
:1030B000403F066063D04FF0000ACDF804A0D9F875
:1030C00044603A4C46F48046C9F84460D9F84460FC
:1030D00006F480460196019E23F0030606F1804621
:1030E00006F59C3603F0030ED6F808804FEA8E0EE4
:1030F0000F2707FA0EF7A04228EA070746D004F583
:103100008064A04244D004F58064A04242D004F51B
:103110008064A04240D004F58064A0423ED004F513
:103120008064A0423CD004F58064A0423AD004F50B
:103130008064A0420CBF0724082404FA0EF43C4328
:10314000B46014686FEA0C06EF0354BF34404CEAD5
:10315000040414605468AF0354BF34404CEA0404C0
:1031600054609468EF0254BF34404CEA0404946005
:10317000D468AD0254BF34404CEA0404D460013337
:10318000102B7FF443AF03B0BDE8F08F5446D4E773
:103190000124D2E70224D0E70324CEE70424CCE7BD
:1031A0000524CAE70624C8E7003C014000000240AD
:1031B000003802400AB1816170470904FBE7000052
:1031C000044B01221A60044B82B01B680193019BDF
:1031D00002B0704720000E4200700040044B0022F5
:1031E0001A60044B82B01B680193019B02B07047C8
:1031F00020000E42007000402DE9F341044640B328
:103200000368DD0710D4236898075ED423681A0783
:1032100000F1A08023685B0700F1BE80A069002850
:1032200040F01F8100202BE0A64B9A6802F00C02B0
:10323000042A07D09A6802F00C02082A0BD15A68B7
:10324000510208D59F4B1B689A03DCD56368002B9D
:10325000D9D1012014E06268B2F5803F13D11A6819
:1032600042F480321A60FFF7E1FB964E0546336860
:103270009B03C8D4FFF7DAFB401B6428F7D903206F
:1032800002B0BDE8F0818F4DB2F5A02F2B6807D1B9
:1032900043F480232B602B6843F480332B60E2E7F8
:1032A00023F480332B602B6823F480232B60002AC7
:1032B000D9D1FFF7BBFB06462B689F03A3D5FFF7C9
:1032C000B5FB801B6428F7D9D9E77E4B9A6812F0CA
:1032D0000C0F07D09A6802F00C02082A11D15B6823
:1032E0005E020ED4774B1A68950702D5E268012A70
:1032F000AFD11A68216922F0F80242EAC1021A60CD
:1033000084E7E268704BB2B101221A60FFF78EFBCE
:103310006C4D06462B68980707D52B68226923F069
:10332000F80343EAC2032B6070E7FFF77FFB801BC3
:103330000228EFD9A3E71A60FFF778FB614E054634
:10334000336899077FF562AFFFF770FB401B0228D7
:10335000F6D994E762695D4B7AB101221A60FFF7F2
:1033600065FB584E0546736F9F073FF553AFFFF758
:103370005DFB401B0228F6D981E71A60FFF756FB78
:10338000504E0546736F98077FF544AFFFF74EFB2D
:10339000401B0228F6D972E74A4B1A6C12F0805291
:1033A00028D101921A6C42F080521A641B6C03F00F
:1033B00080530193019B0127454D2B68D9051BD5EF
:1033C000A368404D012B27D12B6F43F001032B67DE
:1033D000FFF72CFB3B4E054641F28838336F9B07C5
:1033E00039D5002F3FF41AAF364A136C23F08053BF
:1033F000136413E70027DFE72B6843F480732B6027
:10340000FFF714FB06462B68DA05D9D4FFF70EFB4D
:10341000801B0228F7D932E7052B04D12B6F43F02C
:1034200004032B67D0E72A6F22F001022A672A6F74
:1034300022F004022A67002BCAD1FFF7F7FA41F203
:10344000883806462B6F9807CBD5FFF7EFFA801B1D
:103450004045F7D913E7FFF7E9FA401B4045BDD9CE
:103460000DE7184DAB6803F00C03082B47D0194E3D
:1034700000230228336035D1FFF7D8FA07462B68BE
:10348000990129D4D4E907321343626A43EA8213CB
:10349000E26A43EA0263A26A5208013A43EA02433B
:1034A0006B6001233360FFF7C1FA064D04462B68B9
:1034B0009A013FF5B7AEFFF7B9FA001B0228F6D91B
:1034C000DDE600BF0038024000004742800E474260
:1034D0000070004060004742FFF7A8FAC01B0228B6
:1034E000CDD9CCE6FFF7A2FA04462B689B017FF505
:1034F00099AEFFF79BFA001B0228F6D9BFE6012818
:103500003FF4BEAE6B68E26903F4800191427FF440
:10351000A0AE216A03F03F028A427FF49AAE616A4C
:1035200047F6C0721A40B2EB811F7FF492AEA26AD6
:10353000520803F44031013AB1EB024F7FF489AEF7
:10354000E26A03F07063B3EB026F3FF46BAE80E6A8
:10355000134908B58B6803F00C03042B1CD0082B0F
:103560001CD14A684B68496813F4800314BF0D48A6
:103570000D48C1F3881118BF002302F03F02A1FBE0
:103580000001FDF761FB064B5B68C3F301430133A8
:103590005B00B0FBF3F008BD0248FCE70248FAE725
:1035A0000038024040787D010024F4002DE9F0410C
:1035B0000D46044610B90120BDE8F081444B1A685D
:1035C00002F007028A4228D3226897072DD4D00739
:1035D00041D43F4B1A6802F00702AA4266D822681B
:1035E00051076CD4130707D53A4A2169936823F42D
:1035F000604343EAC1039360FFF7AAFF354B364AA5
:103600009B68C3F30313D35CD840344B1860344B2E
:103610001868FFF7C1F90020CEE7CAB21A701B681C
:1036200003F007038B42C6D1CEE72A4B12F0040FFA
:103630001EBF996841F4E0519960160742BF99682E
:1036400041F4604199602349A0688B6823F0F0033E
:1036500003438B60BBE762681E4B012A1CD11B68C9
:1036600013F4003FA7D01B4EB36823F003031343AA
:10367000B360FFF7DBF941F288380746B368626848
:1036800003F00C03B3EB820FA3D0FFF7CFF9C01BFD
:103690004045F3D903208FE7911E01291B6802D80A
:1036A00013F0007FDEE713F0020FDBE7EAB21A70D7
:1036B0001B6803F00703AB427FF47DAF8FE705493A
:1036C000E0688B6823F4E05303438B608AE700BF14
:1036D000003C02400038024050A9000800000020D1
:1036E00008000020044B054A9B68C3F38223D35C87
:1036F000034A1068D84070470038024060A90008AB
:1037000000000020044B054A9B68C3F34233D35C9E
:10371000034A1068D84070470038024060A900088A
:1037200000000020036A23F001030362036A70B5FE
:10373000446882690D6822F073022A438D6823F081
:1037400002032B430E4DA84202D00E4EB04210D1C0
:10375000CE6823F008033343A84223F0040302D0C9
:10376000084DA84205D1D1E9055624F440743543EB
:103770002C43446082614A684263036270BD00BFAB
:103780000000014000040140036A23F480730362D7
:10379000036A70B54468C2690D6822F073022A4357
:1037A0008D6823F4007343EA0523114DA84203D02A
:1037B00005F58065A84214D1CD6823F4006343EA7F
:1037C00005230B4DA84223F4806303D005F58065E3
:1037D000A84206D1D1E9055624F44054354344EAC1
:1037E00005144460C2614A68C263036270BD00BFD1
:1037F00000000140036A23F480530362036A30B57A
:103800004468C2690D6822F4E64242EA05228D68E6
:1038100023F4005343EA0533084DA84203D005F5CD
:103820008065A84204D14D6924F4804444EA85149B
:103830004460C2614A680264036230BD0000014016
:10384000704730B590F83E2090F83F3090F84250E5
:1038500090F84340D2B2DBB2EDB2E4B2C9B9012A6A
:1038600046D1012D46D1022380F83E3080F8423007
:1038700003681A6A22F001021A621A6A42F001020F
:103880001A620268136843F00103136000231846AC
:1038900030BD042911D1012B2AD1012CF7D10223EB
:1038A00080F83F3080F8433003681A6A22F0100233
:1038B0001A621A6A42F01002E2E7012A18D1012BBB
:1038C00018D1012DE3D1012CE1D1022380F83E3043
:1038D00080F83F3080F8423080F8433003681A6A3D
:1038E00022F001021A621A6A42F001021A62DCE74F
:1038F0000123CCE71346CAE7304A0368904212D04E
:10390000B0F1804F0FD0A2F57C4290420BD002F56F
:103910008062904207D002F58062904203D002F5A7
:103920007842904219D14A6823F070031343234A26
:10393000904229D0B0F1804F26D0A2F57C4290422F
:1039400022D002F5806290421ED002F58062904241
:103950001AD002F57842904216D0194A904213D0FC
:1039600002F5806290420FD002F5806290420BD047
:10397000A2F59832904207D002F58062904203D0BF
:1039800002F58062904203D1CA6823F44073134366
:103990004A6923F08003134303608B68C3620B689A
:1039A0008362064B984203D003F58063984201D1AD
:1039B0000B69036301234361704700BF00000140AE
:1039C0000040014010B5044630B390F83D3003F09C
:1039D000FF021BB980F83C20FEF73CFE0223206862
:1039E00084F83D30211DFFF787FF012384F846301E
:1039F000002084F83E3084F83F3084F8403084F86A
:103A0000413084F8423084F8433084F8443084F8FC
:103A1000453084F83D3010BD0120FCE710B5044668
:103A200030B390F83D3003F0FF021BB980F83C2022
:103A3000FFF706FF0223206884F83D30211DFFF7C1
:103A40005BFF012384F84630002084F83E3084F880
:103A50003F3084F8403084F8413084F8423084F8B4
:103A6000433084F8443084F8453084F83D3010BD4C
:103A70000120FCE7F8B50D46044600284DD090F82B
:103A80003D3003F0FF021BB980F83C20FEF72AFE10
:103A90002146022384F83D3051F8040B836823F457
:103AA000804323F007038360FFF726FF20682B681D
:103AB00086688269A968076A1E43AB6922F440726E
:103AC00022F0030241EA0323134323F47C422B69CF
:103AD000E9691B0143EA0123E9680B43296A22F0E3
:103AE000FC0243EA01331343696927F0AA026F68B5
:103AF000866047EA0117836117430123076284F850
:103B00004630002084F83E3084F83F3084F842305C
:103B100084F8433084F83D30F8BD0120FCE7000014
:103B2000036A23F010030362036A70B54468826974
:103B30000D6822F4E64242EA05228D6823F0200354
:103B400043EA0513104DA84203D005F58065A8424D
:103B500014D1CD6823F0800343EA05130A4DA8422F
:103B600023F0400303D005F58065A84206D1D1E9D2
:103B7000055624F44064354344EA85044460826178
:103B80004A688263036270BD0000014070B590F81E
:103B90003C30012B0546144654D00122082C80F8F5
:103BA0003C203ED007D8CCB1042C29D0002385F886
:103BB0003C30104670BD0C2CF8D10068FFF71AFE9F
:103BC0002B680969DA6942F40062DA61DA6922F481
:103BD0008062DA61DA6942EA012231E00068FFF7C7
:103BE000A1FD2B6809699A6942F008029A619A69F5
:103BF00022F004029A619A690A439A610022D5E789
:103C00000068FFF78DFF2B6809699A6942F400622A
:103C10009A619A6922F480629A619A6942EA012261
:103C2000EBE70068FFF7B0FD2B680969DA6942F03D
:103C30000802DA61DA6922F00402DA61DA690A4319
:103C4000DA61DBE70222B4E710B58468114324F49B
:103C50007F4441EA03232343836010BD70B590F88D
:103C60003C30012B04464FF0020300F0918001220A
:103C700080F83D3080F83C200068836823F47F435F
:103C800023F0770383600B68602B52D033D8402B2E
:103C900067D016D8202B0DD00AD833F0100109D0E8
:103CA000012384F83D30002384F83C30104670BD79
:103CB000302BF5D1826822F07002134343F00703E2
:103CC00017E0502BECD14A68CE68016A056A25F0EE
:103CD00001050562836921F00A0123F0F00343EA3C
:103CE00006130A4383610262836823F0700343F082
:103CF0005703836011E0B3F5805F0ED0B3F5005F2A
:103D00000DD0702BCCD1CB68D1E90121FFF79CFFFE
:103D10002268936843F0770393600022C0E7CB6882
:103D2000D1E90121FFF790FF2268936843F48043B3
:103D3000F2E74D68CE68016A21F0100101628269E4
:103D4000036A22F4704223F0A00343EA051342EA17
:103D5000063282610362836823F0700343F06703D5
:103D6000C7E74A68CE68016A056A25F00105056261
:103D7000836921F00A0123F0F00343EA06130A43A2
:103D800083610262836823F0700343F04703B0E766
:103D90001A468BE7036A01F01F0110B501248C401D
:103DA00023EA04030362036A8A401A43026210BDD5
:103DB00010B5044629B990F83E30012B1DD00120E2
:103DC00032E0042907D190F83F30012BF7D10223CC
:103DD00080F83F3014E0082907D190F84030012BDB
:103DE000EDD1022380F840300AE090F84130012BF9
:103DF000E5D1022380F8413002E0022380F83E3012
:103E000001222068FFF7C6FF2368194A93420CD0AD
:103E100018498B4209D0B3F1804F0DD19A6802F056
:103E20000702062A1FD1002010BD596C934241F4AD
:103E300000415964F2D0EEE70F4A9342EED002F50A
:103E400080629342EAD002F580629342E6D002F5A6
:103E500078429342E2D002F570529342DED0A2F54E
:103E600094329342DAD01A6842F001021A60DAE71B
:103E7000000001400004014000040040FFF798BF2B
:103E800030B590F83C30012B4FF0020332D080F86F
:103E90003D3003680D685C689A6824F070042C4318
:103EA0005C60154CA3421AD0B3F1804F17D0A4F533
:103EB0007C44A34213D004F58064A3420FD004F5E0
:103EC0008064A3420BD004F57844A34207D004F5E4
:103ED0007054A34203D0A4F59434A34204D149689A
:103EE00022F080020A439A60012380F83D300023CB
:103EF00080F83C30184630BD0000014090F83C305E
:103F0000012B1FD0CB688A6823F4407313434A689F
:103F100023F4806313430A6823F4006313430A699C
:103F200023F4805313434A6923F400531343CA69AB
:103F300023F48043134302685364002380F83C3029
:103F40001846704702207047026802F10C0353E8DC
:103F5000003F23F490730C3242E8003102680029DC
:103F6000F2D102F1140353E8003F23F0010302F100
:103F7000140C4CE800310029F3D1036B012B0BD159
:103F800002F10C0353E8003F23F0100302F10C0C84
:103F90004CE800310029F3D1202380F83E30002383
:103FA000036370470268C16838B5136923F440534E
:103FB0000B431361054683680069D1680343686950
:103FC0000343E86921F4164121F00C0103430B433C
:103FD000D3605369A96923F440730B4353611F4BAA
:103FE0009A4203D003F580639A4224D1FFF78AFBFB
:103FF000EA691923B2F5004FA0FB0301D5E900439C
:104000001CD11A4692184FF000035B41FCF71CFECE
:104010006421B0FBF1F501FB1503DB003233B3FB88
:10402000F1F303F007025B0002EB051203F4F873EF
:104030001344A36038BDFFF755FBD9E79A009B0FE7
:10404000FCF702FE6422B0FBF2F102FB11031B013C
:104050003233B3FBF2F303EB0113EAE70010014044
:10406000F8B504460E4617461D462268136836EA20
:10407000030301D1002028E06B1CF7D025B1FEF727
:10408000D5FCC01B8542F0D2226802F10C0353E834
:10409000003F23F4D0730C3242E80030216800283E
:1040A000F2D101F1140353E8003F23F0010301F1C1
:1040B000140040E80032002AF3D1202384F83D3078
:1040C00084F83C2084F83E300320F8BD10B5044647
:1040D00040B390F83D3003F0FF021BB980F83C205C
:1040E000FEF778FB2268242384F83D30D36823F45C
:1040F0000053D3602046FFF755FF23681A6922F466
:1041000090421A615A6922F02A025A61DA6842F42E
:104110000052DA6000202023206484F83D3084F8C7
:104120003E3010BD0120FCE7F7B5174690F83D2062
:104130000093202A04460E4649D1002945D0002F7D
:1041400043D090F83C20012A41D0012280F83C2045
:1041500000252122056480F83D20FEF767FCA16858
:10416000009BA784B1F5805F0246E78403D12169F3
:1041700009B935460E46002184F83C10E18C89B21D
:1041800041B940212046FFF76BFF60B9202384F836
:104190003D3009E080212046CDE90023FFF760FF94
:1041A000DDE9002310B1032003B0F0BD20684EB953
:1041B00035F8021BC1F308014160E18C013989B275
:1041C000E184DBE716F8011BF6E70120ECE70220AB
:1041D000EAE77047704708B5806B0023C385C38446
:1041E000FFF7F8FF08BD704713B590F83E30222B5B
:1041F00053D18168836A0268B1F5805F3DD101695E
:1042000000293DD15268C2F3080223F8022BC48D65
:104210008362013CA4B2C485002C2CD10368DA6807
:1042200022F02002DA60DA6822F48072DA605A69D9
:1042300022F001025A61202380F83E30036B012BEB
:10424000036827D1046303F10C0252E8002F22F027
:10425000100203F10C0444E800210029F3D11A688C
:10426000D20605D501911A6801925B680193019B02
:10427000818DFFF7B8FF002010E039B9016929B935
:104280005268D2B21A70836A0133C0E7526802F0F2
:104290007F02F7E7FDF72CFFEDE7022002B010BD2B
:1042A000036837B51A68D9685D6912F00F0F0446C4
:1042B00008D1950668D58D0666D503B0BDE83040B7
:1042C000FFF792BF05F0010001F4907505435BD044
:1042D000D50705D5CB0542BF236C43F0010323640A
:1042E000550704D518B1236C43F0020323649307E8
:1042F00004D518B1236C43F004032364150707D5D4
:1043000001F0200303431EBF236C43F00803236422
:10431000236C002B32D0900604D58A0602D52046A5
:10432000FFF762FF23685B69256C03F0400305F02B
:1043300008051D43204623D0FFF706FE2268536977
:104340005B0618D502F1140353E8003F23F0400345
:1043500002F1140040E800310029F3D1A06B50B104
:10436000724B0365FEF73AFE40B1A06B036D03B0DC
:10437000BDE8304018472046FFF72CFF03B030BDA2
:10438000FFF728FF2564F9E7206B012840F09180B2
:10439000D50640F18E80C80640F18B800022019244
:1043A0001A6801925A680192019A5A6955064CD5C9
:1043B000A16B0A68526892B2002ADFD0A08D9042A9
:1043C000DCD9E285CA69B2F5807F36D003F10C02F0
:1043D00052E8002F22F4807203F10C0040E8002123
:1043E0000029F3D103F1140252E8002F22F0010258
:1043F00003F1140040E800210029F3D103F1140275
:1044000052E8002F22F0400203F1140040E800219E
:104410000029F3D1202284F83E20216303F10C020D
:1044200052E8002F22F0100203F10C0040E80021B6
:104430000029F3D1A06BFEF78DFDE38DA18DC91A84
:1044400089B22046FFF7CFFE98E7E18D8AB2E18D71
:1044500089B2002992D0A18D891A89B200298DD004
:1044600003F10C0252E8002F22F4907203F10C05C4
:1044700045E800200028F3D103F1140252E8002F90
:1044800022F0010203F1140545E800200028F3D1D1
:10449000202284F83E20206303F10C0252E8002F12
:1044A00022F0100203F10C0545E800200028F3D1AA
:1044B000C7E7100628D50D0626D594F83D20212AF9
:1044C0007FF45CAFA168226AB1F5805F17D12169E2
:1044D000A9B932F8021BC1F3080159602262E28CCB
:1044E000013A92B2E284002A7FF448AFDA6822F0FF
:1044F0008002DA60DA6842F04002DA603EE7511C7E
:10450000216212785A60EAE750067FF537AF4A0613
:104510007FF534AFDA6822F04002DA60202384F8B5
:104520003D302046FFF755FE28E700BFD741000881
:10453000C285828522230022026480F83E3003680F
:1045400080F83C208162D96841F48071D960596952
:1045500041F001015961D96841F02001D96010464C
:10456000704770B490F83E60202E10D161B15AB1FE
:1045700090F83C40012C0AD0012480F83C400024F3
:10458000046370BCFFF7D4BF012070BC70470220E9
:10459000FBE72DE9F04F02460D6895FAA5F44FF0C0
:1045A000010EB4FA84F403264FF00F0C35FA04F030
:1045B00001D1BDE8F08F0EFA04F32B406DD04868AE
:1045C000471E012F1ED8976893FAA3F8B8FA88F807
:1045D00093FAA3F94FEA480806FA08F827EA080808
:1045E000B9FA89F98F684FEA490907FA09F748EAE1
:1045F00007079760576827EA0308CF685F4348EAD0
:1046000007075760D76893FAA3F8B8FA88F893FABF
:10461000A3F94FEA480806FA08F827EA0808B9FAA1
:1046200089F90F694FEA490907FA09F748EA0707C4
:104630000228D7601DD193FAA3F7B7FA87F7072F9F
:10464000D1F814A02BDC176A93FAA3F9B9FA89F907
:1046500093FAA3F8B8FA88F84FEA89090CFA09F92D
:104660004FEA880827EA09070AFA08FA47EA0A0718
:104670001762D2F8008093FAA3F7B7FA87F793FA94
:10468000A3F3B3FA83F37F0006FA07F75B0028EA87
:10469000070700FA03F33B431360013486E7D2F8BF
:1046A00024B01F0A97FAA7F8B8FA88F897FAA7F77C
:1046B000B7FA87F74FEA88080CFA08F8BF002BEA28
:1046C000080B0AFA07F74BEA07075762D1E7000021
:1046D000F0B50368334F044685B023F0010303604F
:1046E00068460D4600F0BEF86168029BB3FBF7F721
:1046F00021F03F01D5E90126394361602A49206A4A
:104700008A428C4685BF4FF496717943791C4FF4E9
:104710007A7720F03F0084BFB1FBF7F1013101430C
:104720006245216234D96EBB02EB4202B3FBF2F365
:10473000C3F30B024AB343F400433343E2696969AC
:1047400022F44F4222F0FF021343E361A268EB68B8
:1047500022F403420B4322F0FF021343A3602368B9
:104760002A6823F01A031343236023682A6943F05D
:1047700001032360236823F4806313430020236034
:1047800005B0F0BD19214A43D0E748F20103D4E750
:104790005200B3FBF2F340F6FC72134208BF04234D
:1047A000CCE700BF40420F00A0860100034B044A43
:1047B0009B68C3F30313D35CD840704700380240B2
:1047C00050A90008034B044A9B68C3F38223D35CBF
:1047D000D84070470038024060A90008034B044AE3
:1047E0009B68C3F34233D35CD84070470038024023
:1047F00060A900080E4B0F495A6812F4800F0E4A48
:1048000018BF0A46082810D1596858685B68C3F376
:104810000143C0F38810013301F03F015B00B2FB9C
:10482000F1F25043B0FBF3F070470020704700BF37
:104830000038024040787D010024F400064B98685F
:1048400000F00C00042803D0082803D1FFF7D2BFE2
:1048500002487047024870470038024040787D01A6
:104860000024F40010B50446FFF7E8FF2060FFF7CE
:104870009DFF6060FFF7A6FFA0606068FFF7AEFFD6
:10488000E06010BD084B82B01B680193019B064B92
:10489000411C18BF013008B902B070471A68D20332
:1048A00048BF00F1FF30F6E710E000E0EFF30583CA
:1048B0002BB9064B186828B901221A6070476FF0AF
:1048C000050070474FF0FF30704700BF6C040020B8
:1048D00010B5EFF305845CB9084B1A68012A0AD1B8
:1048E000074AD47702221A6000F072FE204610BDFB
:1048F0006FF00500FBE74FF0FF30F8E76C04002095
:1049000000ED00E0F0B587B0144600220B4605929A
:10491000EFF30582D2B9C8B1002C2FD0A569002DC4
:1049200008BF1825691E3729AC462BD86168C9070E
:1049300028D466696EB1B208D4E9027E216857B105
:10494000BEF15B0F02D9246904B1EEB9059807B036
:10495000F0BD8022F0E7BEF1000FF7D12469002CF2
:10496000F4D10C4605A9CDE900C192B2214600F070
:1049700001FE01281CBF00230593E7E74FF0180C48
:104980008022EFE71046E2E7CDE90147009500F00D
:10499000B9FD0590DAE710B5EFF3058424B910B13D
:1049A00000F072FF204610BD6FF00500FBE700002D
:1049B000034B0360034B0B6080231360704700BF01
:1049C0001004002010020020034B0360034B0B6017
:1049D0004FF480731360704770080020700400204B
:1049E00000F108034FF0FF32C0E902234360036186
:1049F00000230360704700230361704743684B60E6
:104A00009A688A609A685160996003680861013306
:104A10000360704730B50C68631C0AD103695A689B
:104A20004A6091608B6059600368086101330360DC
:104A300030BD00F10802134652681568A542FAD944
:104A4000EDE7D0E9011203698A605160596881423B
:104A500008BF5A60002202611A68013A1A60186899
:104A6000704710B5044601F07DFBA46B01F09CFB80
:104A7000B4FA84F0400910BDF8B51546026C866B97
:104A8000044652B9076847BB806801F079F8A7600F
:104A900005460136A6632846F8BD65B9406801F0B1
:104AA000C9FD6368226C1344A26863609342F0D32B
:104AB00023686360EDE7C06801F0BCFD226CE36829
:104AC00051429B1A2268E36093423EBFA3685B1881
:104AD000E360022D01D116B1013E0025D9E735462C
:104AE000D7E7034610B41A6C08466AB1DC689968C7
:104AF00014448C4228BF1968DC6028BFD960D9688B
:104B00005DF8044B01F096BD5DF8044B704770B53D
:104B1000044601F027FB94F8455004F124066DB2D9
:104B2000002D14DCFF2384F8453001F03DFB01F03B
:104B300019FB94F8445004F110066DB2002D12DCFC
:104B4000FF2384F84430BDE8704001F02DBB636A58
:104B5000002BE7D0304600F02FFF08B100F0B8FF7F
:104B6000013D6DB2DCE72369002BE9D0304600F04F
:104B700023FF08B100F0ACFF013D6DB2DEE700009D
:104B800038B50D46044640B94FF0500383F3118801
:104B9000BFF36F8FBFF34F8FFEE701F0E3FAD4E965
:104BA0000F31226862604B43D0185B1A1344A06037
:104BB000E3600020FF23A06384F8443084F845308C
:104BC00095B9236963B104F1100000F0F5FE38B126
:104BD0000A4B4FF080521A60BFF34F8FBFF36F8FB5
:104BE00001F0E2FA012038BD04F11000FFF7F8FEF1
:104BF00004F12400FFF7F4FEF2E700BF04ED00E04B
:104C000013B51C4640B94FF0500383F31188BFF32E
:104C10006F8FBFF34F8FFEE743B94FF0500383F31D
:104C20001188BFF36F8FBFF34F8FFEE74AB191B981
:104C30004FF0500383F31188BFF36F8FBFF34F8F93
:104C4000FEE741B14FF0500383F31188BFF36F8F3C
:104C5000BFF34F8FFEE750230193019B502B08D0E9
:104C60004FF0500383F31188BFF36F8FBFF34F8F63
:104C7000FEE7002908BF2246019B22600123C4E908
:104C80000F0184F8463019462046FFF779FF9DF85A
:104C9000103084F84C30204602B010BD2DE9FF479B
:104CA000884601921F46044640B94FF0500383F3F3
:104CB0001188BFF36F8FBFF34F8FFEE751B9036CBD
:104CC00043B14FF0500383F31188BFF36F8FBFF3ED
:104CD0004F8FFEE7022F0BD1E36B012B08D04FF073
:104CE000500383F31188BFF36F8FBFF34F8FFEE73D
:104CF00000F0F4FE064650B9019B4BB14FF0500353
:104D000083F31188BFF36F8FBFF34F8FFEE7002649
:104D1000DFF8E8A04FF0000937E0019D1DB901F070
:104D200043FA002050E016B902A800F089FE01F015
:104D30003BFA00F091FC01F015FA94F84430FF2B97
:104D400008BF84F8449094F84530FF2B08BF84F8DE
:104D5000459001F029FA01A902A800F07DFE002883
:104D600046D101F0FFF9A26BE36B9A422FD101F01B
:104D70001BFA019904F1100000F0E6FD2046FFF750
:104D8000C6FE00F00DFD50B3012601F0EBF9A26B59
:104D9000E36B9A4201D3022FBFD13A4641462046E7
:104DA000FFF76AFE636A1BB104F1240000F004FE01
:104DB00038B1124B4FF080521A60BFF34F8FBFF3E0
:104DC0006F8F01F0F1F9012004B0BDE8F08701F028
:104DD000EBF92046FFF79BFE00F0E2FCD4E74FF032
:104DE0008053CAF80030BFF34F8FBFF36F8FCBE70C
:104DF0002046FFF78CFE00F0D3FC92E704ED00E0C4
:104E000070B50646502001F01BFB044698B1002502
:104E10000121C0E90F1580F846500060FFF7B0FE91
:104E200084F84C60A5602560E5602B462A4629463B
:104E30002046FFF733FF204670BD2DE9F843894631
:104E400090461F46044640B94FF0500383F3118843
:104E5000BFF36F8FBFF34F8FFEE751B9036C43B1C0
:104E60004FF0500383F31188BFF36F8FBFF34F8F61
:104E7000FEE7022F0BD1E36B012B08D04FF050035C
:104E800083F31188BFF36F8FBFF34F8FFEE701F0FD
:104E900085FAEFF311864FF0500383F31188BFF3C7
:104EA0006F8FBFF34F8FA26BE36B9A4201D3022F38
:104EB00023D194F84550A36B6DB23A46494620463B
:104EC000FFF7DAFD6B1C13D1636A0BB901200BE00D
:104ED00004F1240000F070FD0028F7D0B8F1000FB5
:104EE000F4D00120C8F8000086F31188BDE8F883EB
:104EF00001356DB284F84550E8E70020F4E7000082
:104F00002DE9F04385B00F460192044640B94FF0B9
:104F1000500383F31188BFF36F8FBFF34F8FFEE70A
:104F200051B9036C43B14FF0500383F31188BFF3C1
:104F30006F8FBFF34F8FFEE700F0D0FD064650B9EC
:104F4000019B4BB14FF0500383F31188BFF36F8F78
:104F5000BFF34F8FFEE70026DFF8E0904FF0000828
:104F60003BE0019D1DB901F01FF9002052E016B988
:104F700002A800F065FD01F017F900F06DFB01F0EB
:104F8000F1F894F84430FF2B08BF84F8448094F87B
:104F90004530FF2B08BF84F8458001F005F901A9D1
:104FA00002A800F059FD00283DD12046FFF759FD29
:104FB00098B3019904F1240000F0C6FC2046FFF7E5
:104FC000A6FD00F0EDFB38B94FF08053C9F8003072
:104FD000BFF34F8FBFF36F8F012601F0C3F8A56BAE
:104FE000002DBED039462046013DFFF77AFDA5636E
:104FF000236963B104F1100000F0DEFC38B10F4BFF
:105000004FF080521A60BFF34F8FBFF36F8F01F0E4
:10501000CBF8012005B0BDE8F0832046FFF777FD0F
:1050200000F0BEFBD8E72046FFF771FD00F0B8FBAB
:105030002046FFF716FD0028CED096E704ED00E0ED
:105040002DE9FF410446019140B94FF0500383F32D
:105050001188BFF36F8FBFF34F8FFEE7056C45B12B
:105060004FF0500383F31188BFF36F8FBFF34F8F5F
:10507000FEE700F033FD064650B9019B6BB14FF0DF
:10508000500383F31188BFF36F8FBFF34F8FFEE799
:105090002E46DFF83081002751E00546F9E7019BF5
:1050A00063B945B14FF0500383F31188BFF36F8F9D
:1050B000BFF34F8FFEE701F077F85EE016B902A864
:1050C00000F0BEFC01F070F800F0C6FA01F04AF8FA
:1050D00094F84430FF2B08BF84F8447094F84530AE
:1050E000FF2B08BF84F8457001F05EF801A902A803
:1050F00000F0B2FC00284AD12046FFF7B2FC00289D
:105100003FD023683BB901F02DF8A06800F0F6FC11
:10511000054601F049F8019904F1240000F014FC5F
:105120002046FFF7F4FC00F03BFB38B94FF080530A
:10513000C8F80030BFF34F8FBFF36F8F012601F027
:1051400011F8A36B002BAAD0013BA363236813B90A
:1051500000F0ACFDA060236963B104F1100000F021
:105160002BFC38B1174B4FF080521A60BFF34F8FB2
:10517000BFF36F8F01F018F80125284604B0BDE891
:10518000F0812046FFF7C3FC00F00AFBD6E720467B
:10519000FFF7BDFC00F004FB2046FFF762FC00288F
:1051A000CCD0002DE9D000F0DDFF616A19B1236B8E
:1051B0001968C1F13801A06800F026FD002500F053
:1051C000F3FFDAE704ED00E030B5074A002352F8B8
:1051D000335002EBC3041DB942F83310606030BD98
:1051E0000133082BF3D1FAE7FC50002070B50446D8
:1051F0000D46164600F0B6FF94F84430FF2B04BF6E
:10520000002384F8443094F84530FF2B04BF00237A
:1052100084F8453000F0C8FFA36B2BB9324629460D
:1052200004F1240000F0AAFB2046BDE87040FFF71F
:105230006EBC00002DE9F041044600F093FF2F4BB7
:105240002F4D1A682F4F01321A602E68002E49D157
:105250002C601B68012B1FD1B84640460136FFF772
:10526000BFFB382E08F11408F7D1DFF8C480264EB2
:105270004046FFF7B5FB3046FFF7B2FB2348FFF788
:10528000AFFB2348FFF7ACFB2248FFF7A9FB224BFB
:10529000C3F80080214B1E60214A1368013313605C
:1052A000204A63641168E36A14208B4200FB037098
:1052B00004F1040188BF1360FFF7A0FB00F074FF46
:1052C000194B1B6863B12B68DA6AE36A9A4207D20A
:1052D000164B4FF080521A60BFF34F8FBFF36F8FA2
:1052E000BDE8F081104B1B68002BD5D12B68DA6A22
:1052F000E36A9A4298BF2C60CEE700BF380D0020C9
:10530000CC080020D8080020600D0020800D00206F
:10531000AC0D0020980D0020D0080020D4080020FB
:10532000440D0020480D0020940D002004ED00E005
:105330004C0D0020064A13681968064B19B94FF046
:10534000FF321A6070471268D268D2685268F8E774
:10535000D0080020740D00202DE9F047DDE9098414
:105360004FEA82094A4606460D46206BA5211F4694
:1053700001F088F9226BA9F10409914429F0070989
:10538000ADB36B1E04F134020F3513F8011F02F8A0
:10539000011B197809B1AB42F7D1002384F84330DF
:1053A000089D372D28BF37254FF0000AE562E564D8
:1053B000201DC4F850A0FFF71EFBC5F1380504F10D
:1053C0001800FFF718FBC4F854A02461A5616462BB
:1053D00084F858A03A463146484600F09BFE2060CB
:1053E000B8F1000F01D0C8F80040BDE8F08784F89C
:1053F0003450D5E710B590F8593004463BB9006BEE
:1054000001F0B0F82046BDE8104001F0ABB8012B28
:10541000F9D0022B08D04FF0500383F31188BFF36B
:105420006F8FBFF34F8FFEE710BD000080B5DFF830
:105430005C80124F124C134D236863B9124B1B68EA
:10544000012BF8D94FF08053C8F80030BFF34F8FCD
:10545000BFF36F8FEEE700F085FEFB68DE68301D5E
:10546000FFF7EFFA2B68013B2B602368013B2360B9
:1054700000F09AFE3046FFF7BDFFDDE7AC0D0020DF
:105480003C0D0020380D0020D808002004ED00E07D
:10549000F8B5164B164E1D680446306804300F46AA
:1054A000FFF7CFFA631C334607D137B13168114893
:1054B000BDE8F8400431FFF7A1BA1A682C1954600E
:1054C00007D30D4A10681968BDE8F8400431FFF7AA
:1054D000A1BA0A4A106819680431FFF79BFA084B11
:1054E0001A68A24288BF1C60F8BD00BFC00D002032
:1054F000CC080020980D0020D4080020D0080020FF
:10550000740D002070B586B0DDE90B5445B94FF03D
:10551000500383F31188BFF36F8FBFF34F8FFEE704
:1055200044B94FF0500383F31188BFF36F8FBFF37B
:105530004F8FFEE75C260596059E5C2E08D04FF047
:10554000500383F31188BFF36F8FBFF34F8FFEE7D4
:105550002563022584F8595004AD01950A9D0294F3
:105560000095059EFFF7F8FE2046FFF763FE0498BE
:1055700006B070BD2DE9F043074685B0900088461F
:105580001646994600F05CFF0546E8B15C2000F045
:1055900057FF0446A8B1002380F859300D9B0563DE
:1055A00001930C9B0290009332464B46414638468D
:1055B000FFF7D2FE2046FFF73DFE012005B0BDE813
:1055C000F083284600F0CEFF4FF0FF30F6E70000F2
:1055D00010B588B0002407AA06A905A8CDE905449E
:1055E000FFF7E6F9059B0293069B079A15491648B3
:1055F000CDE900432346FFF785FFA8B100F0B4FBD7
:10560000012813D14FF0500383F31188BFF36F8F3C
:10561000BFF34F8F0D4B4FF0FF321A600C4B1860E9
:105620000C4B1C6000F036FE08B010BD0130FBD101
:105630004FF0500383F31188BFF36F8FBFF34F8F89
:10564000FEE700BF68A900082D540008740D002073
:10565000940D0020C00D0020024A1368013313602E
:10566000704700BF400D0020014B1868704700BF15
:10567000C00D00203F4B1B682DE9F74F002B73D165
:105680003D4B1D6801351D60BDB93C4B1A68126861
:1056900042B14FF0500383F31188BFF36F8FBFF314
:1056A0004F8FFEE7364A1968106818601160354A56
:1056B000136801331360FFF73DFE334E334F3368F9
:1056C000DFF8D4809D424FF0000411D2D8F80030AA
:1056D000DA6A14235343FB58022B2D4B1B6828BF57
:1056E0000124002B18BF0124204603B0BDE8F08F31
:1056F000DFF88890DFF8A4A0D9F800301B681BB948
:105700004FF0FF333360E1E7D9F80030DB68D3F8BE
:105710000CB0DBF80420954201D23260D6E70BF1E1
:10572000040108460191FFF78CF9DBF82820019964
:1057300022B10BF11800FFF784F90199DBF82C0076
:10574000DAF800201423904288BFCAF8000003FB57
:105750000070FFF753F9D8F80010DBF82C20CB6A63
:105760009A4228BF0124C7E70A4A1368013313602D
:105770000024B9E7400D0020C00D0020D008002013
:10578000D4080020780D0020740D0020D8080020D7
:10579000C40D00207C0D0020CC080020480D002006
:1057A000F7B5304C236843B94FF0500383F31188A9
:1057B000BFF36F8FBFF34F8FFEE700F0D3FC23687A
:1057C000013B236024682CB1002400F0EDFC20464E
:1057D00003B0F0BD244B1B68002BF5D0234D244EA5
:1057E000244F1EE0EB68DC6804F11800FFF729F98C
:1057F000211D08460191FFF724F9E36A32680199F7
:105800001420934200FB037088BF3360FFF7F6F863
:10581000194BE26A1B68DB6A9A4202D3174B0122DA
:105820001A602B68002BDDD10CB1FFF783FD144DFE
:105830002C6844B1114E0127FFF71CFF00B13760FF
:10584000013CF9D12C600D4B1B68002BBCD00D4BDB
:105850004FF080521A60BFF34F8FBFF36F8F012458
:10586000B3E700BF400D0020380D0020800D002060
:10587000480D0020D8080020CC080020C40D0020CE
:105880007C0D002004ED00E008B540B90E4B4FF050
:1058900080521A60BFF34F8FBFF36F8F08BD0B4B61
:1058A000196841B14FF0500383F31188BFF36F8F34
:1058B000BFF34F8FFEE7FFF7CFFEFFF7E9FDFFF7DE
:1058C0006FFF0028E2D0E9E704ED00E0400D002082
:1058D000184B1A68184BF0B512B101221A60F0BDCE
:1058E000164D1A60164A2B681427164607FB03F15B
:1058F000501854588CB144680831646844600A44B4
:10590000944204BF62684260142202FB0362526840
:10591000D1680C4A11602B60E1E743B94FF05003A6
:1059200083F31188BFF36F8FBFF34F8FFEE7013B07
:10593000DCE700BF400D0020C40D0020480D002012
:10594000D8080020CC08002010B50C4640B94FF014
:10595000500383F31188BFF36F8FBFF34F8FFEE7C0
:10596000054B19681831FFF755F820460121BDE8AD
:105970001040FFF78DBD00BFCC08002038B50D46A4
:10598000144640B94FF0500383F31188BFF36F8F73
:10599000BFF34F8FFEE7074B19681831FFF72EF85A
:1059A000002C21460CBF28464FF0FF30BDE83840A0
:1059B000FFF76EBDCC080020C36813B5DC6844B99E
:1059C0004FF0500383F31188BFF36F8FBFF34F8FF6
:1059D000FEE704F1180108460191FFF732F8124B77
:1059E00001991B68EBB9211D08460191FFF729F8C1
:1059F0000E4AE36A10680199834288BF13600C4A1B
:105A0000142000FB0320FEF7F9FF0A4BE26A1B6833
:105A1000DB6A9A4285BF084B01200020186002B063
:105A200010BD0648EFE700BF400D0020480D0020E4
:105A3000D8080020CC080020C40D0020800D0020D4
:105A4000034B1B680360034B1B684360704700BF38
:105A5000780D0020C00D002070B50C46054640B9F9
:105A60004FF0500383F31188BFF36F8FBFF34F8F55
:105A7000FEE741B94FF0500383F31188BFF36F8FF6
:105A8000BFF34F8FFEE700F06DFB0F4B19682368E3
:105A90005A1C10D00D482E6800686A68864201D0F2
:105AA0008A420FD9881A83420AD95B1A13442360A9
:105AB0002846FFF7C5FF002400F076FB204670BDA6
:105AC000002323600124F7E7C00D0020780D00209B
:105AD000014B01221A607047C40D0020054B1B6862
